:020000040800F2
:10000000C080002055020008294E00081D3B000852
:10001000D546000849060008CD8100080000000010
:10002000000000000000000000000000F151000886
:10003000B90B00080000000001500008115A000828
:100040006F0200086F0200086F0200086F020008CC
:100050006F0200086F0200086F0200086F020008BC
:10006000E50B0008ED0B0008F50B00086F02000817
:10007000AD0B00086F0200086F0200086F02000855
:100080006F0200086F0200086F0200086F0200088C
:100090006F0200086F0200086F020008FD0B0008E5
:1000A0006F0200086F0200086F0200086F0200086C
:1000B0006F0200086F0200086F0200086F0200085C
:1000C0006F0200086F0200086F0200086F0200084C
:1000D0006F0200086F0200086F020008C55F000889
:1000E000BD0B00086F0200086F0200086F020008D5
:1000F0006F0200086F0200086F0200086F0200081C
:100100006F0200086F0200086F0200086F0200080B
:100110006F0200086F020008ED5A0008F95A000843
:100120006F0200086F0200086F0200086F020008EB
:100130006F0200086F0200086F0200086F020008DB
:100140006F0200086F0200086F0200082D4E0008C1
:100150006F0200086F0200086F0200086F020008BB
:100160006F0200086F0200086F0200086F020008AB
:100170006F0200086F0200086F0200080000000014
:100180006F0200086F02000800F002F800F052F859
:1001900014A696E8000CB244B344DA4501D100F04D
:1001A00049F8BAE80F000FA696E83000A5EB040561
:1001B00004EB0607AAEB0704A7F101074FEA1515A0
:1001C0004FEA3414A4F10104AC4201D300F032F838
:1001D00013F0010F18BFFB1A43F0010300F001F800
:1001E000DBE7184788A00000A8A00000103A24BF51
:1001F00078C878C1FAD8520724BF30C830C144BF8C
:1002000004680C6070470000704700000023002461
:1002100000250026103A28BF78C1FBD8520728BF16
:1002200030C148BF0B6070471FB509F077FF1FBD95
:1002300010B510BD00F0CEF91146FFF7F5FF07F03D
:10024000C7FF00F0ECF903B4FFF7F2FF03BC00F0C6
:10025000F3F900000948804709480047FEE7FEE738
:10026000FEE7FEE7FEE7FEE7FEE7FEE7FEE7FEE766
:1002700004480549054A064B70470000D95A000852
:1002800089010008C0780020C0800020C07C0020C8
:10029000C07C002053EA020C00F069802DE9F04B8D
:1002A0004FF00006002B1FBFB3FA83F503FA05F4E5
:1002B00024FA05F65E4012BF1643B2FA82F502FA3E
:1002C00005F4C5F120051EBF22FA05FC44EA0C0422
:1002D000203556EA044C4FEA144418BF641C4FF012
:1002E00000084FF00009904271EB030C39D300294C
:1002F00019BFB1FA81F701FA07F6B0FA80F700FAF0
:1003000007F6C7F120071EBF20FA07FC46EA0C06D5
:100310002037B6FBF4FCA7EB0507103F07F01F0BD7
:10032000CBF120062CFA06F60CFA0BFB44BFB346C1
:100330000026202FA4BF5E464FF0000B5BEA060CA0
:1003400008BF4FF0010B19EB0B0948EB0608ABFB9C
:10035000027C06FB02CC0BFB03CCC01B71EB0C0137
:10036000C1E70B46024641464846BDE8F08B13B54F
:10037000084318BF4FF0FF300146AFF30080BDE8DF
:100380001C407047032A40F2308010F0030C00F04C
:10039000158011F8013BBCF1020F624498BF11F8BF
:1003A00001CB00F8013B38BF11F8013BA2F1040278
:1003B00098BF00F801CB38BF00F8013B11F00303F0
:1003C00000F09980083AC0F0088051F8043B083AE0
:1003D00051F804CBA0E80810F5E7121D5CBF51F8F6
:1003E000043B40F8043BAFF30080D20724BF11F870
:1003F000013B11F801CB48BF11F8012B24BF00F8D5
:10040000013B00F801CB48BF00F8012B7047431AAD
:1004100028BF9A427FF6B6AF10441144032A40F237
:10042000268010F0030F1EBF11F8013D521E00F888
:10043000013D10F0030F7FF4F6AF11F0030300F05D
:100440009F80083AC0F00B8051F8043D083A51F8FB
:1004500004CD40F8043D40F804CDFFF7F3BF121D72
:100460005CBF51F8043D40F8043DAFF30080D20773
:1004700024BF11F8013D11F801CD48BF11F8012C3E
:1004800024BF00F8013D00F801CD48BF00F8012C61
:10049000704702F0FF0343EA032242EA024200F0FF
:1004A00002B84FF0000200B5134694469646203934
:1004B00022BFA0E80C50A0E80C50B1F12001BFF41D
:1004C000F7AF090728BFA0E80C5048BF0CC05DF883
:1004D00004EB890028BF40F8042B08BF704748BFD1
:1004E00020F8022B11F0804F18BF00F8012B704745
:1004F00070477047704710B5203AC0F00B80B1E8E4
:100500001850A0E81850B1E81850A0E81850203A48
:10051000BFF4F5AF5FEA027C24BFB1E81850A0E851
:10052000185044BF18C918C0BDE810405FEA827C6B
:1005300024BF51F8043B40F8043B08BF7047D20782
:1005400028BF31F8023B48BF11F8012B28BF20F823
:10055000023B48BF00F8012B7047431A28BF9A425C
:100560007FF6C9AF1044114410F0030F1EBF11F8FD
:10057000013D521E00F8013D10F0030F7FF4F6AF6D
:10058000103AC0F00A8010B531E9185020E918502F
:10059000103ABFF4F9AFBDE81040530724BF31E96A
:1005A000081020E9081044BF51F8043D40F8043D0C
:1005B00012F0030F08BF7047D20728BF31F8023D81
:1005C00048BF11F8012C28BF20F8023D48BF00F8B1
:1005D000012C7047754600F02BF8AE4605006946C1
:1005E000534620F00700854618B020B5FFF740FEBF
:1005F000BDE820404FF000064FF000074FF0000824
:100600004FF0000BAC46ACE8C009ACE8C009ACE860
:10061000C009ACE8C00921F007018D46704710B54C
:100620000446AFF300802046BDE81040FFF70BBE44
:10063000004870470001002001491820ABBEFEE7CA
:100640002600020070470000FEE70000002808BFF7
:100650007047B0B50446007C012863D1E9B1A368B6
:10066000DBB14BF60050C0F20150B0FBF1F04FF09F
:10067000FF3101EB50010020B0EB114F52D118684F
:10068000C162E568D9604FEA51017DB3082D2BD0D6
:10069000042D14BF4023382329E0206828B1A18805
:1006A0001546012200F0A8FE2A460120607410467B
:1006B00007F0B8FD206818B1A188002200F09CFE68
:1006C000A06870B1E168006841B1082904D004292C
:1006D00014BF4021382102E03C2100E034210022F7
:1006E000425004F111051BE03C2300E03423C150CB
:1006F0000120254605F8110F104607F093FD55F827
:10070000050C40B1082804D0042814BF402038202C
:1007100002E03C2000E03420A168002209680A5071
:1007200000202870BDE8B04070470000002808BFD6
:10073000704710B504460298C4E902304FF001003A
:100740002160A280208221B108461146002200F0DB
:1007500053FEA06890B1E16802F04AFED4E90201BC
:10076000006841B1082904D0042914BF4021382170
:1007700002E03C2100E0342100224250BDE810405C
:10078000704700000020704740F2F000C2F2000005
:10079000006838B180B500F55570002106F0CEFF35
:1007A000BDE880400020704710B541F6A854C2F261
:1007B000000440F69451C2F200012046002205F0E8
:1007C000D1FF40F29451C2F20001204605F0BCFF77
:1007D00040F2F000C2F20000006820B100F5557050
:1007E000012106F0ABFF002010BD000010B500296C
:1007F000034618BF002B0CD141F6A854C2F20004E6
:100800002046194605F0A0FF204605F077FF00209E
:1008100010BD40F2F000C2F2000000680028EBD0EA
:100820000A68002AE8D000F5557019461C4606F003
:1008300045FF2346E0E7000040F2F000C2F200006E
:10084000006830B180B500F5557006F07DFFBDE859
:10085000804000207047000041F6A852C2F200021A
:10086000D2F8BC22D2F81432002B1CBF01207047F2
:1008700010B541F6A854C2F200040A4601462046CB
:1008800005F070FF2046BDE8104005F0E3BF000012
:1008900041F2B450C2F2000070470000002808BFC7
:1008A00070472DE9F04F81B02DED088B82B042F2F8
:1008B000E8650C21C2F20005009100212A460823B8
:1008C000044604F08BF804F12400042700212A4692
:1008D0000023009704F082F842F2A0650021C2F2E2
:1008E000000504F14800CDE9001101212A46082342
:1008F0004FF0010804F04EF804F16C0000270121CC
:100900002A460C2300970197002604F043F804F1CF
:10091000900002212A4604230096019604F03AF83A
:1009200004F1B40003212A4600230096019604F046
:1009300031F804F1D80542F25862C2F200022846AA
:10094000002140F6D403CDF8008000F07BF9284662
:1009500042F62A3100F010FA04F5847642F2C852C9
:10096000C2F200023046012140F6D403CDF80080E7
:1009700000F068F9304642F62A3100F0FDF904F53E
:100980009C7742F23072C2F20002384602210723FD
:10099000CDF8008000F056F9284600F0F1F9304615
:1009A00000F0EEF9384600F0EBF904F5B4759FED70
:1009B000630ADFED630A9FED631A284604F0E2FA4A
:1009C0009FED618A9FED619A2846B0EE480AF0EEED
:1009D000490A04F001FB9FED5EAA9FED5EBA04F5A3
:1009E000D475B2EE000A2846F0EE4A0AB0EE4B1A71
:1009F00004F0C8FA2846B0EE480AF0EE490A04F0BE
:100A0000EBFA04F5F475B7EE000A2846F0EE4A0A50
:100A1000B0EE4B1A04F0B6FA9FED4F0A2846F0EEFE
:100A2000490A04F0D9FA41F20009C4F2020904F5B6
:100A30000A7A09F580685046002142464FF48053F7
:100A400003F0B6F904F5167B584601214A460823FF
:100A500003F0AEF904F52277A9F580623846022149
:100A60004FF4007303F0A4F904F52E75A9F5805630
:100A7000284603213246042303F09AF9504603F036
:100A80008BF9584603F088F9384603F085F9284673
:100A900003F082F904F53A752846002132464FF4F6
:100AA000004304F0E5FA04F53F76304601214A465A
:100AB000102304F0DDFA284604F0D4FA304604F09E
:100AC000D1FA04F54470A9F5006200214FF4805377
:100AD00003F07EF904F5477009F500620121022355
:100AE00003F076F904F54A7002214A46042303F024
:100AF0006FF904F54D70032142464FF4804303F033
:100B000067F942F2106304F55070C2F200034146E7
:100B1000402200260096FFF709FE04F55575284689
:100B200006F09CFD284606F093FDA4F8806702B00D
:100B3000BDEC088B01B0BDE8F04F70470000C84223
:100B40003333333F0AD7A33C00007AC400007A4411
:100B5000CDCCCC3DCDCC4C3D00000000002808BFE2
:100B6000704710B540F20111A0F88017044603F059
:100B70000BFF04F1240003F007FF04F1480003F029
:100B800003FF04F16C0003F0FFFE04F1900003F09A
:100B9000FBFE04F1B40003F0F7FE04F550704FF4CF
:100BA000FA616422BDE81040FFF750BD42F28400B4
:100BB000C2F2000000F050B97047000080B54FF459
:100BC000806000F03DFB4FF4006000F039FB4FF413
:100BD000805000F035FB4FF40040BDE8804000F04D
:100BE0002FBB0000042000F02BBB0000082000F009
:100BF00027BB0000102000F023BB000080B52020A0
:100C000000F01EFB402000F01BFB802000F018FBD2
:100C10004FF40070BDE8804000F012BB002814BF04
:100C200090ED060A9FED010A704700BF000000002A
:100C3000002814BF90ED070A9FED010A704700BF1E
:100C400000000000002808BF7047DDF800C00170F8
:100C50000021C0E90121C0E90311C0E90511C0E983
:100C600007118384A0F826C0816280F82C10704799
:100C7000002876D090F82C10012972D14168002903
:100C800008BF7047B0B5096840F2601C4D6A027831
:100C9000C2F2000C3CF912102BB2591AB1F5004FF8
:100CA00002DD4FF0FF3E04E011F5004F04DA4FF093
:100CB000010E416971444161D0E904142CF81250CD
:100CC000828C03EB0443591A83600361FAB1C38C2D
:100CD000EBB15A4301EE101A9FED222A00EE102AC2
:100CE000B8EEC11AB8EE400A21EE021A81EE000AEF
:100CF00090ED061A9FED1C2A9FED1C3A21EE021A78
:100D000020EE030A30EE010A80ED060A01E000221F
:100D100082610378012B1ED8826AE2B100EE101ABC
:100D20009FED131AB8EEC00A20EE010A01EE102A58
:100D3000B8EE411A80EE010A90ED071A9FED0B2ADA
:100D40009FED0C3A21EE021A20EE030A30EE010A62
:100D500080ED070A03E0022B1CBF0021C161BDE842
:100D6000B040704700606A47CCCC4C3ECDCC4C3F85
:100D700000007A44CDCC4C3E002818BF81627047F9
:100D8000002808BF7047416879B110B5012180F88B
:100D90002C10044607F056FA6168024608463C21CA
:100DA0002262BDE8104002F051B8704772B600BF31
:100DB000FEE7000070B5866D044600F023FB94F852
:100DC0003510022925D105462068216C026822F0E1
:100DD00016020260426922F08002426109B9A16CE8
:100DE00019B1016821F008010160016821F00101D9
:100DF000016000BF20680068C0070ED000F002FB51
:100E0000401B0628F6D320206065032084F83500B7
:100E10000CE080206065012008E0E06D3F2101FAD0
:100E200000F0B060012084F835000020002184F833
:100E3000341070BD90F83510022909D1052180F8D1
:100E400035100068016821F0010101600020704741
:100E50008021416501207047F0B581B000210091EB
:100E600040F21C01C2F200010B68D0E9166148F2A1
:100E7000B51537680822C1F64E358A403A42A3FBC1
:100E800005350CD003681C68640708D51C6824F07D
:100E900004041C60B260426D42F00102426501220E
:100EA0008A403A4208D003685B691B0604D5B260E9
:100EB000426D42F00202426504228A403A4208D062
:100EC00003681B689B0704D5B260426D42F00402C0
:100ED000426510228A403A4216D001680B681B070F
:100EE00012D5B2600B680A685B0306D4D20506D43B
:100EF0000A6822F008020A6001E011033FD4016C85
:100F000011B1044688472046C26D202101FA02F340
:100F10003B4241D001680F68FF063DD5B36090F8B1
:100F200035700B68052F1AD123F016030B604B693F
:100F300023F080034B61036C0BB9836C1BB10B680E
:100F400023F008030B603F219140B160012180F83C
:100F50003510016D002280F83420D9BB3EE00A68CC
:100F60005B0310D4D20512D40A6822F010020A6082
:100F7000012180F83510002180F8341007E0816CE1
:100F80000029BED1C0E7110301D4416C00E0C16B60
:100F900011B1044688472046416DF9B1416DC9073A
:100FA00016D0052180F835100168AA0A0B6823F0D5
:100FB00001030B60009B01339342009302D80B683E
:100FC000DB07F7D1012180F83510002180F83410BB
:100FD000C16C19B101B0BDE8F040084701B0F0BDE7
:100FE0002DE9F041044600F00DFAC4B10546022097
:100FF00084F835000020216884F83400086820F067
:101000000100086020680168C9070BD000F0FAF9F8
:10101000401B0528F6D90321202203207AE0012075
:10102000BDE8F081016848F23F02CFF21002D4E936
:10103000013501EA020ED4E9032143EA0E032B43F2
:10104000D4E9056C1A43D4E907781143314341EAE6
:101050000702616A42EA0802042942EA0C0303D14A
:10106000D4E90B273A43134303604269042922F071
:10107000070241EA02012DD1D4E90A5341EA0501F0
:1010800043B3BCF5005F08D0BCF1000F12D1022DB4
:1010900016D0012D07D09DB119E0032D17D8DFE838
:1010A00005F00B0F0B02A3F1C072B2FA82F25209E3
:1010B0004AB90FE0032D02D2012222B90AE006D17B
:1010C000C3F3006232B101214022012022E000225C
:1010D000002AF8D100F0F8024AF6AB23103ACAF61B
:1010E000AA23A2FB03374AF2741341613909C0F6FF
:1010F0000003595C40F2FF3398435F2A4FF03F02F0
:1011000088BF0430C4E9160102FA01F181600022AF
:1011100001210020626584F83510BDE8F0810000EF
:1011200090F834C0BCF1010F04BF0220704770B5C5
:101130004FF0010C80F834C0D0F858E090F835C07A
:10114000BCF1010F37D14FF0020C80F835C04FF0E1
:10115000000CC0F854C0D0F800C08468056CC06DA5
:10116000DCF80060402C26F48026CCF80060CCF837
:1011700004300B4604BF13460A463F2101FA00F033
:10118000CCF80830CCF80C20CEF80800DCF80000D1
:1011900040F01600CCF800002DB1DCF8000040F063
:1011A0000800CCF80000DCF8000040F00100CCF8AA
:1011B0000000002070BD002180F83410022070BDB6
:1011C000B0B5044600F01EF9054640F2F400C2F244
:1011D00000000078611C18BF044400BF00F012F941
:1011E000401BA042FAD3B0BD7F2807DC0F280FDCDC
:1011F00004281CD0082822D104F094B9B0F5805FEF
:101200000CDA802815D0B0F5007F18D104F0BCB8F6
:10121000102810D0402812D104F086B8B0F5004F45
:101220000BD0B0F5805F18BF704704F033B904F0FD
:10123000EFB804F091B804F0E9B904F0B7B9704719
:1012400043F61441C4F201010A68024214BF086067
:101250007047FFF7C9BF00002DE9F04F83B000F1E0
:10126000200200F13E4741F60045009207F1FF776A
:10127000C4F2020508224FEAB726A84208BF072297
:10128000072E38BF4FEAB72200274FF0000A4FF071
:10129000000801920AE000BF08F101080AF1020A01
:1012A000B8F1100F07F1040700F09D800D680122CE
:1012B00002FA08FC15EA0C09EED04D68032205F08D
:1012C000030BABF10106012E02FA0AFE10D8866864
:1012D000CC6826EA0E0604FA0AF4344384604468B3
:1012E000C5F3001524EA0C0605FA08F52E434660FE
:1012F000BBF1030F1BD0C6688D6826EA0E0605FAFF
:101300000AF52E43BBF1020FC66010D16FF0030245
:10131000009D02EA580655F806C007F01C040F228B
:101320000B69A2402CEA0202A3401A43AA510268A8
:101330004B6822EA0E0203F0030606FA0AF632436D
:1013400013F4403F0260A7D0002243F64403029208
:10135000C4F202031A6843F6004442F480421A6061
:101360001A68C4F2010402F480420292029A28F040
:1013700003024FF6084C2244CFF6FF7C52F80C30A3
:1013800007F00C060F25B540AB43019D05FA06F6A4
:10139000334342F80C30A2684B6842EA090643F630
:1013A0000C4CDD0258BF22EA0906A660C4F2010C0B
:1013B000DCF800209D0242EA090658BF22EA09062D
:1013C000CCF8006062689D0342EA090658BF22EA31
:1013D000090666602268DB0342EA090658BF22EA72
:1013E0000906266058E703B0BDE8F08F00690840A1
:1013F00018BF012070470000002A08BF090481615E
:101400007047000047F2D800C2F200000068704741
:1014100040F2F40047F2D801C2F20000C2F200012B
:1014200000780A68104408607047000080B543F6F1
:101430000040C4F20200016841F4007101600168DB
:1014400041F480610160016841F480710160032012
:1014500000F0C2F80F2000F005F800F05DF8002061
:1014600080BD000070B586B0002543F640010195AF
:10147000C4F202010A68044642F010020A600968D8
:1014800001A801F0100101910199694600F094FF53
:10149000049E002E18BF012600F0B4FF4DF68361B4
:1014A000B040C4F21B31A0FB01014FF0FF3000EB54
:1014B000914142F2787041F20002C2F20000C4F29F
:1014C000000240F2E733C0E90021C0E902530561A0
:1014D000856101F005FA08B106B070BD42F278707E
:1014E000C2F2000001F092FA0028F5D1054636203C
:1014F00000F034F80F2C0CD836202146002200F0E2
:101500003FF840F2F800C2F200000460284606B03E
:1015100070BD012006B070BD82B0002043F64001CE
:101520000190C4F202014A6842F480424A604A686B
:1015300002F480420192019A00900868002240F073
:101540008050086008680F2100F0805000900098DB
:101550006FF0010002B000F013B80000002848BF8F
:10156000704700F01F01012202FA01F11C2202EA79
:10157000D0004EF20012CEF20002815070470000FF
:1015800010B54EF60C5CCEF2000CDCF80030C3F364
:10159000022E8EF00704042C28BF0424BEF103039E
:1015A0004FF0FF3E0EFA04F438BF0023A1439940E8
:1015B0000EFA03F39A43114300F1604200F00F0367
:1015C000090102F56442043B6344002848BF03F16B
:1015D0000C02117010BD00004EF60C51CEF200014D
:1015E0000A684FF6FF031A4060F30A2242F0806057
:1015F00040F0FD70086070477047000002680020EE
:1016000051627047B0B5D0F800E0DEF82400D1B1E7
:10161000DEF82830B1F1010C00EB13430BD05FFA78
:101620008CF10EF58070002450F8045F01348C4278
:1016300003EB1543F8D343EA02400EEB8C01C1F8EB
:1016400004010020B0BD40EA0240CEF8280000208E
:10165000B0BD0000D0F8E00405F056BB01EBC102BC
:10166000D0F8E03400EB8200026A184605F0B2BA06
:1016700001EBC102D0F8E03400EB8200D0F8602228
:10168000184605F001BB0000D0F8E00405F03EBBB1
:1016900010B54FFA81FC4FF4157201F00F0EBCF13A
:1016A000000F48BF142290F8944402440EEBCE037E
:1016B0004FEAD11C02EB8301012C81F801C002F832
:1016C00023E004BF022010BD0268012380F8943497
:1016D0000446104606F0FCF8002084F8940410BD7F
:1016E000B0B5037901F00F029A4284BF0120B0BD6A
:1016F0004BB24FF41574002B48BF142400EB040EBA
:1017000090F8944402EBC2034FEAD11C0EEB830124
:10171000012C4FF0000481F801C08C700EF82320DA
:1017200004BF0220B0BD0268012380F8943405464E
:10173000104606F059FA204685F89444B0BD0000E2
:1017400001F00F0101EBC10100EB8100D0F868024C
:101750007047000070B54FFA81FC4FF4157EBCF164
:10176000000F01F00F0C48BF4FF0140E00EB0E04F9
:101770000CEBCC05CE0904EB85016FF3DF224E7034
:1017800004F825C08A600B7118BFA1F81AC0022B9B
:1017900004BF00224A7190F89424012A04BF022059
:1017A00070BD0268012380F894340446104605F0A9
:1017B000FFFE002084F8940470BD000010B501F015
:1017C0000F0E0EEBCE0100EB81044FF0000CC4F8BD
:1017D00068C284F855C290F806C004F51571C4F8C3
:1017E0006022C4F86432BCF1010F84F854E208BFEF
:1017F000CA610068624606F03DFA002010BD000094
:10180000B0B5027901F00F0494424FF001022CD8D8
:101810004BB24FF41575002B48BF14254FEAD11C6D
:1018200048BF2146054401EBC10305EB830181F864
:1018300001C090F894C48A70BCF1010F05F82340F0
:1018400004BF0220B0BD02680123054680F894342D
:10185000104606F0F1F92CB92868A97905F29C42E6
:1018600006F094F9002285F894241046B0BD0000DB
:1018700001F00F0C0CEBCC0100EB810101F814CF4F
:101880004FF0000C0B618379C1F814C04FF0010CCC
:10189000CA60012B81F801C008BFCA6180B5006829
:1018A0001A4606F0E7F9002080BD00002DE9F04F50
:1018B00087B005688246284606F054FB10B107B091
:1018C000BDE8F08FDAF8000006F07AFB0028F6D0C9
:1018D000D5F80808C0F30D21DAF80000CAF8D414CE
:1018E00006F06EFB800705D5DAF80000416901F0CB
:1018F00002014161DAF8000005F50061049106F08B
:101900005FFBC006059536D5DAF80000816921F045
:10191000100181612C6A04F00F0000EBC0000AEB9B
:101920008001C4F34340062801F5157511D0022843
:101930001AD147F6F07014EA000615D0E9683409A8
:101940000598224606F040FBE86800EB1610E860B8
:1019500007E005980AF29C41082206F035FBC4F323
:101960000A14686920446861DAF80000816941F06E
:1019700010018161059DDAF8000006F021FB0003EB
:1019800040F1EC80DAF8000006F0F8FA002800F0E8
:10199000E58006460AF29C404FF4306800244FF080
:1019A000000B06901AE000BF05EB080002218160E1
:1019B000B80642BF05EB080020218160B80442BF91
:1019C00005EB08004FF4005181600BF1010B760824
:1019D00008F1200804F1240400F0C080F007F4D0DE
:1019E000DAF800005FFA8BF9494606F0E1FA07469B
:1019F000C0075FD005EB080001218160DAF8000024
:101A000008EB0001036C8A689AF80650012D25D175
:101A1000150732D4950600F1998043F20B05C4F600
:101A20005475AB42059D02D312F400422FD10AEB4C
:101A30000402D2F8743209696FF3DF41A3EB0101AC
:101A4000C2F8681294BBD2F86432002B00F0848094
:101A5000D2F860020844C2F8600227E043F20B05A6
:101A6000C4F65475FF35AB4217D1059D10040ED452
:101A7000900644BF2020886018E043F20B00C4F6B3
:101A80005470059D834215D312F4004012D04FF4D8
:101A90000040886038070FD438E0059D34B9DAF883
:101AA000641219B90021069A06F070F850464946AA
:101AB000FFF7DEFD380729D505EB08000821816016
:101AC000DAF8000043F20B02056C40448168C4F66A
:101AD0005472954205D311F400411CBF4FF40041EC
:101AE0008160504600F076FB43F20B00C4F6547060
:101AF0008542059D0AD39AF80600012806D1DAF836
:101B00000000069A012106F041F800BFF80642BF26
:101B100005EB080010218160B8077FF549AF6869BF
:101B2000000604D50499486840F4806048600AEBD8
:101B3000040090F8571201297FF436AF002180F895
:101B400057125046494600F04BFA2DE72020886096
:101B5000059D3807B0D4D9E70121A4E7DAF80000E1
:101B6000CDF818A006F02CFA400340F1D180069879
:101B7000006806F0FBF9002800F0CA8006460598C8
:101B80004FF0010B00F510670698002500F11409CD
:101B900000F29C400190CDE9029704E0760805F13F
:101BA000010500F0B580F007F8D006985FFA85FAD5
:101BB0000068514606F0EAF90446C00726D0049AA8
:101BC00005F00F00516B0BFA00F021EA00005063A2
:101BD00007EB4510C0F808B006988079012811D1AC
:101BE00005EBC50009EB8000D0E902121144C16089
:101BF00045B9006930B90698019A0068012105F0DD
:101C0000C5FF00BF06985146FFF728FD200742BFD9
:101C100007EB451008218160E00642BF07EB451045
:101C200010218160600642BF07EB451040218160B2
:101C3000A00715D50598294606F062F905EBC50001
:101C400009EB800010F8031F012905D10021017064
:101C50000698514600F0C0F907EB4510022181605B
:101C600020069BD505EBC50009EB8008D8E90410D8
:101C7000814293D3069A081A1468D8F80820904233
:101C800038BF024604EB4510D0F81819033289B268
:101C9000B1EB920F28D300F5106900BFD8E90420FA
:101CA000824221D9101A069AD8E902B1977958458B
:101CB00038BF83461FFA8BF320465246009706F042
:101CC00071FAD8F80C00D8F814105844C8F80C0071
:101CD00001EB0B00C8F81400D9F818000BF1030150
:101CE00080B2B0EB910FD9D2D8E90401DDE90297B7
:101CF00088424FF0010B3FF651AF05F00F00D4F8CA
:101D000034180BFA00F021EA0000C4F8340845E763
:101D1000069C206806F054F9059DB0F1FF3F18DCE1
:101D20000499486820F00100486094F8CC04012828
:101D300007D1002084F8CC0420460021FFF75CFC8A
:101D400002E0204600F02AFA2068416901F00041D3
:101D50004161206806F034F900050BD504988068CD
:101D6000C00702D0204600F05DFA2068416901F406
:101D700000614161206806F023F9C0044DD5049943
:101D8000486820F0010048602068102106F0B8F88B
:101D90002079D0B105F510614FF67F328A600B686B
:101DA000013823F400130B60C1F80822D1F8003287
:101DB00023F40013C1F80032D1F8003243F000637D
:101DC000C1F8003201F12001E8D1049F8421F869B3
:101DD000442240F00110F861E07B00284FF00B0036
:101DE00008BF142108BF42F22B007B5808BF102205
:101DF00018437850B85840F00B00B850386804F2D7
:101E00009C4220F4FE6038602068A17905F0BEFE97
:101E10002068416901F480514161206806F0D0F8E2
:101E2000800416D5206805F003FC206806F08CF8C5
:101E30002568E07100F0E0FAE2790146284606F0F4
:101E400029F9204600F096F92068416901F4005113
:101E50004161206806F0B4F8000707D5204600F07D
:101E6000A1F92068416901F008014161206806F08C
:101E7000A7F8000627D50599886920F080008861B9
:101E8000207902281FD304F5157804F114050126E2
:101E900040F27B2706E000BF20790136864207F139
:101EA000240710D2E05D0128F6D106F00F0000EB08
:101EB000C0023006206805EB820158BF08EB8201A2
:101EC00005F0D0FFE8E7206806F07AF8C0022CD5CC
:101ED0002079022824D3059804F1140900F512652D
:101EE00004F13B064FF00108012706E02079013795
:101EF0002035874206F1240612D22868717801291C
:101F0000F4D1B0F1FF3FF1DC07F00F0000EBC001AE
:101F1000206809EB810186F8008005F0A3FFE5E762
:101F20002068416901F480114161206806F048F899
:101F3000800230D52179059D022927D305F532602D
:101F4000013904F51F72012305E000BF203001397B
:101F500002F124021AD007681678012EF6D1B7F1E3
:101F6000FF3FF3DCD4F8D46486EA1747FF07EDD1CE
:101F700002F8013CAF6947F08007AF616F693F0627
:101F8000E4D40499486840F40070486020684169CE
:101F900001F400114161206806F012F8400007D5F5
:101FA0002046FFF757FB2068416901F080414161FD
:101FB000206806F005F840077FF581AC2068456889
:101FC000680702D52046FFF75FFB20684168294378
:101FD000416007B0BDE8F08FD0F8E00404F0FABE2D
:101FE000D0F8E00404F00CBF002804BF01207047C3
:101FF000B0B582B00446056890F8950428B9002071
:1020000084F89404204600F05BF80320B5F1A04F5B
:1020100084F8950404BF0020A071206805F0AEFD8F
:1020200094E80F00257C009505F0C8FBB8BB20683C
:10203000002105F0EBFF90BB207948B300EBC00016
:10204000800000214FF0010C00230022E51824330A
:102050002A75EA85984202F1010285F815C02976B1
:10206000C5E907116962F1D100210022002300BFF8
:10207000A518243285F85432904203F1010385F803
:10208000551285F85812C5E99711C5F86412EFD1B9
:1020900094E80F00257C009505F07AFC28B1022019
:1020A00084F89504012002B0B0BD002060740120C6
:1020B00084F89504206805F05BFC002002B0B0BDF8
:1020C0002DE9F04786B000680026B0F1A04F0596D4
:1020D000CDE903660296019602D006B0BDE8F0870E
:1020E00043F630070096C4F202073868002440F037
:1020F000010038603868C4F2020400F0010000906A
:1021000000984FF4006001AD01904FF002084FF0CD
:1021100003094FF00A0A20462946CDE90286CDF888
:102120001090CDF814A0FFF797F84FF48050CDE948
:102130000108012003A981E8010620462946FFF78E
:102140008BF87868052140F0800078600096786907
:10215000002240F480407861786900F4804000906B
:1021600000984320FFF70CFA4320FFF7F7F906B079
:10217000BDE8F08710B5C179044621B1022901D02C
:10218000FEF714FE0121D4F8E00404F0C1FED4F8F7
:10219000E004BDE8104004F06FBE0000D0F8E00499
:1021A00004F09CBED0F8E00404F0A2BE90F89424A1
:1021B000012A04BF0220704710B5012280F8942440
:1021C000417402680446104605F052FF002084F86E
:1021D000940410BDD0F8E02400F29C41104604F0B5
:1021E000ADBE000010B5044690F89404012804BF69
:1021F000022010BD2068012184F89414C1684906AA
:1022000006D5617B012903D1816B41F48031816363
:1022100005F06EFE206805F09BFB002084F8940416
:1022200010BD000010B50446D0F8E00404F0DAFE5A
:102230002068D0F8001E41F00101C0F8001EE07ACD
:10224000002808BF10BD4EF61050CEF20000016805
:1022500041F00601016010BD002804BF0120704755
:102260002DE9F04143F60808C4F202080446D8F804
:10227000F8030D4600F00700814207D988F8F853AB
:10228000D8F8F80300F00700A84276D1206881074B
:1022900017D5410705D5D8F8001041F4E051C8F82A
:1022A0000010010705D5D8F8001041F46041C8F8C6
:1022B0000010D8F80010A26821F0F0011143C8F80E
:1022C0000010C0073FD1D8F8F80300F0070085429E
:1022D00007D288F8F853D8F8F80300F00700A842AE
:1022E0004BD12068410707D5D8F80010E26821F4E7
:1022F000E0511143C8F80010000708D5D8F80000D5
:10230000216920F4604040EAC100C8F8000000F0F4
:10231000A1F8D8F800104AF24412C1F30311C0F634
:102320000002515C40F21C0220FA01F140F2F80078
:10233000C2F200000068C2F200021160FFF792F8DA
:102340000020BDE8F0816068811E022907D258F89C
:10235000081C89015CBF0120BDE8F08110E0012864
:1023600007D158F8081C89035CBF0120BDE8F08143
:1023700006E058F8081C890702D40120BDE8F08166
:10238000D8F8001021F003010843C8F80000FFF757
:1023900039F8064641F28837D8F80000616800F045
:1023A0000C00B0EB810F8ED0FFF72CF8801BB842E9
:1023B000F2D90320BDE8F0810F22026043F6080243
:1023C000C4F20202136803F003034360136803F0CE
:1023D000F0038360136803F4E053C360D2F800C0D5
:1023E0004FF4E05303EADC030361D2F8F80300F092
:1023F000070008607047000040F21C00C2F20000B5
:102400000068704740F21C0043F60801C2F2000069
:10241000C4F20201006809684AF25412C1F3822131
:10242000C0F60002515CC8407047000040F21C003A
:1024300043F60801C2F20000C4F202010068096814
:102440004AF25412C1F34231C0F60002515CC84056
:102450007047000010B543F60404C4F2020461683A
:10246000C1F3810142F20040C0F2F400DFE801F064
:102470000203080210BD4BF68020C0F28C1010BD84
:1024800020682168236849024BF68021C0F28C1134
:1024900000F03F02C3F388105CBF42F20041C0F27B
:1024A000F401A1FB00010023FDF7F4FE21680222E4
:1024B000C1F3014102EB4101B0FBF1F010BD00009E
:1024C000002804BF012070472DE9F04182B0044686
:1024D000007843F60006C007C4F2020649D0B0688F
:1024E00000F00C00042809D13068800341D56068F1
:1024F00000283ED1012002B0BDE8F081B06800F0B4
:102500000C00082802D170684002EDD4656830687C
:10251000B5F5A02F05D0B5F5803F09D140F4803046
:102520000CE040F480203060306840F4803005E0FA
:1025300020F480303060306820F480203060FEF776
:1025400061FF002D054611D03068800311D4FEF7DD
:1025500059FF401B6428F7D928E100BFFEF752FF5E
:10256000401B64284FF0030000F2E08030688003D5
:10257000F4D4207880071BD5B06810F00C0F09D078
:10258000B06800F00C00082840F0858070684002B8
:1025900000F181803068800703D5E068012840F0B1
:1025A0009A803068216920F0F80040EAC10030606C
:1025B0002078000734D42078400746D4A5695DB35D
:1025C000B06800F00C00082840F09C80012D00F05D
:1025D00082807068E16900F480028A427BD1216ABE
:1025E00000F03F028A4276D147F6C071626A01402C
:1025F000B1EB821F6FD1A16A4FF6FF73C9039943F4
:1026000000F44032A1F580318A4264D1E16A00F0E1
:102610007060B0EB016F5ED1002002B0BDE8F081C8
:10262000606900285BD00020C4F247200121C0F877
:10263000801EFEF7E7FE0546706F8007BBD4FEF7ED
:10264000E1FE401B0228F7D9B0E0306C5FEAC00819
:102650000AD400200190306C40F080503064306C1F
:1026600000F080500190019847F20007C4F2000783
:102670003868C00526D4386840F480703860FEF7AA
:10268000C1FE05463868C0051CD4FEF7BBFE401BE2
:102690000228F7D98AE0E068002840F20000C4F27E
:1026A000472053D001210160FEF7ACFE054600BF74
:1026B000306880073FF575AFFEF7A4FE401B022887
:1026C000F6D973E0A568306F052D51D0012D56D194
:1026D00040F0010059E0012002B0BDE8F081002087
:1026E000C4F247200021C0F8801EFEF78BFE05468D
:1026F000706F80077FF55FAFFEF784FE401B0228F6
:10270000F6D953E00027C4F2472700203866FEF7C9
:1027100079FE022D05460DD1306880015DD5FEF7AA
:1027200071FE401B02284FF00300F5D902B0BDE84E
:10273000F08100BF306880017FF56EAFFEF762FE6A
:10274000401B02284FF00300F4D9EFE7002101609D
:10275000FEF758FE054600BF306880077FF528AFBA
:10276000FEF750FE401B02284FF00300F4D9DDE7CE
:1027700040F004003067306F40F0010005E020F0C9
:1027800001003067306F20F004003067FEF73AFE3A
:10279000002D054641F2883713D000BF306F800707
:1027A00012D4FEF72FFE401BB842F7D9032002B027
:1027B000BDE8F081FEF726FE401BB8424FF0030053
:1027C000B4D8306F8007F5D4B8F1000F3FF5F6AEFE
:1027D000306C20F080503064F0E604F11C052FCD01
:1027E000084340EA8210D9034FF6FF729143A1F5E6
:1027F000803140EA05600843706001203866FEF7CA
:1028000001FE0446306880013FF506AFFEF7FAFD91
:10281000001B02284FF00300F4D987E7704700003F
:102820007047000090F83C20012A4FF0020255D07A
:1028300010B5012380F83C3080F83D200268D2F8C2
:1028400004E0D2F808C00C682EF07003234341F274
:10285000FF74C4F20004A24253600DDC40F2FF7327
:10286000C4F200039A4215DCB2F1804F29D040F245
:102870000043C4F2000322E040F2FF33C4F201033C
:102880009A4212DC41F60003C4F200039A4218D0C7
:10289000002312E040F60003C4F200039A4210D075
:1028A00040F60043C4F2000309E044F20003C4F21E
:1028B00001039A4205D040F20043C4F201039A4258
:1028C00004D149682CF08003194391600121002252
:1028D00080F83D1080F83C20BDE81040104670475D
:1028E000002804BF0120704710B5044690F83D0051
:1028F00028B9002084F83C00204600F01FF8022090
:1029000084F83D002068211D03F0FCF8012084F8C4
:10291000460084F83E0084F83F0084F8400084F8C4
:10292000410084F8420084F8430084F8440084F8AD
:10293000450084F83D00002010BD000080B582B045
:10294000006841F2FF31C4F20001884219DC40F214
:102950000041C4F2000188422DD040F60001C4F2CB
:102960000001884236D10020019043F64000C4F2B5
:102970000200016841F004010160006800F00400F9
:1029800026E041F20041C4F20001884224D044F222
:102990000041C4F2010188421CD10020019043F69D
:1029A0004000C4F20200416841F4003141604068D7
:1029B00000F400300CE00020019043F64000C4F227
:1029C0000200016841F002010160006800F00200AD
:1029D0000190019802B080BD0020019043F64000B4
:1029E000C4F202000168002241F020010160006889
:1029F000052100F02000019001983720FEF7C0FD6E
:102A0000372002B0BDE88040FEF7A8BD90F83D1029
:102A100001291CBF01207047022180F83D10006889
:102A200041F2FF72C168C4F20002904241F001011C
:102A3000C1600DDC40F2FF71C4F20001884215DC78
:102A4000B0F1804F29D040F20041C4F2000122E0F1
:102A500040F2FF31C4F20101884212DC41F600016C
:102A6000C4F20001884218D0002112E040F60001B3
:102A7000C4F20001884210D040F60041C4F20001C7
:102A800009E044F20001C4F20101884205D040F29D
:102A90000041C4F20101884206D1816801F00701BA
:102AA000062904BF00207047016841F00101016060
:102AB0000020704790F83C20012A4FF002026ED0AF
:102AC00080B5012380F83C3080F83D20D0F800C06C
:102AD0004FF67772DCF8083023EA0202CCF80820BF
:102AE0000B684F2B28DC1F2B44DD202B45D0302BCF
:102AF00043D0402B40F0AC80D1F804E0C968DCF84A
:102B00002030DCF8202022F00102CCF82020DCF874
:102B1000182022F0F00242EA011123F00A0242EAF0
:102B20000E02CCF81810CCF82020DCF8081041F088
:102B3000470121F0300127E06F2B32DDB3F5005F54
:102B400073D0B3F5805F21D0702B40F08180D1E944
:102B500001E3C968DCF8082043EA0E0322F47F424F
:102B600043EA01211143CCF80810DCF8081041F0C9
:102B7000770109E00BB1102B6AD1DCF8081021F0C5
:102B80007001194341F00701CCF80810002201211F
:102B900080F83D10002180F83C10BDE880401046D0
:102BA0007047502B21D0602B52D1D1F804E0C96876
:102BB000DCF82030DCF8202022F01002CCF82020B5
:102BC000DCF8182022F4704242EA013123F0A0021E
:102BD00042EA0E12CCF81810CCF82020DCF80810CD
:102BE00041F0670121F01001CEE7D1F804E0C96897
:102BF000DCF82030DCF8202022F00102CCF8202084
:102C0000DCF8182022F0F00242EA011123F00A0257
:102C100042EA0E02CCF81810CCF82020DCF808109C
:102C200041F0570121F02001AEE7D1E901E3C96885
:102C3000DCF8082043EA0E0322F47F4243EA012134
:102C40001143CCF80810DCF8081041F480419BE7F0
:102C500001229CE7002804BF012070472DE9F047BE
:102C6000044690F83D000D4628B9002084F83C0049
:102C7000204600F049F8022084F83D00206844F224
:102C80000702816891438160211D02F03BFF2068AB
:102C90004FF6FF7881688269D0F820C0D5E9003E00
:102CA000D5E9026A43EA0109AB6922EA080246EA69
:102CB00003234FF6FC46B343D5E9076742EA0A020D
:102CC00029691A4342EA062242EA01112CF0AA02BB
:102CD0006B6942EA0E0241EA073142EA0312C0F888
:102CE000089081610262012084F8460084F83E0069
:102CF00084F83F0084F8420084F8430084F83D00E3
:102D00000020BDE8F0870000F0B587B0006800251E
:102D1000B0F1804F0695CDE904550395029557D043
:102D200040F60041C4F2000188422DD00021C4F2D7
:102D30000101884240F08880002043F63001019074
:102D4000C4F202014A6942F001024A614A6902F092
:102D500001020192019A01900A6842F010020A6091
:102D6000096801F01001019101994FF4206102916D
:102D70000221CDE903100590012006900020C4F245
:102D8000020000F580505CE0002043F63001019025
:102D9000C4F202010A6942F008020A610A6902F0FB
:102DA00008020192019A01900A6842F001020A6049
:102DB000096801F0010101910199032102910221A9
:102DC000CDE90310CDE905010020C4F2020038E08E
:102DD00043F630000195C4F202000169002441F07D
:102DE000010101610169C4F2020401F001010191D4
:102DF000019901950168022641F001010160016815
:102E0000012701F00101019101990195016841F04B
:102E100002010160006802A900F00200019001981F
:102E2000202002902046CDE9036505950697FEF720
:102E300013FA0820CDE90206CDE90455069704F5FA
:102E4000806002A9FEF708FA07B0F0BD80B590F8DF
:102E50003E2090F83F3090F842E090F843C00429BB
:102E600009D099B9012A4FF0010208BFBEF1010F44
:102E700022D0104680BD012B4FF0010208BFBCF1EB
:102E8000010FF6D1022280F83F2012E0012A4FF014
:102E9000010208BF012BECD1BEF1010FE9D1BCF159
:102EA000010FE6D1022280F83E2080F83F2080F812
:102EB000422080F8432004E0022280F83E2080F87F
:102EC000422002680429136A04D031B923F00101B9
:102ED00001230DE023F0100109E023F0010111624C
:102EE000116A41F001011162116A21F010011023F1
:102EF0001162116A1943116200680022016841F0F1
:102F000001010160104680BD7047000070B50446A5
:102F10000068C5680669B10716D515F0020113D01F
:102F20006FF002010161012121778069800703D0E0
:102F30002046FFF7E9FF05E0204600F019F920469A
:102F400000F054FA00202077700718D515F004001F
:102F500015D020686FF0040101610221217780699A
:102F600010F4407F03D02046FFF7CEFF05E0204657
:102F700000F0FEF8204600F039FA002020773007F4
:102F800017D515F0080014D020686FF00801016112
:102F900004212177C069800703D02046FFF7B4FFE2
:102FA00005E0204600F0E4F8204600F01FFA00207B
:102FB0002077F00618D515F0100015D020686FF0B6
:102FC0001001016108212177C06910F4407F03D00E
:102FD0002046FFF799FF05E0204600F0C9F820469B
:102FE00000F004FA00202077F00718BF15F0010068
:102FF00002D1300609D412E020686FF001010161AE
:10300000204600F083FA300609D515F0800006D07E
:1030100020686FF0800101612046FFF7FFFB70061A
:1030200009D515F0400006D020686FF0400101611D
:10303000204600F093FAB00658BF70BD15F020008E
:1030400008D021686FF0200220460A61BDE8704078
:10305000FFF7E6BB70BD000070B586B0006844F2B3
:103060000042C4F2010200219042CDE90411CDE9F1
:10307000021101915BD040F60001C4F200018842C8
:1030800023D040F20041C4F2000188426ED10020FA
:1030900043F630010090C4F202010A6842F00402D3
:1030A0000A60096801F00401009100994FF4707101
:1030B00001910221CDE90210CDE9040140F2004066
:1030C000C4F2020000F580604DE0002443F63000B9
:1030D0000094C4F20200016840F2004641F0080189
:1030E00001600168C4F2020601F008010091009934
:1030F00000940168022541F002010160006801A905
:1031000000F00200009000984FF44040019006F556
:103110000060CDE90254CDE90445FEF79DF8C021D9
:103120003046CDE90115CDE9034405951BE043F692
:1031300030000091C4F20200026842F020020260F6
:10314000006800F0200000900098402001900220CC
:10315000CDE902010320059040F20040C4F20200D4
:1031600000F58050049101A9FEF776F806B070BD15
:103170007047000090F83C30012B04BF02207047DC
:103180004FEAB2020123032A80F83C3000F2F880B3
:103190002DE9F043DFE802F002AF3D7D036840F225
:1031A00000461C6A1A6A24F0020422F001021A6224
:1031B0001A46D3F804C052F818EF8F6843F48065BC
:1031C000C4F20106B54244EA070405D1CF6824F0F1
:1031D0000C0427F004073C430F68B54206D1D1E93F
:1031E00005582CF440762E4346EA080C2EF0730660
:1031F0003743C3F804C09F614F6809695F631C626D
:103200009F6947F008079F619F6927F004079F6146
:10321000B0E0036840F200481C6A1A6A24F40074A3
:1032200022F480721A621A46D3F804C052F81CEFD6
:103230008F6843F48065C4F20108454544EA0724D9
:1032400008D1CF6840F2FF463F0224F4406427EAE9
:1032500006063443D1F80090454506D1D1E905561C
:103260002CF440572E4347EA061C2EF0730747EA1A
:103270000907C3F804C0DF614F680969DF631C6296
:10328000DF6947F00807DF61DF6927F00407DF61C6
:1032900070E0036840F20045D3F820C01A6A43F496
:1032A000806722F480521A621A465C6852F81C8FBA
:1032B000D1F800E08E68C4F20105AF4204D14D6937
:1032C00024F4804444EA85142CF4005747EA063776
:1032D00028F4E64646EA0E265C60DE614E6809691F
:1032E0001E641F62DF6947F40067DF61DF6927F44E
:1032F0008067DF613DE0036840F200481C6A1A6A9B
:1033000024F0200422F010021A621A46D3F804C0F6
:1033100052F818EF8F6843F48065C4F20108454500
:1033200044EA071407D1CF686FF0400624F0C004C8
:1033300006EA07163443D1F80090454506D1D1E995
:1033400005562CF440672E4347EA860C2EF4E647D8
:1033500047EA0927C3F804C09F614F6809699F6362
:103360001C629F6947F400679F619F6927F480672B
:103370009F6109021368194300231160BDE8F043FF
:10338000002180F83C10184670470000002804BF58
:103390000120704710B5044690F83D0028B9002080
:1033A00084F83C00204600F01FF8022084F83D001D
:1033B0002068211D02F0A6FB012084F8460084F855
:1033C0003E0084F83F0084F8400084F8410084F80F
:1033D000420084F8430084F8440084F8450084F8EF
:1033E0003D00002010BD0000704700007047000045
:1033F0004122082908BF4022042908BF3F22002992
:1034000008BF3E22825C012A1CBF012070470222B5
:1034100041B1082909D0042914BF80F8412080F85F
:103420003F2004E080F83E2001E080F84020006862
:1034300001F01F010122036A02FA01F123EA0102ED
:103440000262026A0A4341F2FF71C4F2000188423B
:1034500002620BDC40F2FF71C4F20001884213DC0F
:10346000B0F1804F45D040F2004115E040F2FF320C
:10347000C4F20102904214DC41F60003C4F20003DE
:10348000984236D0002314E040F60001C4F2000157
:1034900088422ED040F60041C4F20001884228D074
:1034A0002EE044F20003C4F20103984221D040F21E
:1034B0000043C4F20103984222D1436C884243F492
:1034C00000434364C6DD904207DC41F60001C4F2CC
:1034D000000188420DD0002107E044F20001C4F24F
:1034E0000101884205D040F20041C4F20101884246
:1034F00006D1816801F00701062904BF002070474A
:10350000016841F0010101600020704710B50068BA
:1035100041F20001C4F20001884219D001F5806136
:10352000884218BF10BD40F2F004C2F200042068C7
:1035300090B1D830FDF79CFB206800F58470FDF752
:1035400097FB206800F59C70BDE81040FDF790BB2C
:10355000BDE81040FDF75CBF10BD000070470000E3
:1035600090F84230202B07D100294FF0010318BFFB
:10357000002A04D118467047022318467047B0B598
:1035800082B00123002503634563044602F0C4FCB6
:10359000216B0123012912D1019521680A6801924A
:1035A00049680191019900BF216851E8031F226811
:1035B00041F0100142E80313002BF5D1034602B09D
:1035C000BDE8B0401846704742F65002C2F2000211
:1035D000904218BF704710B542F6A87443F2B0008D
:1035E000C2F200040A46C2F20000214601F0BCFD0E
:1035F00042F65000C2F2000021464FF48072BDE84E
:103600001040FFF7ADBF000070470000B0B582B0BA
:1036100001680A68CC684B6902F02F05202D04F080
:10362000200505D125B102B0BDE8B04002F0A4BB31
:103630005FEA027C1EBF03F0010E04F4907313EBEB
:103640000E0340D1036BD50618D5012B16D114F00B
:10365000100313D0002201920A6801924A68019275
:10366000019A4969490647D4818DC28DC38D002BCB
:1036700018BF914240F01A8102B0B0BD13062AD59E
:1036800014F0800327D090F84120212AF4D18268D9
:10369000B2F5805F03D10269002A00F03A81026A24
:1036A000531C036212784A60C28C013A1304C2842C
:1036B000E2D1C86820F08000C860C86840F04000CF
:1036C000C86002B0B0BDD10718BF14F4807167D1D3
:1036D00051076BD471E05206CED514F04002CBD026
:1036E000CA6822F04002CA60202180F8411002B06E
:1036F000BDE8B04000F010BAC26B116849688BB2E7
:10370000002B42D0858DAB423FD2C185D169B1F546
:10371000807F33D0016851E8031F026821F4807173
:1037200042E80313002BF5D1016851E8051F026838
:1037300021F0010142E80513002BF5D1016851E8A1
:10374000051F026821F0400142E80513002BF5D166
:10375000202180F842100021016300BF016851E878
:10376000031F026821F0100142E80313002BF5D17A
:10377000C16B04460846FDF71DFB2046022141634C
:10378000818DC28D891A89B2B9E0818D99427FF409
:1037900073AFD269B2F5807F7FF46EAF0222ADE0E5
:1037A000416C41F001014164510706D5BEF1000FA3
:1037B00003D0416C41F002014164910706D5BEF18E
:1037C000000F03D0416C41F004014164BCF1000FD3
:1037D00006D55EEA050103D0416C41F00801416461
:1037E000416C00293FF448AF910604D51DB1044651
:1037F00002F0C2FA204601684969426C01F04001BA
:1038000002F0080289184AD0016851E8031F0268D3
:1038100021F4907142E80313002BF5D1016851E8BF
:10382000051F026821F0010142E80513002BF5D1C4
:10383000016B01290AD100BF016851E8031F02682A
:1038400021F0100142E80313002BF5D1202180F86C
:1038500042100021016301684969490654D500BF3F
:10386000016851E8051F026821F0400142E8051394
:10387000002BF5D1C16B002946D045F63142C0F688
:103880000002044608460A65FDF7D4FA00283FF412
:10389000F3AEE06B016D02B0BDE8B04008470446EE
:1038A000FFF7B2FE0020606402B0B0BD891A00BF0D
:1038B000026852E8032F036822F4907243E803255C
:1038C000002DF5D1026852E8052F036822F00102AD
:1038D00043E80525002DF5D1202280F84220002262
:1038E000026300BF026852E8032F036822F010024F
:1038F00043E80325002DF5D1022289B2426302B0CC
:10390000BDE8B040FFF760BE02B0BDE8B040FFF7D1
:103910007BBE026A32F8023B6FF35F234B600262A8
:10392000C2E60000002804BF0120704710B504461D
:1039300090F8410028B9002084F84000204600F0AB
:1039400021F8242084F841002068C16821F4005146
:10395000C160204602F070FA2068016921F49041AC
:103960000161416921F02A014161C16841F40051BE
:10397000C16000202021606484F8411084F8421066
:10398000606310BD70B586B0016844F60002C4F2F1
:10399000000200269142CDE90466CDE90266019657
:1039A00060D041F20000C4F2010081422FD044F601
:1039B0000040C4F20000814240F0A780002043F69E
:1039C00030010090C4F202010A6942F400220A6147
:1039D0000A6902F400220092009A00900A6842F0FC
:1039E00004020A60096801F00401009100994FF493
:1039F000406101910221CDE90210032004900820CA
:103A000005900020C4F2020000F5006025E00020CF
:103A100043F630010090C4F202014A6942F01002FC
:103A20004A614A6902F010020092009A00900A6806
:103A300042F001020A60096801F001010091009959
:103A40004FF4C06101910221CDE9021003200490DE
:103A5000072005900020C4F2020001A9FDF7FCFB3D
:103A600006B070BD054643F630000096C4F2020071
:103A7000016941F480210161016901F48021009113
:103A800000990096016841F002010160006801A9F7
:103A900000F00200009000984FF440600190022076
:103AA000CDE9020603200490072005900020C4F20F
:103AB000020000F58060FDF7CFFB42F2840446F27D
:103AC0002800C2F20004C4F202004FF0006184E852
:103AD00043004FF400304FF48062C4E908062046EA
:103AE000C4E90362C4E90566E661FDF779FA0028D6
:103AF00018BFFDF75BF9272005210022EC63A563C1
:103B0000FDF73EFD2720FDF729FD06B070BD000042
:103B1000704700007047000070470000FEE700009B
:103B200094B004AC43F2B005E01CC2F2000543F2CD
:103B3000C4010190C2F2000128464FF4806201F0F6
:103B4000FDFA42F6500042F6A871C2F20000C2F23D
:103B500000014FF48072FFF703FDFDF753FC9FED6A
:103B60008D8A8146A4F1010B4FF055080DF10F0627
:103B7000CDF800B005E04FF0550800BF012004F07B
:103B800051FB284601F09EFA0B2808D300208DF83F
:103B90000F00284601F096FA0B2880F08180FDF78F
:103BA00031FCA0EB09000528E8D340F2F000C2F296
:103BB0000000D0F8008009F10509B8F1000FDAD053
:103BC00042F69070CDF80890C2F20000016842F60B
:103BD0009470C2F20000026842F69870C2F20000CF
:103BE000036842F69C70C2F20000076842F6A070BB
:103BF000C2F20000066842F6A470C2F20000D0F8DB
:103C000000C043F2AC00C2F20000D0F800E043F282
:103C1000A800C2F20000D0F800A043F2C440C2F2F3
:103C20000000D0F80090DDF804B0CBF8001041F2AD
:103C3000AA01ADF810102421CBF804208DF8121041
:103C400000210122CBF80830CBF80C70CBF81060C3
:103C5000CBF814C0CBF818E0CBF81CA0CBF8209020
:103C6000A35C0132272A81EA0301F9D155208DF89E
:103C700037108DF8380008F55570214629224FF08D
:103C8000550803F029FDDDF80890DDF800B00DF1CE
:103C90000F0673E7284601F015FA0A287FF67FAF72
:103CA0002846314601F0F2F99DF80F005528F1D170
:103CB00028468DF8108001F005FA0A28FFF46FAF4E
:103CC0004FF0010A04EB0A01284601F0DFF90AF17E
:103CD000010ABAF10B0FF5D100200A215A4600BFA4
:103CE00012F8013F01391844FAD19DF81A10C0B2F8
:103CF0008842CFD19DF811005138C0B20228C9D8EE
:103D00004AF23817BDF91210C0F6000707EB80061B
:103D100096ED000A01EE101A15A7B8EEC11ABDF90A
:103D2000142057F8206020EE011A14A716A321EEE4
:103D3000081ABDF916C057F8207053F8200086ED18
:103D4000001A01EE102AB8EEC11A20EE011A21EE77
:103D5000081A87ED001A01EE10CAB8EEC11A20EE5B
:103D6000010A0DF10F0620EE080A80ED000A91E726
:103D7000902F00209C2F0020AC300020942F00209A
:103D8000A02F0020A8300020982F0020A42F002072
:103D9000C434002000000038002808BF704700F13C
:103DA0000C0101220346084683F82D2001F02EB8AD
:103DB000002808BF704701704260002200F10C012A
:103DC00003818262034608469A8501F01FB800000D
:103DD000002808BF704780B54FF4807C864601708C
:103DE00042600381104619460022AEF80AC0BDE8C1
:103DF0008040FDF701BB000070B14268002A08BF97
:103E00007047B0B501890446104600220025FDF731
:103E1000F3FAA572BDE8B0407047000070B1426887
:103E2000002A08BF7047B0B5018904461046012238
:103E30000125FDF7E1FAA572BDE8B040704700002A
:103E400080B582B00020019043F63000C4F2020039
:103E50000168002241F4001101600068052100F4AE
:103E60000010019001980C20FDF78AFB0C2002B095
:103E7000BDE88040FDF772BB10B545F601204AF25F
:103E80007C12C0F60000C0F60002002104F014FA13
:103E900041F2B051C2F200010860FCF7F9FC04469F
:103EA000FCF7FCFC01F03AFA01F0E0FB45F2E960B6
:103EB0004AF2E812C0F60000C0F60002002104F049
:103EC000FBF943F2C841C2F20001086044F20D70F0
:103ED0004AF2C412C0F60000C0F60002002104F04D
:103EE000EBF942F61411C2F20001086045F6D170F8
:103EF0004AF24822C0F60000C0F60002002104F099
:103F0000DBF947F2D401C2F20001086043F6213028
:103F10004AF2A012C0F60000C0F60002002104F030
:103F2000CBF942F6E0020146C2F2000220461160DF
:103F3000BDE81040FCF712BE2DE9F04F87B0002419
:103F400043F630000694CDE90444CDE902440194DF
:103F5000C4F20200016841F2000541F01001016065
:103F60000168C4F2020501F0100101910199019468
:103F70000168002241F0040101600168042701F09A
:103F80000401019101990194016841F0200101604F
:103F9000016801F02001019101990194016841F04B
:103FA00080010160016801F0800101910199019493
:103FB000016841F001010160016801F00101019116
:103FC00001990194016841F040010160016801F02C
:103FD0004001019101990194016841F002010160E1
:103FE000016801F00201019101990194016841F019
:103FF000080101600068042100F0080001900198A8
:104000002846FDF7F9F905F5806630464FF4804102
:104010000022FDF7F1F905F500694846022100226A
:10402000FDF7EAF9A5F5006840464FF480510022FB
:10403000FDF7E2F9029702AF4FF0010B284639462F
:10404000CDE903B40594FDF707F9182002904FF469
:10405000441A28463946CDE903A4FDF7FDF84FF48C
:104060008150CDE9020A304639460494FDF7F4F850
:1040700048F20400CDE9020AA5F5805039460494BF
:10408000FDF7EAF84FF48040CDE9020B304639469F
:10409000CDE90444FDF7E0F80220CDE9020B4846E3
:1040A0003946CDE90444FDF7D7F84FF43070CDE937
:1040B000020AA5F5806039460494FDF7CDF84FF467
:1040C0008050CDE9020B40463946CDE90444FDF766
:1040D000C3F84FF44060CDE9020A484639460494DB
:1040E000FDF7BAF8082005210022FDF749FA08205B
:1040F000FDF734FA092005210022FDF741FA0920D5
:10410000FDF72CFA0A2005210022FDF739FA0A20D2
:10411000FDF724FA172005210022FDF731FA1720B8
:10412000FDF71CFA282005210022FDF729FA282096
:10413000FDF714FA07B0BDE8F08F000080B588B035
:1041400042F2106044F200420021C2F20000C4F2C8
:104150000102532340F2E73C0791CDE90511CDE977
:104160000311CDE90111C0E90023C0E9021C01617E
:104170008161FEF7B5FB002818BFFCF717FE42F27D
:104180001060C2F20000FFF701F9002818BFFCF729
:104190000DFE602001900020CDE90200059042F262
:1041A0001060C2F2000001A90022FEF7E3FF002820
:1041B00018BFFCF7FBFD42F21060C2F20000FEF7F0
:1041C0004BFF08B080BD0000B0B58CB003AC2046FA
:1041D0002421FCF766F942F2C85000210025C2F202
:1041E0000000C4F20101C0E900150321CDE9031567
:1041F00001214FF6FF72CDE90515CDE909152146DC
:10420000CDE90055C0E90252C0E904558561CDE908
:1042100007550B95FEF71EFD002818BFFCF7C6FDDD
:1042200042F2C850C2F200006946CDE90055FEF7DF
:10423000F9FA002818BFFCF7B9FD0CB0B0BD0000BA
:10424000B0B58CB003AC20462421FCF72AF942F229
:1042500058600025C2F200004FF08041C0E900150F
:104260000321CDE9031501214FF0FF32CDE90515FA
:10427000CDE909152146CDE90055C0E90252056195
:104280008561CDE907550B95FEF7E4FC002818BFC2
:10429000FCF78CFD42F25860C2F200006946CDE99D
:1042A0000055FEF7BFFA002818BFFCF77FFD0CB0E1
:1042B000B0BD000010B58EB042F2A06040F20042E6
:1042C0000021C2F20000C4F20002532340F2E7349E
:1042D0000D91CDE90B11CDE90911CDE90711CDE91A
:1042E0000511CDE90311CDE90111C0E90023C0E9B1
:1042F000021401618161FEF7F3FA002818BFFCF790
:1043000055FD4FF480500A9042F2A060C2F20000C6
:104310000AA9FEF7CFFB002818BFFCF747FD42F2C1
:10432000A060C2F20000FFF731F8002818BFFCF7C8
:104330003DFD42F2A0600024C2F2000008A9CDE9D0
:104340000844FEF76FFA002818BFFCF72FFD602025
:10435000CDE9010442F2A060C2F2000001A90022EE
:1043600003940594FEF706FF002818BFFCF71EFD16
:1043700042F2A060C2F2000001A90422FEF7FAFE98
:10438000002818BFFCF712FD42F2A060C2F2000044
:1043900001A90822FEF7EEFE002818BFFCF706FD73
:1043A00042F2A060C2F2000001A90C22FEF7E2FE78
:1043B000002818BFFCF7FAFC42F2A060C2F200002D
:1043C000FEF74AFE0EB010BD10B58EB042F2E860A6
:1043D00040F600020021C2F20000C4F200025323A2
:1043E00040F2E7340D91CDE90B11CDE90911CDE98A
:1043F0000711CDE90511CDE90311CDE90111C0E99E
:104400000023C0E9021401618161FEF769FA002806
:1044100018BFFCF7CBFC4FF480500A9042F2E860E2
:10442000C2F200000AA9FEF745FB002818BFFCF7FE
:10443000BDFC42F2E860C2F20000FEF7A7FF0028D0
:1044400018BFFCF7B3FC42F2E8600024C2F200009F
:1044500008A9CDE90844FEF7E5F9002818BFFCF7E4
:10446000A5FC6020CDE9010442F2E860C2F2000040
:1044700001A9002203940594FEF77CFE002818BFD2
:10448000FCF794FC42F2E860C2F2000001A90422A9
:10449000FEF770FE002818BFFCF788FC42F2E860C7
:1044A000C2F2000001A90822FEF764FE002818BF2E
:1044B000FCF77CFC42F2E860C2F2000001A90C2289
:1044C000FEF758FE002818BFFCF770FC42F2E860C7
:1044D000C2F20000FEF7C0FD0EB010BDB0B58CB04A
:1044E00003AC20462421FBF7DCFF42F2307040F69B
:1044F00000410025C2F20000C4F20001C0E900152D
:1045000001214FF0FF32CDE90315CDE90515CDE9C5
:1045100009152146CDE90055C0E9025205618561C2
:10452000CDE907550B95FEF795FB002818BFFCF762
:104530003DFC42F23070C2F200006946CDE9005500
:10454000FEF770F9002818BFFCF730FC0CB0B0BDC6
:1045500010B582B042F2C07041F20041C2F20000D8
:10456000C4F200010024532240F2E73380E8160031
:104570008021CDE90044C3608161FEF7B1F90028D4
:1045800018BFFCF713FC42F2C070C2F2000069468B
:10459000CDE90044FEF746F9002818BFFCF706FCF9
:1045A00002B010BD80B542F6980044F60041C2F258
:1045B0000000C4F2000100234FF00C0C4FF4E13274
:1045C00080E80E00C0E90333C0E905C3C361FFF70B
:1045D000A9F9002808BF80BDBDE88040FCF7E6BB14
:1045E00080B542F6080041F20001C2F20000C4F2B8
:1045F000010100234FF00C0C4FF4E13280E80E0073
:10460000C0E90333C0E905C3C361FFF78BF9002894
:1046100008BF80BDBDE88040FCF7C8BB80B542F64E
:10462000500044F6000CC2F20000C4F2000C4FF43B
:1046300016524FF4805300214FF00C0EC0E900C217
:10464000C0E90231C0E9041EC0E90611FFF76AF9AA
:10465000002808BF80BDBDE88040FCF7A7BB000074
:1046600080B541F6A85040F20001C2F20000C2F24B
:104670000001002202F074FA002818BFFCF796FB34
:1046800041F6A85040F22001C2F20000C2F200013F
:1046900002F0D4FC002818BFFCF788FB41F6A850B4
:1046A00040F2BC01C2F20000C2F2000102F040F888
:1046B000002818BFFCF77AFB41F6A850C2F20000B0
:1046C00002F0E6FC002808BF80BDBDE88040FCF792
:1046D0006DBB0000FEE7000070B540F2F0060C462E
:1046E000C2F2000630B105463068D830FCF7A0FAB7
:1046F00085ED000A002C08BF70BD306800F584709D
:10470000FCF796FA84ED000A70BD000042F6F8014D
:104710000020C2F2000141F63855086042F6FC0163
:1047200040F2F00742F6101A42F6886B42F60C1877
:1047300042F684699FED83BA9FED83CAC2F20005F9
:10474000C2F20001C2F20007C2F2000AC2F2000B7C
:104750000126C2F20008C2F20009C5E90000C5E95D
:104760000200087035E000BF00F046FB38682430D6
:1047700000F042FBDAF80000DBF800102E72C5E909
:10478000000138684FF4FA71903000F02BFB386864
:104790004FF4FA71B43000F025FB38684FF4FA7129
:1047A000483000F01FFB38684FF4FA716C3000F0AD
:1047B00019FB3868D830FCF731FA386888ED000A00
:1047C00000F58470FCF72AFA022089ED000A03F054
:1047D00029FD386810B3FCF715FE42F6F801C2F265
:1047E000000109680446401AB0F5FA7F16D342F674
:1047F000FC02C2F20002107880F0010111703968E9
:10480000002801F5477002D0FFF7F6FA01E0FFF744
:1048100005FB42F6F800C2F20000046038684FF46D
:104820007A740028A6D0297A00299DD0D830FCF7C8
:10483000FFF93868B0EE408A00F58470FCF7F8F9AB
:1048400095ED000A47F2A87020EE0B0A80EE0C0AE4
:10485000C2F2000095ED011A80ED008A386847F237
:10486000AC7121EE0B1AC2F2000100F5B47081EEBA
:104870000C9A81ED000A00F0B7FB3868B0EE490AE7
:1048800000F5D47000F0B0FB3868D830FCF7C6F9FA
:104890003868B0EE408A00F58470FCF7BFF93868DC
:1048A000B0EE40AA00F5B470B0EE480A00F0C4FAC9
:1048B0003868B0EE409A00F5D470B0EE4A0A00F0C5
:1048C000BBFA3868B5EE409AF1EE10FAB0EE408AC5
:1048D00005DA022100F07CFAB1EE499A02E00121EA
:1048E00000F076FABDEEC90A10EE100A20EAE07177
:1048F0003868B1F57A7FA8BF214600F073FA3868AE
:10490000B5EE408AF1EE10FA00F1240007DA022138
:1049100000F05EFAB1EE480ABDEEC00A04E00121E3
:1049200000F056FABDEEC80A10EE100A20EAE07157
:104930003868B1F57A7F00F12400A8BF214600F065
:1049400051FA17E700007042AF1A513E41F6385253
:10495000C2F20002107351737047000041F63851E3
:10496000C2F20001C873704741F63851C2F200012B
:104970008873704741F63850C2F20000012180EC84
:10498000020A01727047000000281CBF012180F854
:104990002010704770B5002808BF70BDDDE90456CF
:1049A0004AF25C14C0F60004017100210460C0F8F2
:1049B00005104172C0E9033145610683C26101847B
:1049C0001AB110461946FEF713FD35B12846314697
:1049D0000022BDE87040FCF70FBD70BD002808BF85
:1049E000704770B51D46049C4AF25C1301710021AA
:1049F000C0F60003C0F805104172416101834FF415
:104A000080710360C0E90354C26101841AB3104687
:104A100029461646FEF7ECFC30462146FEF7E8FC38
:104A20003068C16A45B1082D04D0042D14BF40225E
:104A3000382202E03C2200E034220021815044B1BF
:104A4000082C04D0042C14BF4022382202E03C225F
:104A500000E034228150BDE870407047002848D003
:104A600003214171C16900220029C0F8062008BF56
:104A7000704710B590F82120012A0AD10968CA6A46
:104A8000C36813B3082B1BD0042B14BF4023382357
:104A90001CE0426932B1018B044610460022FCF74B
:104AA000ABFC2046C269C168106808291BD00429E4
:104AB00008D000294FF0000114BF0164416316E0E3
:104AC0003C2303E00021816311E03423CA500069D4
:104AD00008280BD0042804D0002814BF0A644A63B5
:104AE00005E08A6303E00021C16300E0CA63BDE81A
:104AF00010407047002814BFC088002000B27047E3
:104B0000002814BF4079002070470000002818BF1B
:104B100041717047002808BF704710B5D0F81CE0FD
:104B2000BEF1000F57D0B1F57A7FA8BF4FF47A716C
:104B300090F8202021EAE173038182B3DEF800C0FF
:104B40009AB2DCF82C1044F6D3544A43C1F2620402
:104B5000A2FB04240279A409C3804AB941F2A852F5
:104B6000C2F20002146041F29452C2F200021160DB
:104B700090F82110012923D1417903294AD0022933
:104B800038D0012975D1C168002900F0B680082904
:104B900000F09980042914BF40213821AEE090F83C
:104BA0002110C368DEF8004000220129C28015D11F
:104BB000E3B3082B28D0042B14BF4023382336E05E
:104BC000C068082878D0042871D0002814BFCCF819
:104BD0004040CCF83440BDE8104070470020082B1E
:104BE0003ED0042B12D0002B14BF20646063BDE8BC
:104BF00010407047C168002947D0082943D00429D4
:104C000014BF4021382141E03C2310E0A063BDE8FF
:104C100010407047DCF82C20C168002957D00829C3
:104C20004FD0042914BF4021382151E034234FF0E4
:104C3000000C44F803C00169DEF80000082913D015
:104C4000042908D000294FF0000114BF016441631A
:104C5000BDE81040704700218163BDE810407047F7
:104C6000E063BDE810407047C0F83CC0BDE81040AC
:104C70007047C16800294CD0082926D0042914BFE8
:104C80004021382146E03C2100E0342100224CF84C
:104C90000120006908280FD0042808D0002814BF7C
:104CA000CCF84040CCF83440BDE810407047CCF818
:104CB0003840BDE810407047CCF83C40BDE810409B
:104CC00070473C2104E03C2118E03C2122E03421E3
:104CD0004CF801200069082835D0042808D00028A5
:104CE00014BFCCF84020CCF83420BDE81040704709
:104CF000CCF83820BDE81040704734214CF8014012
:104D0000006908280CD10020CCF83C00BDE8104018
:104D10007047342100224CF801200069082812D085
:104D200004280AD000284FF0000014BFCCF840003F
:104D3000CCF83400BDE8104070470020CCF83800B3
:104D4000BDE810407047CCF83C20BDE810407047EB
:104D5000E8B3C2690021002A4172C0F8051008BFFB
:104D6000704790F82110C368D2F800C0012907D11C
:104D7000B3B1082B0FD0042B14BF4023382310E00D
:104D8000082B1ED0042B08D0002B14BF0CF14000C0
:104D90000CF1340019E03C2303E00CF1380014E07E
:104DA000342300214CF803100169106808290BD046
:104DB000042904D0002914BF4030343005E03830D5
:104DC00003E00CF13C0000E03C3000210160704742
:104DD00030B10268002A08BF7047526802B110471C
:104DE0007047000030B10268002A08BF704712689F
:104DF00002B110477047000030B10168002908BFB8
:104E00007047896801B1084770470000002808BF53
:104E100070470021017041600172C0E903114FF435
:104E20008071018370470000FEE7000042F2E40059
:104E3000C2F20000FCF73ABD10B52DED028B9FEDDC
:104E40004C1A002800F08E80044690F83C0001289F
:104E500040F08880B0EE408A03F0F4F9A16B9FED3A
:104E6000451A411A00EE101AB8EE400A80EE010A07
:104E70009FED412AB5EE400AF1EE10FAC8BFB0EE40
:104E8000402A94ED031A94ED075A31EE480A94ED46
:104E90000C4A20EE026A94ED003A36EE055AB4EE62
:104EA000445A20EE033AF1EE10FA84ED048A84EDC0
:104EB000050A84ED075A02DD84ED074A08E094ED07
:104EC0000D4AB4EE445AF1EE10FAB8BF84ED074A29
:104ED00094ED064A94ED075A30EE444A84EE024AB5
:104EE00094ED012A94ED026A22EE052A33EE022A9D
:104EF000B5EE401AF1EE10FA26EE045A32EE052A0B
:104F000084ED084A84ED092A12D0B5EE402AF1EE6C
:104F100010FA02DD9FED191A06E0B5EE402AF1EE17
:104F200010FA05DA9FED161A32EE011A84ED091A0D
:104F300094ED092A94ED0A1AB4EE412AF1EE10FA22
:104F400002DD84ED091A08E094ED0B1AB4EE412A53
:104F5000F1EE10FAB8BF84ED091A94ED091A84ED48
:104F6000060AA063B0EE410ABDEC028B10BD00BF83
:104F70000000000000007A446F12833A00004843AA
:104F8000000048C3002808BF704710B50022002168
:104F9000C4F27A42C0E90311C0E90511C0E9071162
:104FA000C0E909120021CCF27A410022002300F16D
:104FB0002C0C80EC030AC4F2FA32CCF2FA338CE8FF
:104FC0000E00044603F03EF9A063012084F83C0083
:104FD000BDE810407047000000281CBFC0ED0A0A61
:104FE00080ED0B0A70470000002818BF80ED030A0F
:104FF00070470000000000000000000000000000FA
:10500000EFF30980BFF36F8F154B1A681EF0100F76
:1050100008BF20ED108A20E9F04F10602DE909004B
:105020004FF0500080F31188BFF34F8FBFF36F8FA5
:1050300004F0DEF84FF0000080F31188BDE80900AD
:1050400019680868B0E8F04F1EF0100F08BFB0EC08
:10505000108A80F30988BFF36F8F704700BF00BFCD
:105060000C2A002000281CBF012101747047000099
:10507000002808BF7047017040F2011141810021F2
:1050800042600381C160017470470000B8B14FF005
:105090000002A9B103689BB1026982B1C2689A5C3F
:1050A0000A70D0E9031C43680131B1FBF3F202FB43
:1050B0001311ACF10102C0E9031201207047002274
:1050C00010467047002814BF006900207047000098
:1050D000844600284FF0000018BF002900D1704717
:1050E000002A08BF7047B0B5002000BFBCF1000F18
:1050F00020D0DCF800E0BEF1000F18D0DCF8103052
:10510000ABB1DCF80C301EF803300B54DCE9033E85
:10511000DCF804400133B3FBF4F5013005FB143334
:10512000AEF101058242CCE90335DFD11046BDE87E
:10513000B04070470020BDE8B0407047002818BF5D
:10514000002900D17047002A1EBF002380E80E000E
:10515000C0E903337047000000280FBF0120006939
:10516000B0FA80F040097047844600284FF00000F4
:1051700018BF002900D17047002A08BF704710B53A
:10518000002000BFBCF1000F25D0DCF80030FBB1DF
:10519000DCF804E0DCF81040744519D211F800E0A6
:1051A000DCF80840013003F804E0DCE901E3824266
:1051B00003F10103B3FBFEF404FB1E33DCF81040E3
:1051C000CCF8083004F10103CCF81030DAD11046E5
:1051D000BDE8104070470020BDE810407047000057
:1051E00000281EBF0021C0E90211016170470000C4
:1051F000074B19680868B0E8F04F80F30988BFF3DF
:105200006F8F4FF0000080F31188704700BF00BF20
:105210000C2A0020002808BF704770B584B00446EF
:10522000FCF7F0F8217E0546012926D1E069281A0D
:105230000A2822D340F60040C4F202004021FCF7C5
:10524000D5F8B0FA80F194F820204E09B24212D17C
:10525000617B10B171B1072001E059B906208DF8CA
:10526000040000212068039101A900220023029577
:1052700004F068F966730020207694F8380001285D
:1052800029D1E06B281A0A2825D340F60040C4F241
:1052900002008021FCF7AAF8B0FA80F194F84020CF
:1052A0004E09B24214D194F82D1010B171B10920F9
:1052B00001E059B908208DF804000021206803910D
:1052C00001A900220023029504F03CF984F82D6026
:1052D000002084F8380004B0BDE87040704700003A
:1052E00000284FF0000318BF002901D1184670476D
:1052F00080B54FF47A735A4344F6D353C1F2620334
:10530000A2FB032300689A0904F0C4FA0138B0FA3A
:1053100080F04309BDE880401846704741F6485088
:10532000C2F2000070470000B0B540F60040C4F281
:1053300002004021FCF75AF8B0FA80F041F64855D7
:105340004409C2F2000501202876FCF75BF8E86109
:1053500085F82040B0BD0000B0B540F60040C4F272
:1053600002008021FCF742F8B0FA80F041F648557F
:105370004409C2F20005012085F83800FCF742F824
:10538000E86385F84040B0BDF0B585B000200490DA
:1053900040F60040C4F202004FF40071FCF726F81A
:1053A00004460138B0FA80F04509FCF72BF842F6C4
:1053B000E406C2F20006B17CA9421AD04FF47A7119
:1053C000B26800FB01F7B81A02218DF80410410001
:1053D00041F64850C2F200000297012C08BF01318B
:1053E0000068039101A904AA002304F0B5F9B7608D
:1053F000B574049850B14EF60450CEF200004FF050
:1054000080510160BFF34F8FBFF36F8F05B0F0BDC8
:10541000F0B585B0002004900020C4F20200042101
:10542000FBF7E4FF04460138B0FA80F04509FBF7CA
:10543000E9FF42F6E406C2F20006F17CA9421AD066
:105440004FF47A71F26800FB01F7B81A03218DF866
:105450000410410041F64850C2F200000297012CAE
:1054600008BF01310068039101A904AA002304F0D8
:1054700073F9F760F574049850B14EF60450CEF20B
:1054800000004FF080510160BFF34F8FBFF36F8F6B
:1054900005B0F0BD2DE9F04184B041F200404FF07D
:1054A0000008C4F202004FF48051CDF80C80FBF7E5
:1054B0009DFF04460138B0FA80F04509FBF7A2FFD2
:1054C00042F6E406C2F20006317CA94219D04FF43C
:1054D0007A71326800FB01F7B81A410041F6485072
:1054E000C2F200008DF800800197012C08BF013145
:1054F00000680291694603AA002304F02DF9376081
:105500003574039850B14EF60450CEF200004FF0BF
:1055100080510160BFF34F8FBFF36F8F04B0BDE8C0
:10552000F0810000F0B585B00020049041F2000049
:10553000C4F202000821FBF759FF04460138B0FA13
:1055400080F04509FBF75EFF42F6E406C2F2000672
:10555000717CA9421AD04FF47A71726800FB01F78E
:10556000B81A01218DF80410410041F64850C2F2EA
:1055700000000297012C08BF01310068039101A9C6
:1055800004AA002304F0E8F877607574049850B119
:105590004EF60450CEF200004FF080510160BFF390
:1055A0004F8FBFF36F8F05B0F0BD000010B584B012
:1055B000002003900020C4F202004FF40041FBF7EA
:1055C00015FF0138B0FA80F0440904208DF800007E
:1055D000FBF718FF019041F64850C2F20000006846
:1055E000694603AA0023029404F0B6F8039850B168
:1055F0004EF60450CEF200004FF080510160BFF330
:105600004F8FBFF36F8F04B010BD000010B584B092
:105610000020039041F20000C4F202001021FBF7C9
:10562000E5FE0138B0FA80F0440905208DF800004D
:10563000FBF7E8FE019041F64850C2F20000006816
:10564000694603AA0023029404F086F8039850B137
:105650004EF60450CEF200004FF080510160BFF3CF
:105660004F8FBFF36F8F04B010BD0000002808BF3C
:105670007047B0B5044614200C210022002503F029
:10568000B1FEC4E900054FF4807042F6E401A08148
:10569000A0852046C2F20001A560C4E9045500F8C7
:1056A000405FC1E90055C1E902550D61042125762D
:1056B000E56184F82050C4E90955C4E90C5584F823
:1056C0003850E563A4F84450013900F8065FFBD177
:1056D000002084F85E00BDE8B040704700281CBF81
:1056E000012180F85E10704784B0FFF717FE044672
:1056F00042F600100026C2F20000066042F60410D6
:1057000041F2985541F29C5841F2A05B41F2A457F6
:10571000C2F2000042F6081AC2F20005C2F2000806
:10572000C2F2000BC2F200070670C2F2000A204665
:105730002E70C8F800608BF800603E608AF8006048
:10574000FFF7CCFF40F2F009C2F2000906E000F5D5
:105750004A70FEF763FB0A2002F064FDD9F80000EE
:1057600058B39AF80000012827D1FBF74BFE42F608
:105770000011C2F200010968401A48F21F51C5F237
:10578000EB11A0FB010142F60410C2F20000027806
:105790008809B0EB420F08D2D9F80010C00701F514
:1057A0004A7008D1FEF73AFB07E0D9F800008AF802
:1057B000006000F54A70FEF71FFB2046FFF72AFD48
:1057C000FBF720FE297801292DD1D8F80010411AC5
:1057D000B1F5967F27D9D9F8001019B38046FBF7A9
:1057E00011FE42F60011C2F20001086042F60410F8
:1057F000C2F2000001210170D9F800008AF80010FF
:1058000000F54A70FEF70AFB404641F2985541F216
:10581000A45741F29C58C2F20005C2F20007C2F23E
:10582000000800262E709BF8001001291ED139684F
:10583000401AB0F5967F19D9D9F80000A0B1FBF74E
:10584000E1FD42F60011C2F20001086042F60410C8
:10585000C2F2000001210170D9F800008AF800109E
:1058600000F54A70FEF7DAFA8BF80060204601A9CD
:105870000A22FFF735FD00283FF46DAFD9F800008C
:1058800000283FF468AF9DF8041009293FF663AF84
:10589000DFE801F0060606062E371919222200BF9E
:1058A000FBF7B0FD42F60011C2F20001086042F6BB
:1058B0000410C2F2000002210170D9F80000012199
:1058C0008AF8001043E7FBF79DFD9DF804100729B7
:1058D00056D0062909D03EE7FBF794FD9DF8041049
:1058E000092917D008297FF436AFD9F800002EE730
:1058F00003994A1E18BF0122012980F8F222CFD055
:1059000029E703994A1E18BF0122012980F80623BE
:10591000C6D020E79BF80010012966D1D9F8001005
:1059200059B339684FF00108401AB0F5967F38BF77
:105930004FF00208FBF766FD42F60011C2F20001CB
:10594000086042F60410C2F2000080F80080D9F826
:10595000000041F2985541F2A45741F29C580121B0
:1059600000F54A70C2F20005C2F20007C2F2000858
:1059700000268AF80010FEF751FA8BF80060EAE67C
:105980002978012936D1D9F8001061B3D8F8001070
:105990004FF00108401AB0F5967F38BF4FF002086B
:1059A000FBF730FD42F60011C2F20001086042F63A
:1059B0000410C2F2000080F80080D9F8000041F223
:1059C000985541F2A45741F29C58012100F54A70C4
:1059D000C2F20005C2F20007C2F2000800268AF8EF
:1059E0000010FEF71BFA2E70B5E6386001208BF828
:1059F0000000B0E6C8F8000001202870ABE6000007
:105A0000FEF72EFE4FF47A7002F00CFCFAE700006D
:105A100080B54EF21000CEF20000006804F038F9B4
:105A2000012808BF80BDBDE8804003F0C3BC000072
:105A300070B592B006AC20463021FAF732FD002551
:105A400043F640000595CDE90355CDE90155009594
:105A5000C4F202000168022641F080510160006832
:105A600000F080500090009847F200000095C4F2CA
:105A70000000016841F480410160006800F480404A
:105A800000900098012006904FF4803007904FF46A
:105A900080000D900D200E90A820CDE90F06072064
:105AA000119020460C96FCF70BFD10B172B600BFAA
:105AB000FEE70F20CDE901064FF4A050CDE9040028
:105AC00001A805210395FCF7C7FB10B172B600BF12
:105AD000FEE712B070BD00004EF68850CEF2000016
