:020000040800F2
:10000000D080002029030008D1570008F3410008E0
:10001000394B00085F070008BD9E00080000000083
:10002000000000000000000000000000690200085D
:10003000730E000800000000C502000815660008E5
:100040004303000843030008430300084303000878
:100050004303000843030008430300084303000868
:10006000990E0008A30E0008AD0E00084303000817
:10007000590D000843030008430300084303000828
:100080004303000843030008430300084303000838
:10009000430300084303000843030008B70E0008A9
:1000A0004303000843030008430300084303000818
:1000B0004303000843030008430300084303000808
:1000C00043030008430300084303000843030008F8
:1000D000430300084303000843030008917000082D
:1000E000750E00084303000843030008430300089B
:1000F00043030008430300084303000843030008C8
:1001000043030008430300084303000843030008B7
:100110004303000843030008F16600080167000874
:100120004303000843030008430300084303000897
:100130004303000843030008430300084303000887
:10014000430300084303000843030008D557000891
:100150004303000843030008430300084303000867
:100160004303000843030008430300084303000857
:100170004303000843030008430300080000000095
:10018000430300084303000800F002F800F05CF8A5
:100190000AA090E8000C82448344AAF10107DA45E2
:1001A00001D100F051F8AFF2090EBAE80F0013F0D8
:1001B000010F18BFFB1A43F00103184724C20000C7
:1001C00044C200000A444FF0000C10F8013B13F049
:1001D000070408BF10F8014B1D1108BF10F8015BA0
:1001E000641E05D010F8016B641E01F8016BF9D193
:1001F00013F0080F1EBF10F8014BAD1C0C1B09D1EA
:100200006D1E58BF01F801CBFAD505E014F8016B5B
:1002100001F8016B6D1EF9D59142D6D370470000ED
:100220000023002400250026103A28BF78C1FBD8FF
:10023000520728BF30C148BF0B6070471FB50CF094
:1002400035F81FBD10B510BD00F04FFA1146FFF78D
:10025000F5FF09F061FE00F06DFA03B4FFF7F2FF5D
:1002600003BC00F075FA00002C4B19680868B0E870
:10027000F04F80F30988BFF36F8F4FF0000080F3D9
:10028000118870470000000008480068006880F38B
:1002900008884FF0000080F3148862B661B6BFF39F
:1002A0004F8FBFF36F8F00DF00BF00BF08ED00E08E
:1002B000DFF80C00016841F470010160704700BF75
:1002C00088ED00E0EFF30980BFF36F8F134B1A68DE
:1002D0001EF0100F08BF20ED108A20E9F04F1060CB
:1002E00009B44FF0500080F31188BFF34F8FBFF374
:1002F0006F8F0AF0B3FF4FF0000080F3118809BC44
:1003000019680868B0E8F04F1EF0100F08BFB0EC95
:10031000108A80F30988BFF36F8F7047180100209F
:10032000EFF30580704700000948804709480047FF
:10033000FEE7FEE7FEE7FEE7FEE7FEE7FEE7FEE795
:10034000FEE7FEE704480549054A064B70470000F2
:10035000DD66000889010008D0780020D0800020E8
:10036000D07C0020D07C002053EA020C00F0698091
:100370002DE9F04B4FF00006002B1FBFB3FA83F5B9
:1003800003FA05F424FA05F65E4012BF1643B2FAEA
:1003900082F502FA05F4C5F120051EBF22FA05FC1C
:1003A00044EA0C04203556EA044C4FEA144418BFC2
:1003B000641C4FF000084FF00009904271EB030CF1
:1003C00039D3002919BFB1FA81F701FA07F6B0FA5B
:1003D00080F700FA07F6C7F120071EBF20FA07FCD6
:1003E00046EA0C062037B6FBF4FCA7EB0507103FE6
:1003F00007F01F0BCBF120060CFA0BFB2CFA06F6CC
:1004000044BFB3460026202FA4BF5E464FF0000B2A
:100410005BEA060C08BF4FF0010B19EB0B09ABFBB5
:10042000027C48EB0608C01B06FB02CC0BFB03CC8E
:1004300071EB0C01C1E70B46024641464846BDE858
:10044000F08B13B54FF000004FF00001AFF30080C8
:10045000BDE81C407047032A40F2308010F0030CC6
:1004600000F0158011F8013BBCF1020F624498BF07
:1004700011F801CB00F8013B38BF11F8013BA2F1A4
:10048000040298BF00F801CB38BF00F8013B11F01F
:10049000030300F06780083AC0F0088051F8043B7D
:1004A000083A51F804CBA0E80810F5E7121D5CBF2C
:1004B00051F8043B40F8043BAFF30080D20724BF5F
:1004C00011F8013B11F801CB48BF11F8012B24BFF3
:1004D00000F8013B00F801CB48BF00F8012B704742
:1004E000431A28BF9A427FF6B6AF032A104411443C
:1004F00040F2268010F0030F1EBF11F8013D521E7E
:1005000000F8013D10F0030F7FF4F6AF11F0030384
:1005100000F0C180083AC0F00B8051F8043D083A61
:1005200051F804CD40F8043D40F804CDFFF7F3BF87
:10053000121D5CBF51F8043D40F8043DAFF300804C
:10054000D20724BF11F8013D11F801CD48BF11F8C1
:10055000012C24BF00F8013D00F801CD48BF00F890
:10056000012C704710B5203AC0F00B80B1E818504C
:10057000203AA0E81850B1E81850A0E81850BFF48D
:10058000F5AF5FEA027C24BFB1E81850A0E818502C
:1005900044BF18C918C0BDE810405FEA827C24BF80
:1005A00051F8043B40F8043B08BF7047D20728BF0E
:1005B00031F8023B48BF11F8012B28BF20F8023B5D
:1005C00048BF00F8012B704702F0FF0343EA032203
:1005D00042EA024200F002B84FF000020429C0F0E3
:1005E000128010F0030C00F01B80CCF1040CBCF165
:1005F000020F18BF00F8012BA8BF20F8022BA1EBB7
:100600000C0100F00DB85FEAC17C24BF00F8012B9B
:1006100000F8012B48BF00F8012B70474FF0000293
:1006200000B5134694469646203922BFA0E80C50E8
:10063000A0E80C50B1F12001BFF4F7AF090728BFC3
:10064000A0E80C5048BF0CC05DF804EB890028BF3F
:1006500040F8042B08BF704748BF20F8022B11F068
:10066000804F18BF00F8012B7047704770477047E4
:10067000431A28BF9A427FF675AF104410F0030F5B
:1006800011441EBF11F8013D521E00F8013D10F04B
:10069000030F7FF4F6AF103AC0F00A8010B531E9CD
:1006A0001850103A20E91850BFF4F9AFBDE81040D7
:1006B000530724BF31E9081020E9081044BF51F85E
:1006C000043D40F8043D12F0030F08BF7047D20705
:1006D00028BF31F8023D48BF11F8012C28BF20F88F
:1006E000023D48BF00F8012C7047754600F02CF819
:1006F000AE4605006946534620F00700854618B00F
:1007000020B5FFF71FFEBDE820404FF000064FF078
:1007100000074FF000084FF0000B21F00701AC4636
:10072000ACE8C009ACE8C009ACE8C009ACE8C00955
:100730008D46704710B50446AFF300802046BDE8F3
:100740001040FFF78ABD0000004870477078002015
:1007500001491820ABBEFEE726000200704700BF2B
:10076000FEE700002DE9F04104460E4617460CB1A5
:10077000207C08B9BDE8F081A068002852D0002E86
:1007800050DDDFF8B880B8FBF6F00121C1EB500571
:10079000002D46D0B5F5803F43D200BFA068006869
:1007A000C562A068C56000BFE06820B96808A1689C
:1007B0000968486313E0E068042804D16808A16868
:1007C000096888630BE0E068082804D16808A1681C
:1007D0000968C86303E06808A16809680864012023
:1007E0006074384609F0C2FBE06820B90020A168B7
:1007F0000968486313E0E068042804D10020A16878
:10080000096888630BE0E068082804D10020A1682B
:100810000968C86303E00020A16809680864002033
:10082000607408E0204600F075F8384609F09EFB39
:10083000204600F043F800BF9CE7000000BD010522
:100840002DE9F04104460D4616461F46DDF8188096
:100850000CB9BDE8F0812560A680A760C4F80C80C3
:100860000120207400206074206820B1A18800223B
:10087000206800F0E5FFA068F0B1D4E9020103F0C0
:1008800009F9E06820B90020A1680968486313E00D
:10089000E068042804D10020A168096888630BE09F
:1008A000E068082804D10020A1680968C86303E053
:1008B0000020A1680968086400BFCAE710B50446B3
:1008C00004B910BD206820B1A1880022206800F082
:1008D000B7FFA068D0B1E06820B90020A16809681E
:1008E000486313E0E068042804D10020A168096887
:1008F00088630BE0E068082804D10020A16809683B
:10090000C86303E00020A1680968086400206074DF
:1009100000BFD6E710B504460CB1207C00B910BD6D
:10092000206820B1A1880122206800F089FF012001
:10093000607400BFF3E70346042B15D007DC7BB1DE
:10094000012B0ED0022B0DD0032B12D10BE0202B4C
:100950000BD0212B0AD0222B09D0232B09D107E061
:1009600008E007E006E005E004E003E002E001E063
:1009700000E000BF00BF00207047000010B506482F
:10098000006830B100210448006800F5557008F097
:100990002AFB002010BD00009801002010B50022A5
:1009A00009490A4807F003F80949084806F0F0FF2A
:1009B0000848006830B101210648006800F555700C
:1009C00008F011FB002010BD5C1200208005002003
:1009D0005C0A00209801002070B505460C460C48C2
:1009E000006858B155B14CB1206838B12946084863
:1009F0002268006800F5557008F0B1FA29460548EC
:100A000006F0C6FF034806F08FFF002070BD00000F
:100A100098010020800500202DE9F04105460E4692
:100A2000174600240548006828B10448006800F50E
:100A3000557008F0DEFA60B2BDE8F0819801002040
:100A40002DE9F04104460D4600260A48D0F8BC7254
:100A5000D7F8140210B10120BDE8F0812A462146E2
:100A6000044806F0A4FF034807F054F80646304651
:100A7000F2E700008005002000487047346A00203B
:100A80001CB5044604B91CBD0C2008238C4A002167
:100A90000090204604F03EFA04200023884A1946BC
:100AA000009004F1240004F035FA0020009008239F
:100AB000844A0121019004F1480004F0FFF900206C
:100AC00000900C237F4A0121019004F16C0004F096
:100AD000F5F90020009004237A4A0221019004F1E4
:100AE000900004F0EBF9002000900346754A0321C2
:100AF000019004F1B40004F0E1F91E200D23724AC4
:100B00000021009004F1D80000F024FA002104F143
:100B1000D80000F0BFFA1E200D236C4A012100907E
:100B200004F5847000F016FA002104F5847000F0DA
:100B3000B1FA01200723664A0221009004F59C7057
:100B400000F008FA04F1D80000F0A9FA04F5847066
:100B500000F0A5FA04F59C7000F0A1FA9FED5D1A73
:100B6000DFED5D0AB7EE000A04F5B47005F006F893
:100B7000DFED5A0A9FED5A0A04F5B47005F04CF8FF
:100B80009FED541ADFED540AB7EE000A04F5D47055
:100B900004F0F4FFDFED510A9FED510A04F5D47023
:100BA00005F03AF89FED4B1ADFED4B0AB7EE000A5D
:100BB00004F5F47004F0E2FFDFED480A9FED490A06
:100BC00004F5F47005F028F84FF48053464A0021EC
:100BD00004F50A7003F03DFB0823444A012104F5A3
:100BE000167003F036FB4FF40073414A022104F5FE
:100BF000227003F02EFB04233E4A032104F52E70DD
:100C000003F027FB04F50A7003F016FB04F51670D9
:100C100003F012FB04F5227003F00EFB04F52E70B6
:100C200003F00AFB4FF40043324A002104F53A7006
:100C300005F006F810232D4A012104F53F7004F059
:100C4000FFFF04F53A7004F0F5FF04F53F7004F07F
:100C5000F1FF4FF48053284A002104F5447003F05B
:100C60002FFB0223254A012104F5477003F028FBDE
:100C700004231E4A022104F54A7003F021FB4FF4BD
:100C80008043194A032104F54D7003F019FB00203D
:100C90001B4B40221449009004F55070FFF7D0FD23
:100CA00004F5557008F027F904F5557008F01CF9A3
:100CB000002084F8800784F8810700BFE3E6000085
:100CC000E0020020980200205002002008020020CC
:100CD00028030020CDCC4C3DCDCCCC3D00007A4447
:100CE00000007AC40000000000140240001002401E
:100CF000000C0240000002400008024000180240C0
:100D0000B803002010B5044604B910BD012084F8D2
:100D1000810784F88007204604F0C8F804F1240015
:100D200004F0C4F804F1480004F0C0F804F16C00C9
:100D300004F0BCF804F1900004F0B8F804F1B40039
:100D400004F0B4F864224FF4FA6104F55070FFF730
:100D500009FD00BFD9E7000010B5024800F038FADD
:100D600010BD0000D8040020014608781038182370
:100D7000B0FBF3F20848805CC865032A05D908680F
:100D80006FF30900001D886503E008686FF3090030
:100D90008865886D704700006CC30008014600201C
:100DA0008A6A8B69CBB932B1012A0DD0022A03D0ED
:100DB000032A10D10EE000BFCB6A03F08073B3F1B9
:100DC000807F00D1012007E0CB6AB3F1C07F00D162
:100DD000012001E000E000BF34E08B69B3F5005F63
:100DE0001AD132B1012A07D0022A03D0032A11D125
:100DF0000AE000BF01200EE0CB6A03F08073B3F17C
:100E0000807F00D1012006E0CB6AB3F1C07F00D122
:100E1000012000E000BF15E032B1012A05D0022A0E
:100E200004D0032A0CD103E000BF00BF012008E07A
:100E3000CB6A03F08073B3F1807F00D1012000E022
:100E400000BF00BF704730B50468246824F48024D4
:100E500005682C60046863608468402C04D10468D1
:100E6000A2600468E16003E00468A1600468E260D5
:100E700030BD704710B54FF4806000F0D1FB4FF4E7
:100E8000006000F0CDFB4FF4805000F0C9FB4FF440
:100E9000004000F0C5FB10BD10B5042000F0C0FB01
:100EA00010BD10B5082000F0BBFB10BD10B5102020
:100EB00000F0B6FB10BD10B5202000F0B1FB4020C3
:100EC00000F0AEFB802000F0ABFB4FF4007000F0B0
:100ED000A7FB10BD014609B1486808B9002070475A
:100EE00048680068406A02B20B780F4830F9130076
:100EF000101AB0F5004F03DD4869401E486109E053
:100F0000094830F91300101A10F5004F02DA486949
:100F1000401C4861044820F81320888A02EB0040F6
:100F200088608868DBE70000A001002010B99FED11
:100F3000030A704790ED060AFBE70000000000007E
:100F400010B99FED030A704790ED070AFBE7000018
:100F50000000000030B5039C00B930BD0170426054
:100F600000258560C560056145619FED080A80ED3B
:100F7000060A9FED060A80ED070A05628384C48491
:100F8000856280F82C5000BFE7E7000000000000F9
:100F900070B5044624B194F82C0008B1606800B91B
:100FA00070BD2046FFF796FF05463348056020696F
:100FB0002E1A2561A08C002828DDE08C002825DD74
:100FC000A08CE18C484301EE900AF8EEE11AB0EEF5
:100FD000610A01EE906AF8EEE11A9FED282A61EEAF
:100FE000821A81EE802AF0EE420ADFED251AB0EE79
:100FF000611ADFED231A60EEA11A94ED062ADFEDE7
:10100000212A42EE821AC4ED061A03E09FED1E0A61
:1010100084ED060A207810B12078012822D1A06A38
:1010200000B301EE106AB8EEC11ADFED181A61EED6
:10103000211A94ED0A1AB8EE411A81EE812AB0EE17
:10104000420A9FED131AF0EE410A9FED111A20EEAD
:10105000011AD4ED071A9FED0A2A02EE211A84ED37
:10106000071A06E02078022803D09FED070A84EDD6
:10107000070A00BF94E700009C01002000606A4757
:10108000CDCC4C3FCCCC4C3E0000000000007A445C
:10109000CDCC4C3E00B97047816200BFFBE710B574
:1010A00004460CB1606800B910BD012084F82C0022
:1010B00008F06BFF20623C21606802F079FA00BF03
:1010C000F2E772B600BFFEE770B50A480468001D7B
:1010D0000568001D0668344454B1082206492046BC
:1010E00003F0CFF8042204491031284603F0C9F870
:1010F00070BD0000107AFF1F4A00002070B5044642
:10110000A56D00F0A3FB064694F83500022808D030
:101110008020606500BF002084F8340000BF0120FB
:1011200070BD2068006820F0160021680860206803
:10113000406920F0800021684861206C08B9A06CEB
:1011400028B12068006820F0080021680860206845
:10115000006820F001002168086010E000F076FBD4
:10116000801B05280BD920206065032084F83500FA
:1011700000BF002084F8340000BF0320D0E72068BF
:10118000006800F001000028E8D194F85C103F20CE
:101190008840A860012084F8350000BF002084F852
:1011A000340000BF00BFBBE7014691F835000228BC
:1011B00003D08020486501207047052081F8350064
:1011C0000868006820F001000A6810600020F3E75A
:1011D000F8B50446002000908C4800684FF4165182
:1011E000B0FBF1F7A56D2E6894F85C1008208840DC
:1011F000304098B12068006800F0040070B12068A9
:10120000006820F004002168086094F85C10082051
:101210008840A860606D40F00100606594F85C1043
:1012200001208840304068B12068406900F08000AB
:1012300040B194F85C1001208840A860606D40F0D7
:101240000200606594F85C1004208840304068B16A
:101250002068006800F0020040B194F85C1004209F
:101260008840A860606D40F00400606594F85C10F0
:1012700010208840304078B32068006800F00800F3
:1012800050B394F85C1010208840A8602068006873
:1012900000F4802080B12068006800F4002028B9A4
:1012A000206CC8B12046216C884715E0A06C98B12D
:1012B0002046A16C88470FE02068006800F4807029
:1012C00028B92068006820F0080021680860206CB8
:1012D00010B12046216C884794F85C10202088408B
:1012E0003040002865D02068006800F01000002819
:1012F0005FD094F85C1020208840A86094F83500F6
:10130000052828D12068006820F0160021680860B0
:101310002068406920F0800021684861206C08B98D
:10132000A06C28B12068006820F0080021680860DF
:1013300094F85C103F208840A860012084F83500B4
:1013400000BF002084F8340000BF206D10B120469B
:10135000216D8847F8BD2068006800F4802080B1C6
:101360002068006800F4002028B9606C10B12046A5
:10137000616C88471DE0E06BD8B12046E16B88477F
:1013800017E02068006800F4807068B92068006881
:1013900020F0100021680860012084F8350000BFAB
:1013A000002084F8340000BFE06B10B12046E16BF0
:1013B0008847606D38B3606D00F00100F0B1052022
:1013C00084F835002068006820F00100216808607A
:1013D00000BF0098401C0090B84200D905E020688A
:1013E000006800F001000028F3D100BF012084F85C
:1013F000350000BF002084F8340000BFE06C10B15D
:101400002046E16C884700BFA4E70000840000206C
:101410002DE9F0410446002500F018FA074614B9FA
:101420000120BDE8F081606A00B100BF022084F8AD
:10143000350000BF002084F8340000BF2068006839
:1014400020F00100216808600AE000F0FFF9C01BED
:10145000052805D920206065032084F83500E0E7E1
:101460002068006800F001000028EED120680568BF
:1014700021480540D4E901010843E1680843216996
:10148000084361690843A1690843E1690843216A87
:1014900008430543606A042803D1D4E90B010843DB
:1014A0000543206805602068456925F00705606AE6
:1014B0000543606A04280DD1A06A0543E06A48B17B
:1014C0002046FFF76BFC28B140206065012084F8BE
:1014D0003500A6E7206845612046FFF745FC064633
:1014E00094F85C103F208840B060002060650120C7
:1014F00084F83500002094E73F8010F02DE9F04794
:1015000004460D4616461F464FF00008D4F8589082
:1015100000BF94F83400012802D10220BDE8F08712
:10152000012084F8340000BF94F83500012825D14B
:10153000022084F83500002060653B46324629468B
:101540002046FFF780FC94F85C103F208840C9F8E3
:1015500008002068006840F0160021680860206CD0
:1015600028B12068006840F0080021680860206801
:10157000006840F001002168086006E000BF00201C
:1015800084F8340000BF4FF002084046C6E7000070
:1015900070B5044600F05AF906462546681C10B19D
:1015A00004480078054400BF00F050F9801BA842B1
:1015B000FAD370BD8000002010B50446802C28D0DE
:1015C00008DC042C19D0082C11D0102C1BD0402C76
:1015D00022D11BE0B4F5007F0CD0B4F5805F03D0BE
:1015E000B4F5004F18D10BE004F03CFD15E004F019
:1015F00079FD12E004F0B8FC0FE004F0F5FC0CE01B
:1016000004F0AEFD09E004F0D7FD06E004F078FC3C
:1016100003E004F08FFC00E000BF00BF10BD00003D
:1016200010B5044604480068204020B10248046018
:101630002046FFF7C1FF10BD143C0140F8B502463B
:101640000B460025002400200021D6E0012606FAE2
:1016500001F51E6806EA0504AC4274D11E7906F055
:101660000306012E04D01E7906F00306022E13D1C4
:1016700090684F000326BE40B0434F00DE68BE4076
:1016800030439060506801268E40B0431E79C6F307
:1016900000168E40304350601E7906F00306032E7C
:1016A00009D0D0684F000326BE40B0434F009E686B
:1016B000BE403043D0601E7906F00306022E13D1DF
:1016C000CF0802F1200656F827004E07F70E0F2626
:1016D000BE40B0434F07FF0E1E69BE403043CF08E7
:1016E00002F1200646F8270010684F000326BE408E
:1016F000B0431E7906F003064F00BE403043106031
:101700005E6806F44036002E76D000BF00260096B4
:101710003C4E366846F480463A4F3E603E46366858
:1017200006F48046009600BF00BF374E8F0856F87B
:1017300027008E07370F0F26BE40B043334EB2420C
:1017400002D1002624E057E0314EB24201D10126F9
:101750001EE0304EB24201D1022619E02E4EB242B6
:1017600001D1032614E02D4EB24201D104260FE030
:101770002B4EB24201D105260AE02A4EB24201D1D7
:10178000062605E0284EB24201D1072600E00826D1
:101790008F073F0FBE4030431B4E8F0846F827008F
:1017A000224E3068A0435E6806F4801606B12043DE
:1017B0001E4E3060361D3068A0435E6806F4001689
:1017C00006B12043194E361D3060184E361F306862
:1017D000A0435E6806F4003606B12043134E361F60
:1017E0003060361F3068A0435E6806F4803606B16C
:1017F00020430E4E083E3060491C1029FFF426AFEE
:10180000F8BD0000443802400838014000000240A2
:101810000004024000080240000C02400010024098
:101820000014024000180240001C0240083C014025
:10183000024613690B400BB1012000E00020704705
:101840000AB1816101E00B048361704701480068BF
:1018500070470000780000200348006803490978B9
:10186000084401490860704778000020800000208B
:1018700010B50D48006840F400700B490860084638
:10188000006840F4806008600846006840F480709A
:101890000860032000F0E0F80F2000F007F800F0E7
:1018A0005FF8002010BD0000003C02402DE9F0412F
:1018B00088B004460027B84600BF002001902348A6
:1018C000006840F01000214908600846006800F0F8
:1018D0001000019000BF00BF02A903A801F072F838
:1018E000069F1FB901F096F8054602E001F092F854
:1018F00045001748B5FBF0F0A0F10108154816495E
:10190000086040F2E7311448C160C0F8048000214B
:1019100001618160816101F09FFB064696B90E4826
:1019200001F036FC06466EB9362000F043F8102C64
:1019300007D200222146362000F050F80748046004
:1019400000E00126304608B0BDE8F0814038024092
:1019500040420F0000100040380500207C000020AD
:1019600008B500BF002000901148006840F4804096
:101970000F4908600846006800F48040009000BFEE
:1019800000BF00BF00200090081F006840F080509A
:10199000091F08600846006800F08050009000BFF2
:1019A00000BF00220F21901E00F018F808BD0000B3
:1019B000443802400146084600280DDB00BF00BF46
:1019C00000F01F0301229A4043099B0003F1E0232A
:1019D000C3F8002100BF00BF00BF70472DE9F05FD2
:1019E00080460D461646002708F06AFA0746394633
:1019F0002A46334601F00700C0F1070ABAF1040F86
:101A000002D94FF0040A01E0C0F1070AD14600F103
:101A1000040ABAF1070F02D24FF0000A01E0A0F168
:101A2000030AD4464FF0010A0AFA09FAAAF1010A98
:101A30000AEA020A0AFA0CFA4FF0010B0BFA0CFB45
:101A4000ABF1010B0BEA030B4AEA0B0421464046BB
:101A500008F03EFABDE8F09F00BF00F00702064B19
:101A600019684FF6FF031940044B0B4343EA022168
:101A7000014B196000BF70470CED00E00000FA0553
:101A8000704702461068416200207047F0B5034677
:101A900015461868446A21B944EA05401E68B062D8
:101AA00019E01868806A04EB1044002208E0186806
:101AB00000F5827050F8220004EB1044501CC2B2B2
:101AC000481E9042F3D844EA0547186800F5827032
:101AD0004E1E40F826700020F0BD10B50446D4F824
:101AE000E00406F092FC10BD70B504460D4605EB0F
:101AF000C50304F1140101EB8301CA682946D4F837
:101B0000E00406F075FB70BD70B504460D4605EBAC
:101B1000C50304F5157101EB8301CA682946D4F8A1
:101B2000E00406F0EDFB70BD10B50446D4F8E00407
:101B300006F06EFC10BD2DE9F04104460D4605F09F
:101B40008000802808D105F00F0000EBC00104F1EF
:101B5000140000EB810607E005F00F0000EBC00168
:101B600004F5157000EB81063146206807F068FF28
:101B700007463846BDE8F08170B504460E4606F0CB
:101B8000800080280AD106F00F0000EBC00104F1AC
:101B9000140000EB81050120687009E006F00F00D9
:101BA00000EBC00104F5157000EB810500206870A2
:101BB00006F00F00287000BF94F89404012801D1AA
:101BC000022070BD012084F8940400BF29462068DB
:101BD00007F0C4FA00BF002084F8940400BF00BFDF
:101BE000EFE770B504460E4606F00F0021798842F3
:101BF00001D9012070BD06F0800080280AD106F0CE
:101C00000F0000EBC00104F1140000EB810501207E
:101C1000687009E006F00F0000EBC00104F51570D4
:101C200000EB8105002068700020A87006F00F000E
:101C3000287000BF94F89404012801D10220D9E74C
:101C4000012084F8940400BF2946206807F084FC32
:101C500000BF002084F8940400BF00BFCAE702461A
:101C600001F00F0000EBC00302F5157000EB8300DC
:101C7000406970472DE9F04705460E4690461F46DD
:101C80004FF0000906F0800080280AD106F00F000E
:101C900000EBC00105F1140000EB8104012060702D
:101CA00009E006F00F0000EBC00105F5157000EB30
:101CB00081040020607006F00F002070C8F30A0055
:101CC000A0602771607808B120786083022F01D16D
:101CD0000020607100BF95F89404012802D1022011
:101CE000BDE8F087012085F8940400BF21462868EC
:101CF00007F07EF800BF002085F8940400BF484636
:101D0000EEE72DE9F04105460E461746984606F0E7
:101D10000F0000EBC00105F5157000EB8104E760D2
:101D2000C4F8108000206061607006F00F00207021
:101D3000A879012800D1E761AA792146286807F02F
:101D40009FFC0020BDE8F08170B504460D4605F00B
:101D50000F002179884201D9012070BD05F0800073
:101D600080280AD105F00F0000EBC00104F1140037
:101D700000EB81060120707007E005EBC50104F55A
:101D8000157000EB8106002070700120B07005F026
:101D90000F00307000BF94F89404012801D1022094
:101DA000DBE7012084F8940400BF3146206807F087
:101DB0001AFC05F00F0028B9A17904F29C422068B2
:101DC00007F092FB00BF002084F8940400BF00BF1E
:101DD000C3E72DE9F04105460E461746984606F042
:101DE0000F0000EBC00105F1140000EB8104E76077
:101DF000C4F81080002060610120607006F00F00C0
:101E00002070A879012800D1E761AA7921462868C5
:101E100007F036FC0020BDE8F0812DE9FE4F0446B6
:101E2000D4F800B05E46206807F0ECFE002874D1BC
:101E3000206807F026FF08B9BDE8FE8F40F60800CD
:101E40008059C0F30D20C4F8D404206807F019FFAE
:101E500000F00200022805D12068406900F002006D
:101E600021684861206807F00CFF00F0100010287E
:101E700045D12068806920F0100021688861DBF876
:101E8000209009F00F0000EBC00104F5157000EB85
:101E9000810AC9F3434002281AD147F6F07009EAD3
:101EA000000030B3C9F30A125846DAF80C1007F0F4
:101EB000EDFEC9F30A11DAF80C000844CAF80C0068
:101EC000C9F30A11DAF814000844CAF8140010E043
:101ED000C9F3434006280CD1082204F29C4158461D
:101EE00007F0D4FEC9F30A11DAF814000844CAF85E
:101EF00014002068806940F0100021688861206823
:101F000007F0BFFE00F40020B0F5002F7BD10025C4
:101F1000206807F086FE029072E0E1E2029800F08D
:101F20000100002868D0E9B2206807F09DFE8046D5
:101F300008F0010048B1012106F5306000EB4510C2
:101F400081602946204603F07FFC08F0080008283D
:101F500009D1082106F5306000EB45108160294663
:101F6000204603F03FFC08F01000102805D1102196
:101F700006F5306000EB4510816008F00200022891
:101F800024D1DBF8140000F08000802807D140F64F
:101F90000400805940F4806140F60400815105EB53
:101FA000C50104F5157000EB810A9AF803000128B9
:101FB00006D100208AF80300E9B2204600F09BFA1F
:101FC000022106F5306000EB4510816008F020002A
:101FD000202805D1202106F5306000EB45108160F6
:101FE00008F40050B0F5005F06D14FF4005106F53B
:101FF000306000EB451081606D1C02984008029033
:10200000029800288AD1206807F03BFE00F4802067
:10201000B0F5802F7DD1206807F0F9FD02900025F2
:102020009AE0029800F00100002873D0E9B220681D
:1020300007F001FE804608F00100F0B305F00F0143
:1020400001208840019040F634008159019821EA2E
:10205000000040F634018851012106F5106000EBC4
:1020600045108160A079012824D105EBC50104F158
:10207000140000EB810005EBC502C16804F11400F7
:1020800000EB82008068014405EBC50204F11400F6
:1020900000EB8200C1606DB905EBC50104F11400CD
:1020A00000EB8100006928B904F29C4201212068FC
:1020B00007F01AFAE9B2204600E001E0FFF714FD4C
:1020C00008F00800082805D1082106F5106000EB8B
:1020D0004510816008F01000102805D1102106F588
:1020E000106000EB4510816008F04000402805D1E9
:1020F000402106F5106000EB4510816008F00200F9
:1021000002281DD12946584607F03FFD05EBC501C1
:1021100001E025E01CE004F1140000EB810A9AF8CC
:102120000300012806D100208AF80300E9B2204606
:1021300000F0D8F9022106F5106000EB451081602F
:1021400008F08000802803D12946204603F01EFCB9
:102150006D1C029840080290029800287FF461AF3D
:10216000206807F08EFD00F00040B0F1004F1CD158
:1021700040F60400805920F0010140F6040081512E
:1021800094F8CC04012807D1002084F8CC04002165
:102190002046FFF775FC02E0204600F0DFFA2068D9
:1021A000406900F0004021684861206807F069FD3F
:1021B00000F40060B0F5006F0ED140F608008059C1
:1021C00000F0010010B1204600F020FB20684069BB
:1021D00000F4006021684861206807F052FD00F4B7
:1021E0008050B0F5805F7ED140F60400805920F029
:1021F000010140F6040081511021206807F0C5FC60
:10220000002732E04FF67F3106F5106000EB4710F3
:10221000816006F5106000EB4710006820F40011A3
:1022200006F5106000EB471001604FF67F3106F5B0
:10223000306000EB4710816006F5306000EB47101E
:10224000006820F4001106F5306000EB47100160D3
:1022500006F5306000EB4710006840F0006106F5BD
:10226000306000EB471001607F1C2079B842C9D86C
:1022700040F61C00805940F0011140F61C008151CD
:10228000E07B70B1D6F8840840F00B01C6F88418E2
:1022900040F64400805940F00B0140F64400815163
:1022A0000FE040F61400805942F22B01084340F63B
:1022B00014018851081F805940F00B014FF4016050
:1022C0008151D6F8000820F4FE60C6F80008A17914
:1022D00004F29C42206807F007F92068406900F486
:1022E0008050216800E000E04861206807F0C9FCE8
:1022F00000F40050B0F5005F17D1206806F0E0FD53
:10230000206807F06CFCE07100F07EFB0090E27941
:102310002068009907F03CFD204600F007FA20688D
:10232000406900F4005021684861206807F0A9FC6A
:1023300000F00800082808D1204600F016FA2068AE
:10234000406900F0080021684861206807F099FCA6
:1023500000F08000802818D1DBF8180020F0800001
:10236000CBF8180001250DE005EBC50104F515704B
:1023700000EB8100C078012803D1E9B22046FFF7C5
:10238000DAFB6D1C2079A842EED8206807F079FCB2
:1023900000F48010B0F5801F2DD1012522E006F554
:1023A000106000EB4510D0F8009005EBC50104F17A
:1023B000140000EB81000079012812D109F00040DF
:1023C000B0F1004F0DD1012105EBC50204F114005D
:1023D00000EB8200C170E8B240F080012046FFF7B8
:1023E000AAFB6D1C2079A842D9D82068406900F466
:1023F000801021684861206807F043FC00F4001059
:10240000B0F5001F44D1012538E006F5306000EB3F
:102410004510D0F8009005EBC50104F5157000EBF0
:1024200081000079012828D109F00040B0F1004F67
:1024300023D194F8D40400F00100C9F3004188428C
:102440001BD1012105EBC50204F5157000EB8200DC
:10245000C170DBF8180040F08000CBF81800DBF802
:10246000140000F0800040B940F60400805940F4A8
:10247000007140F60400815103E06D1C2079A842F0
:10248000C3D800BF2068406900F40010216848618B
:10249000206807F0F6FB00F08040B0F1804F08D1D3
:1024A0002046FFF71AFB2068406900F08040216851
:1024B0004861206807F0E5FB00F0040004280FD114
:1024C0002068D0F8049009F00400042802D12046C6
:1024D000FFF72AFB2068406840EA0900216848604D
:1024E00000BFA9E470B504460D462946D4F8E004BF
:1024F00005F0FAFF70BD70B504460D462946D4F8C4
:10250000E00406F015F870BDF8B504460CB90120DA
:10251000F8BD266894F8950428B9002084F894043E
:10252000204600F0A1F8032084F89504B6F1A04FEE
:1025300001D10021A171206806F0CEFF207C8DF82A
:10254000000094E80F0006F091FD20B1022084F80D
:1025500095040120DCE70021206807F0C7FB20B1CB
:10256000022084F895040120D2E7002531E0012102
:1025700005EBC50204F1140000EB8200417005EB8D
:10258000C50104F1140000F8215005EBC50100EB72
:1025900081004583002105EBC50204F1140000EB26
:1025A0008200017105EBC50204F1140000EB82000A
:1025B000816005EBC50204F1140000EB8200C160EC
:1025C00005EBC50204F1140000EB82000161681CF8
:1025D000C5B22079A842CADC00252AE0002105EB1B
:1025E000C50204F5157000EB8200417005EBC501D2
:1025F00004F5157000F82150002105EBC50200EB31
:102600008200017105EBC50204F5157000EB820034
:10261000816005EBC50204F5157000EB8200C16016
:1026200005EBC50204F5157000EB82000161681C22
:10263000C5B22079A842D1DC207C8DF8000094E856
:102640000F0006F055FE20B1022084F89504012009
:102650005EE700206074012084F89504206806F08D
:1026600035FE002054E7000010B586B00446142162
:1026700001A8FDF7D3FF2068B0F1A04F50D100BFF3
:10268000002000902748006840F0010025490860BC
:102690000846006800F00100009000BF00BFC814A9
:1026A00001900220029000200390032004900A2051
:1026B000059001A91C48FEF7C1FF4FF4805001901E
:1026C0000220029001200390032004900A2005902C
:1026D00001A91548FEF7B2FF00BF1248001D0068AF
:1026E00040F080000F49091D086000BF00200090E5
:1026F0000C481430006840F480400A4914310860E6
:102700000846006800F48040009000BF00BF00BF92
:10271000002205214320FFF761F94320FFF74AF922
:1027200006B010BD303802400000024070B50446CB
:102730000125E07908B9002506E0E079022801D1F9
:10274000012501E0FEF7BDFC2946D4F8E00405F0C0
:1027500099FFD4F8E00405F03FFF70BD10B50446C2
:10276000D4F8E00405F06FFF10BD10B50446D4F8AE
:10277000E00405F073FF10BD70B504460D4600BFC0
:1027800094F89404012801D1022070BD012084F83E
:10279000940400BF65742946206807F0DBFA00BF87
:1027A000002084F8940400BF00BFEEE710B5044693
:1027B00004F29C41D4F8E00405F07BFF10BD70B535
:1027C0000446256800BF94F89404012801D1022032
:1027D00070BD012084F8940400BFE86800F0400058
:1027E00030B1607B012803D1A86B40F48030A8632E
:1027F000206807F09BF9206806F056FD00BF002016
:1028000084F8940400BF00BFE2E7000010B504465E
:10281000D4F8E00405F0AAFF2068D0F8000E40F0DC
:1028200001002168C1F8000EE07A28B10348006871
:1028300040F006000149086010BD000010ED00E006
:1028400070B504460D460CB9012070BD58480068AB
:1028500000F00700A84209D255490D7008460068EB
:1028600000F00700A84201D00120EEE7207800F038
:10287000020002281DD1207800F00400042805D1B0
:102880004C48006840F4E0504A490860207800F065
:102890000800082805D14748006840F460404549D1
:1028A00008604448006820F0F000A16808434149EE
:1028B0000860207800F00100A8B36068012807D103
:1028C0003C4808380068C0F34040B8B90120BCE774
:1028D0006068022802D06068032807D135480838AC
:1028E0000068C0F3406048B90120AEE731480838BD
:1028F0000068C0F3400008B90120A6E72D48006831
:1029000020F00300616808432A490860FEF79EFF33
:10291000064609E0FEF79AFF801B41F288318842A3
:1029200002D9032091E707E02248006800F00C007C
:102930006168B0EB810FEDD11D48006800F0070021
:10294000A84209D91A490D700846006800F007002E
:10295000A84201D0012078E7207800F00400042884
:1029600007D11448006820F4E050E1680843114999
:102970000860207800F00800082808D10D48006899
:1029800020F46040216940EAC1000A49086000F073
:1029900061F808490968C1F30311074A515CC8404E
:1029A0000649086006480068FEF780FF00204CE7F3
:1029B000003C02400838024074C300088400002034
:1029C0007C0000200F2202600D4A126802F0030210
:1029D00042600B4A126802F0F0028260084A1268F4
:1029E00002F4E052C260064A126802F46042D20861
:1029F0000261044A126802F007020A607047000090
:102A000008380240003C024001480068704700005E
:102A10008400002000B5FFF7F7FF04490968C1F3FF
:102A20008221034A515CC84000BD000008380240C2
:102A300084C3000800B5FFF7E7FF04490968C1F344
:102A40004231034A515CC84000BD000008380240D2
:102A500084C300082DE9F047002400250026A14684
:102A60002548006800F00C0020B1042805D0082893
:102A70003AD105E0DFF8849039E0DFF8849036E061
:102A80001D48001F006800F03F041B48001F00683D
:102A900000F4800078B11A481749091F0968C1F38A
:102AA0008811A0FB01700146224600233846FDF73D
:102AB0005BFC05460EE011480F49091F0968C1F388
:102AC0008811A0FB01700146224600233846FDF71D
:102AD0004BFC05460848001F0068C0F30140401C3D
:102AE0004600B5FBF6F902E0DFF8109000BF00BF2A
:102AF0004846BDE8F0870000083802400024F40092
:102B000080BA8C01F8B504460CB90120F8BD2078D4
:102B100000F00100002874D0F948006800F00C00B3
:102B200004280DD0F648006800F00C00082813D1E6
:102B3000F348001F006800F48000B0F5800F0BD14F
:102B4000EF4808380068C0F34040002859D060685A
:102B5000002856D10120D9E700BF6068B0F5803F5A
:102B600008D1E7480838006840F48030E449083963
:102B700008601EE06068B0F5A02F0DD1E04808386D
:102B8000006840F48020DE49083908600846006883
:102B900040F4803008600CE0D9480838006820F420
:102BA0008030D749083908600846006820F4802042
:102BB000086000BF606890B1FEF748FE054606E079
:102BC000FEF744FE401B642801D903209EE7CC4851
:102BD00008380068C0F340400028F1D011E0FEF74B
:102BE00035FE054606E0FEF731FE401B642801D99C
:102BF00003208BE7C24808380068C0F34040002833
:102C0000F1D1207800F0020002285FD1BC480068B2
:102C100000F00C0058B1BA48006800F00C00082819
:102C20001CD1B748001F006800F48000B0B9B44858
:102C300008380068C0F3400020B1E068012801D0E6
:102C4000012063E7AE480838006820F0F8002169E9
:102C500040EAC100AA490839086037E0E06800B3DB
:102C60000120A8490860FEF7F1FD054606E0FEF7E1
:102C7000EDFD401B022801D9032047E7A048083892
:102C80000068C0F340000028F1D09D480838006873
:102C900020F0F800216940EAC1009949083908602C
:102CA00014E0002097490860FEF7D0FD054606E0D5
:102CB000FEF7CCFD401B022801D9032026E79048EF
:102CC00008380068C0F340000028F1D1207800F0F7
:102CD000080008282CD16069A8B101208A49086041
:102CE000FEF7B4FD054606E0FEF7B0FD401B0228E6
:102CF00001D903200AE782486C300068C0F3400025
:102D00000028F1D014E000207F490860FEF79EFD06
:102D1000054606E0FEF79AFD401B022801D9032074
:102D2000F4E677486C300068C0F340000028F1D129
:102D3000207800F00400042870D100277048383053
:102D4000006800F0805090B900BF002000906C48EF
:102D50003830006840F080506949383108600846D2
:102D6000006800F08050009000BF00BF0127674856
:102D7000006800F48070B0B96448006840F4807066
:102D800062490860FEF762FD054606E0FEF75EFD5B
:102D9000401B022801D90320B8E65C48006800F413
:102DA00080700028F2D000BFA068012808D15448E4
:102DB0006830006840F001005149683108601DE04A
:102DC000A06805280DD14E486830006840F0040026
:102DD0004B49683108600846006840F0010008600F
:102DE0000CE047486830006820F001004449683131
:102DF00008600846006820F00400086000BFA06872
:102E0000A8B1FEF723FD054609E0FEF71FFD401BB4
:102E100041F28831884202D9032077E626E038481B
:102E200068300068C0F340000028EED013E0FEF7E1
:102E30000DFD054608E0FEF709FD401B41F2883113
:102E4000884201D9032061E62D4868300068C0F34C
:102E500040000028EFD1012F07D129483830006801
:102E600020F0805026493831086000BFA069002852
:102E700045D02348006800F00C0008285DD0A06908
:102E8000022845D100201F490866FEF7DFFC0546F1
:102E900006E0FEF7DBFC401B022801D9032035E6E3
:102EA000174808380068C0F340600028F1D1D4E921
:102EB00007010843616A40EA81110122A06AC2EB5E
:102EC000500041EA00412C20005D41EA00600C49BD
:102ED000091F086001200B490866FEF7B7FC05468C
:102EE00006E0FEF7B3FC401B022801D903200DE6E3
:102EF000034808380068C0F340600028F1D049E07A
:102F00000838024000004742800E474200700040EF
:102F1000002021490866FEF799FC054606E0FEF709
:102F200095FC401B022801D90320EFE51B480068EF
:102F3000C0F340600028F2D12CE0A069012800D144
:102F4000E4E51648001D0668A069012820D006F4B3
:102F50008001E06981421BD106F03F01206A814275
:102F600016D147F6C0703040616AB0EB811F0FD1B7
:102F700006F440310122A06AC2EB5000B1EB004FD1
:102F800006D106F070612C20005DB1EB006F01D01E
:102F90000120BBE50020B9E50000474200380240AF
:102FA0007047704730B502460B4600BF92F83C00B0
:102FB000012801D1022030BD012082F83C0000BF71
:102FC000022082F83D00106844681068816824F08F
:102FD00070041868044310684460184D1068A842D3
:102FE0001BD01068B0F1804F17D0154D1068A84263
:102FF00013D0144D1068A8420FD0134D1068A8428A
:103000000BD0124D1068A84207D0114D1068A8428D
:1030100003D0104D1068A84205D121F080015868F6
:10302000014310688160012082F83D0000BF00204C
:1030300082F83C0000BF00BFBDE700000000014077
:103040000004004000080040000C00400004014063
:10305000004001400018004010B504460CB90120A2
:1030600010BD94F83D0028B9002084F83C002046AB
:1030700000F026F8022084F83D00211D206803F0AE
:1030800047FB012084F8460000BF84F83E00012180
:103090003F200155402001554120015500BF00BF90
:1030A000012084F842004320015544200155452069
:1030B000015500BF012084F83D000020D0E700004A
:1030C00038B504462D49206888420FD100BF002042
:1030D00000902B48006840F002002949086008462B
:1030E000006800F00200009000BF46E0254920681B
:1030F00088420FD100BF002000902148006840F0B6
:1031000004001F4908600846006800F004000090B1
:1031100000BF32E01C492068884218D100BF00205F
:1031200000901748006840F02000154908600846E4
:10313000006800F02000009000BF00BF00220521C1
:103140003720FEF74BFC3720FEF734FC15E00F4923
:103150002068884211D100BF002000900848001D5F
:10316000006840F400300649091D08600846006800
:1031700000F40030009000BF00BF38BD00040040E4
:103180004038024000080040001400400044014064
:10319000014691F83D00012801D00120704702202E
:1031A00081F83D000868C06840F001000B68D860F5
:1031B0001A4B086898421BD00868B0F1804F17D0AE
:1031C000174B0868984213D0164B086898420FD0E6
:1031D000154B086898420BD0144B0868984207D0EA
:1031E000134B0868984203D0124B086898420CD1E0
:1031F0000868806800F00702062A0CD0086800689A
:1032000040F001000B68186005E00868006840F0B5
:1032100001000B6818600020C0E7000000000140BA
:103220000004004000080040000C00400004014081
:1032300000400140001800402DE9F04104460D46D1
:10324000002700BF94F83C00012802D10220BDE80D
:10325000F081012084F83C0000BF022084F83D008A
:103260002068866826F0770626F47F462068866008
:103270002868502833D00CDC202850D004DC0028EB
:103280004BD0102851D149E0302849D040284CD1AA
:1032900039E060282DD0702807D0B0F5805F03D0CA
:1032A000B0F5005F41D10DE041E0D5E902136A6855
:1032B000206803F0AEFA2068866846F0770620683A
:1032C000866034E0D5E902136A68206803F0A1FA49
:1032D0002068806840F480402168886027E0EA68C0
:1032E0006968206803F086FB5021206803F09CFA8F
:1032F0001DE0EA686968206803F08FFB60212068A0
:1033000003F092FA13E0EA686968206803F072FB40
:103310004021206803F088FA09E000BF00BF00BF29
:103320002968206803F080FA01E0012700BF00BF90
:10333000012084F83D0000BF002084F83C0000BF5D
:10334000384684E72DE9F04104460D4614B90120C2
:10335000BDE8F08194F83D0028B9002084F83C00D5
:10336000204600F053F8022084F83D002068806871
:1033700044F20701884321688860211D206803F01A
:10338000C7F92068D0F80880206886692068076A35
:10339000286840EA080840F203308643A969A86813
:1033A00040EA0120064340F60C4086434FF2F0000D
:1033B0008643E969E86840EA01200643286900017C
:1033C000296A40EA0130064327F0220727F08807E0
:1033D0006969686840EA011007432068C0F80880FE
:1033E0002068866120680762012084F8460084F81E
:1033F0003E0001213F200155012084F84200432076
:103400000155012084F83D000020A1E710B586B0E9
:103410000446142101A8FDF701F95F49206888429C
:1034200030D100BF002000905C48006840F00100EF
:103430005A4908600846006800F00100009000BF8B
:1034400000BF00BF0020009054481438006840F0CE
:1034500010005249143908600846006800F0100056
:10346000009000BF00BF4FF4206001900220029046
:103470000020039004900120059001A94848FEF720
:10348000DDF886E02068B0F1804F4DD100BF00200C
:1034900000904248001F006840F001003F49091FAA
:1034A00008600846006800F00100009000BF00BFFF
:1034B00000BF0020009039481438006840F0010037
:1034C0003649143908600846006800F00100009091
:1034D00000BF00BF00BF002000900846006840F019
:1034E000020008600846006800F00200009000BF7B
:1034F00000BF202001900220029000200390049041
:103500000120059001A92748FEF798F808200190AE
:10351000022002900020039004900120059001A950
:103520002148FEF78BF834E020492068884230D1EA
:1035300000BF002000901948001F006840F00800FC
:103540001649091F08600846006800F0080000904E
:1035500000BF00BF00BF0020009010481438006872
:1035600040F001000D49143908600846006800F079
:103570000100009000BF00BF0320019002200290D4
:103580000020039004900220059001A90548FEF751
:1035900055F806B010BD000000000140443802405C
:1035A000001002400000024000040240000C0040F5
:1035B0002DE9F04304460D4694F83E603F20075D38
:1035C00094F84280432010F804906DB9012E02D186
:1035D000B8F1010F02D00120BDE8F083022084F889
:1035E0003E0084F8420025E0042D0CD1012F02D1C9
:1035F000B9F1010F01D00120EEE702213F20015572
:103600004320015516E0012E07D1012F05D1B8F155
:10361000010F02D1B9F1010F01D00120DCE7022036
:1036200084F83E0002213F200155022084F8420028
:103630004320015515B1042D0CD105E001220021D4
:10364000206803F0D5F810E001220421206803F07F
:10365000CFF80AE001220021206803F0C9F8012216
:103660000421206803F0C4F800BF00BF2068006890
:1036700040F00100216808600020ADE7704770B598
:1036800004462068C5682068066906F00200022822
:1036900019D105F00200022815D1401F21680861E8
:1036A000012020772068806900F0030018B12046CF
:1036B000FFF7E4FF05E0204600F034F9204600F073
:1036C000E8F90020207706F00400042819D105F05D
:1036D0000400042815D1C043216808610220207726
:1036E0002068806900F4407018B12046FFF7C6FFDB
:1036F00005E0204600F016F9204600F0CAF9002047
:10370000207706F00800082819D105F008000828DD
:1037100015D1C04321680861042020772068C06962
:1037200000F0030018B12046FFF7A8FF05E020468F
:1037300000F0F8F8204600F0ACF90020207706F001
:103740001000102819D105F01000102815D1C04321
:1037500021680861082020772068C06900F4407063
:1037600018B12046FFF78AFF05E0204600F0DAF89E
:10377000204600F08EF90020207706F0010048B1C5
:1037800005F0010030B16FF00100216808612046AA
:1037900000F006FA06F08000802809D105F08000CC
:1037A000802805D1C043216808612046FFF7F8FB57
:1037B00006F04000402809D105F04000402805D11E
:1037C000C04321680861204600F012FA06F020008C
:1037D000202809D105F02000202805D1C043216808
:1037E00008612046FFF7DDFB70BD000010B586B014
:1037F0000446142101A8FCF711FF424920688842C1
:103800001ED100BF002000903F48006840F0040037
:103810003D4908600846006800F00400009000BFC1
:1038200000BF4FF4707001900220029000200390BE
:1038300004900220059001A93448FDF7FFFE5FE0E7
:103840003349206888423AD100BF002000902E48BA
:10385000006840F008002C4908600846006800F045
:103860000800009000BF00BF00BF00200090084685
:10387000006840F0020008600846006800F002009E
:10388000009000BF00BF4FF4404001900220029022
:103890000020039004900220059001A91D48FDF727
:1038A000CDFEC020019002200290002003900490E1
:1038B0000220059001A91848FDF7C0FE20E0174935
:1038C000206888421CD100BF002000900E4800688C
:1038D00040F020000C4908600846006800F0200015
:1038E000009000BF00BF4020019002200290002005
:1038F000039004900320059001A90948FDF79EFE5E
:1039000006B010BD000400403038024000080240FC
:1039100000080040000C0240000402400044014046
:103920000014024070472DE9F04104460D4616464A
:10393000002700BF94F83C00012802D10220BDE816
:10394000F081012084F83C0000BF36B1042E1BD06A
:10395000082E31D00C2E5ED145E02946206802F0B9
:103960006DFF2068806940F0080021688861206848
:10397000806920F0040021688861206880692969D5
:1039800008432168886148E02946206802F08EFFDC
:103990002068806940F4006021688861206880693F
:1039A00020F480602168886120688069296940EA84
:1039B00001202168886130E02946206802F0B4FFC8
:1039C0002068C06940F008002168C8612068C069AB
:1039D00020F004002168C8612068C0692969084393
:1039E0002168C86119E02946206802F0D9FF2068E3
:1039F000C06940F400602168C8612068C06920F493
:103A000080602168C8612068C069296940EA012096
:103A10002168C86101E0012700BF00BF00BF00208E
:103A200084F83C0000BF384689E710B504460CB95D
:103A3000012010BD94F83D0028B9002084F83C0016
:103A4000204600F025F8022084F83D00211D206862
:103A500002F05EFE012084F8460000BF84F83E00BC
:103A600001213F200155402001554120015500BF53
:103A700000BF012084F84200432001554420015535
:103A80004520015500BF012084F83D000020D0E70B
:103A90007047704770B504460D4615B994F83E005E
:103AA0000BE0042D02D13F20005D06E0082D02D17D
:103AB0004020005D01E04120005D012801D001208F
:103AC00070BD1DB9022084F83E000EE0042D03D124
:103AD00002213F20015508E0082D03D1022140209A
:103AE000015502E0022141200155012229462068AA
:103AF00002F07EFE23492068884203D022492068D4
:103B0000884201D1012000E0002028B12068406CEB
:103B100040F40040216848641A49206888421BD05C
:103B20002068B0F1804F17D018492068884213D020
:103B30001749206888420FD01649206888420BD068
:103B400011492068884207D013492068884203D071
:103B50001249206888420CD12068806800F007066E
:103B6000062E0CD02068006840F001002168086033
:103B700005E02068006840F001002168086000202E
:103B80009EE70000000001400004014000040040E6
:103B900000080040000C00400040014000180040B8
:103BA00010B504460F492068884202D1FDF754FE43
:103BB00017E00D492068884213D10C48006880B195
:103BC0000A480068D830FDF7E3F90848006800F5B6
:103BD0008470FDF7DDF90548006800F59C70FDF77D
:103BE000D7F910BD001000400014004098010020DB
:103BF0007047F8B504460D46164694F84200202852
:103C00002DD105B10EB90120F8BD0120206300209F
:103C1000606332462946204603F09EF90746206B32
:103C2000012819D100BF0020009020680068009092
:103C300020684068009000BF00BF00BF00BF21683F
:103C40000C3151E8001F41F0100021680C3141E8AF
:103C50000002002AF3D100E001273846D4E7022011
:103C6000D2E7000070B504460D460948844200D0F2
:103C700070BD2A460749084802F074F806464FF41A
:103C8000807204490248FFF7B4FF00BFF0E700006C
:103C9000900400205C7300205C74002070470000DA
:103CA0002DE9F84F0446206805682068C66820683A
:103CB00047694FF00009CA4605F00F09B9F1000F36
:103CC0000AD105F0200038B106F0200020B12046CE
:103CD00002F0ADFFBDE8F88FB9F1000F7CD007F01E
:103CE000010018B906F49070002875D005F00100A5
:103CF00030B106F4807018B1606C40F0010060646F
:103D000005F0040030B107F0010018B1606C40F01C
:103D10000200606405F0020030B107F0010018B144
:103D2000606C40F00400606405F0080048B106F0E3
:103D3000200010B907F0010018B1606C40F00800D5
:103D40006064606C002846D005F0200028B106F0C1
:103D5000200010B1204602F06AFF20684069C0F3DD
:103D6000801A606C00F0080010B9BAF1000F2DD075
:103D7000204602F003FF2068406900F04000402820
:103D800020D100BF00BF2168143151E8001F21F08D
:103D900040002168143141E80002002AF3D100BF3D
:103DA000E06B50B17F48E16B0865E06BFDF7FCF913
:103DB00088B1E06B016D88470DE02046FFF76EFF8C
:103DC00009E009E02046FFF769FF04E02046FFF71D
:103DD00065FF002060647DE7206B012878D105F045
:103DE0001000002874D006F010000028FAD000BFA0
:103DF00000200090206800680090206840680090D3
:103E000000BF00BF2068406900F04000402870D12A
:103E1000E06B006840681FFA80F8B8F1000F58D0D6
:103E2000A08D404555DDA4F82E80E06BC069B0F54B
:103E3000807F43D000BF00BF21680C3151E8001FD4
:103E400021F4807021680C3141E80002002AF3D18E
:103E500000BF00BF00BF2168143151E8001F21F0EE
:103E600001002168143141E80002002AF3D100BFAB
:103E700000BF00BF2168143151E8001F21F040004D
:103E80002168143141E80002002AF3D100BF20204C
:103E900084F842000020206300BF00BF21680C317D
:103EA00051E8001F21F0100021680C3141E80002A8
:103EB000002AF3D100BFE06BFDF720F90220606318
:103EC000A08DE28D801A81B22046FFF7CBFE0EE076
:103ED00052E0A08D40450AD1E06BC069B0F5807F0B
:103EE00005D102206063A18D2046FFF7BBFEF1E6FD
:103EF000FFE7A08DE18D401A1FFA80F8E08DD0B366
:103F0000B8F1000F37D000BF00BF21680C3151E875
:103F1000001F21F4907021680C3141E80002002A52
:103F2000F3D100BF00BF00BF2168143151E8001F6A
:103F300021F001002168143141E80002002AF3D188
:103F400000BF202084F842000020206300BF00BF93
:103F500021680C3151E8001F21F0100021680C315C
:103F600041E80002002AF3D100BF0220606341460D
:103F70002046FFF777FEADE605F0800030B106F091
:103F8000800018B1204603F053F8A3E605F0400086
:103F900030B106F0400018B1204602F025FE99E647
:103FA00000BF97E6436A000810B504460CB901202B
:103FB00010BDA06900B100E000BF94F8410028B92D
:103FC000002084F84000204600F02AF8242084F8DD
:103FD00041002068C06820F400502168C860204675
:103FE00002F0A4FE2068006920F490402168086176
:103FF0002068406920F02A00216848612068C06874
:1040000040F400502168C86000206064202084F8DB
:10401000410084F842000020606300BFC8E7000050
:1040200010B586B00446142101A8FCF7F7FA6649DA
:104030002068884231D100BF0020009063480068AA
:1040400040F40020614908600846006800F4002040
:10405000009000BF00BF00BF002000905B481038F8
:10406000006840F0040059491039086008460068AB
:1040700000F00400009000BF00BF4FF440600190CA
:104080000220029000200390032004900820059055
:1040900001A94F48FDF7D2FA94E04E4920688842C2
:1040A00033D100BF002000904848001D006840F058
:1040B00010004649091D08600846006800F010001D
:1040C000009000BF00BF00BF002000903F481038A4
:1040D000006840F001003D4910390860084600685A
:1040E00000F00100009000BF00BF4FF4C0600190DD
:1040F00002200290002003900320049007200590E6
:1041000001A93548FDF79AFA5CE0344920688842F5
:1041100058D100BF002000902C48006840F4802057
:104120002A4908600846006800F48020009000BF1B
:1041300000BF00BF0020009024481038006840F005
:1041400002002249103908600846006800F00200A9
:10415000009000BF00BF4FF4406001900220029029
:1041600000200390032004900720059001A91C481B
:10417000FDF764FA1B481C4908604FF00060486076
:10418000002119488160C1604FF480610161002104
:1041900041618161C1614FF40031016200214162DE
:1041A000FDF736F908B1FCF78CFF00BF0E48E0635D
:1041B000846300BF002205212720FDF70FFC272084
:1041C000FDF7F8FB06B010BD004C0040403802403F
:1041D000000802400010014000000240004800407A
:1041E0000004024028600240D80400207047704755
:1041F000704700BFFEE700004FF480620C490D4895
:1042000001F070FD05F07CFEFDF720FB044600BFC9
:1042100007F07EF8FDF71AFB0546281B052802D398
:10422000641D06F03BFD012005F0A0FEF0E7000054
:10423000707400205C74002010B5044604B910BDF1
:10424000012084F82D0004F10C0001F0B3FA00BF46
:10425000F5E72DE9F04104460D4616461F460CB918
:10426000BDE8F0812570666027810020A06284F897
:104270002C0084F82D0004F10C0001F09BFA00BF23
:10428000EEE730B50B46002100BF16E00A24B4EB80
:10429000107F05D9302404EB107403F8114005E0B9
:1042A000412404EB10740A3C03F81140000100257E
:1042B0004C00641C1D554C1CE1B29142E6DB30BD44
:1042C0002DE9F04104460D4616461F460CB9BDE8DF
:1042D000F0812570666027810020A0720120E072C5
:1042E000218900226068FDF7ABFA00BFEFE710B547
:1042F00004460CB1606800B910BD218900226068D5
:10430000FDF79EFA0020A07200BFF5E710B5044645
:104310000CB1606800B910BD218901226068FDF709
:104320008FFA0120A07200BFF5E7000008B500BFBA
:10433000002000900A48006840F400100849086016
:104340000846006800F40010009000BF00BF002283
:1043500005210C20FDF742FB0C20FDF72BFB08BDCF
:104360003038024070B5194A0021194805F060FE46
:1043700018490860FCF780FB04462046FCF780FBE8
:1043800001F0BAFD054601F043FF134A002113482E
:1043900005F04EFE12490860124A0021124805F04D
:1043A00047FE12490860124A0021124805F040FEFB
:1043B00011490860114A0021114805F039FE1149E0
:1043C00008602046FCF79EFC70BD0000B8C20008E3
:1043D0000566000800000020DCC200080D6500082A
:1043E0000400002000C30008994B000808000020CA
:1043F00024C300084D7200080C00002048C30008C8
:10440000F94100081000002000B587B0142102A86F
:10441000FCF704F900BF002001908F48006840F0CD
:1044200010008D4908600846006800F010000190F7
:1044300000BF00BF00BF002001900846006840F0A8
:10444000040008600846006800F00400019000BF06
:1044500000BF00BF002001900846006840F0200027
:1044600008600846006800F02000019000BF00BF0F
:1044700000BF002001900846006840F080000860FE
:104480000846006800F08000019000BF00BF00BF38
:10449000002001900846006840F0010008600846CE
:1044A000006800F00100019000BF00BF00BF0020C5
:1044B00001900846006840F0400008600846006827
:1044C00000F04000019000BF00BF00BF002001903D
:1044D0000846006840F0020008600846006800F0E6
:1044E0000200019000BF00BF00BF002001900846FD
:1044F000006840F0080008600846006800F0080006
:10450000019000BF00BF002204215448FDF798F934
:1045100000224FF480415248FDF792F90022022117
:104520005048FDF78DF900224FF480514E48FDF7B9
:1045300087F9042002900120039000200490059048
:1045400002A94648FDF77AF8182002904FF444106B
:1045500003900020049002A94048FDF76FF84FF443
:10456000815002904FF4441003900020049002A95F
:104570003B48FDF763F848F2040002904FF4441002
:1045800003900020049002A93848FDF757F84FF433
:10459000804002900120039000200490059002A921
:1045A0002F48FDF74BF802200290012003900020D5
:1045B0000490059002A92B48FDF740F84FF43070A5
:1045C00002904FF4441003900020049002A9284860
:1045D000FDF734F84FF48050029001200390002042
:1045E0000490059002A92048FDF728F84FF4406098
:1045F00002904FF4441003900020049002A919483F
:10460000FDF71CF8002205210820FDF7E7F9082036
:10461000FDF7D0F9002205210920FDF7DFF9092077
:10462000FDF7C8F9002205210A20FDF7D7F90A2075
:10463000FDF7C0F9002205211720FDF7CFF917205B
:10464000FDF7B8F9002205212820FDF7C7F9282039
:10465000FDF7B0F907B000BD30380240001002404D
:10466000001402400018024000080240000002400E
:10467000000C024000B587B01C216846FBF7CEFF56
:10468000154816490860532048600021134881608E
:1046900040F2E731C160002101618161FEF7DCFC7D
:1046A00008B1FCF70EFD0D48FFF7BFF908B1FCF7A4
:1046B00008FD6020009000200190029004900022EC
:1046C00069460648FFF72FF908B1FCF7FAFC0348E2
:1046D000FFF78CF807B000BD00440140B80300208C
:1046E00000B58BB0242102A8FBF798FF00200090B2
:1046F00001901848184908600020486000211648B9
:1047000081604FF6FF71C1600021016141618161EB
:1047100003200290002003900120049000200590C7
:104720000690079001200890002009900A9002A9A5
:104730000948FEF707FE08B1FCF7C3FC0020009013
:10474000019069460448FEF72DFC08B1FCF7B9FC5E
:104750000BB000BD000001400802002000B58BB086
:10476000242102A8FBF75AFF0020009001904FF08F
:10477000804017490860002048600021144881608B
:10478000491EC16000210161816103200290002067
:1047900003900120049000200590069007900120CE
:1047A0000890002009900A9002A90948FEF7CAFD66
:1047B00008B1FCF786FC002000900190694604488F
:1047C000FEF7F0FB08B1FCF77CFC0BB000BD00006D
:1047D0005002002000B58DB0002009900A900B9087
:1047E0000C90079008901C216846FBF717FF2C4897
:1047F0002C4908605320486000212A48816040F21B
:10480000E731C160002101618161FEF725FC08B13B
:10481000FCF757FC4FF48050099009A92148FEF796
:104820000BFD08B1FCF74DFC1E48FFF7FEF808B180
:10483000FCF747FC00200790089007A91948FEF7ED
:10484000B1FB08B1FCF73DFC602000900020019016
:1048500002900490002269461248FFF764F808B1FC
:10486000FCF72FFC042269460E48FFF75CF808B1FC
:10487000FCF727FC082269460A48FFF754F808B1FC
:10488000FCF71FFC0C2269460648FFF74CF808B1FC
:10489000FCF717FC0348FEF7A9FF0DB000BD0000B0
:1048A000000400409802002000B58DB0002009905F
:1048B0000A900B900C90079008901C216846FBF71B
:1048C000ADFE2C482C4908605320486000212A483E
:1048D00081604FF6FF71C160002101618161FEF7C7
:1048E000BBFB08B1FCF7EDFB4FF48050099009A920
:1048F0002148FEF7A1FC08B1FCF7E3FB1E48FFF7D7
:1049000094F808B1FCF7DDFB00200790089007A998
:104910001948FEF747FB08B1FCF7D3FB6020009075
:104920000020019002900490002269461248FEF790
:10493000FAFF08B1FCF7C5FB042269460E48FEF7F2
:10494000F2FF08B1FCF7BDFB082269460A48FEF7F2
:10495000EAFF08B1FCF7B5FB0C2269460648FEF7F2
:10496000E2FF08B1FCF7ADFB0348FEF73FFF0DB0D7
:1049700000BD000000080040E002002000B58BB040
:10498000242102A8FBF74AFE00200090019017485E
:104990001749086000204860002115488160491EC1
:1049A000C16000210161816101200290002003901B
:1049B00001200490002005900690079001200890A7
:1049C000002009900A9002A90948FEF7BBFC08B133
:1049D000FCF777FB00200090019069460448FEF741
:1049E000E1FA08B1FCF76DFB0BB000BD000C004014
:1049F000280300201CB50020009001900E480F49AC
:104A000008605320486000210C48816040F2E73183
:104A1000C16080218161FEF71FFB08B1FCF751FBEB
:104A200000200090019069460448FEF7BBFA08B1E7
:104A3000FCF747FB1CBD0000001400407003002081
:104A400010B50B480B4908604FF4E1304860002175
:104A500008488160C16001610C21416100218161D0
:104A6000C161FFF7A1FA08B1FCF72BFB10BD0000F4
:104A7000004C00400004002010B50B480B490860B2
:104A80004FF4E1304860002108488160C160016155
:104A90000C21416100218161C161FFF785FA08B1F4
:104AA000FCF70FFB10BD000000100140480400207F
:104AB00010B50C480C4908604FF4165048604FF48C
:104AC0008051094881600021C16001610C21416170
:104AD00000218161C161FFF767FA08B1FCF7F1FAC3
:104AE00010BD0000004800409004002010B50022D6
:104AF0000D490E4803F039FB08B1FCF7E2FA0C4906
:104B00000A4803F074FE08B1FCF7DBFA09490748CC
:104B100002F032FF08B1FCF7D4FA044803F06AFF50
:104B200008B1FCF7CEFA10BD14000020800500206B
:104B3000980000206400002000BFFEE770B5044626
:104B40000D4634B108480068D830FCF7F9F984ED17
:104B5000000A3DB10448006800F58470FCF7F0F9E4
:104B600085ED000A70BD0000980100200848002172
:104B7000016041608160C1600020054908720873CE
:104B800048738873C8730349086008717047000050
:104B90002C720020A8010020FFF7E8FF3BE000F0A6
:104BA00063F800F08FF81C48D0ED000A1B4890ED28
:104BB000000A00F04DF84FF4FA711948006890307F
:104BC00000F0DCFD4FF4FA7115480068B43000F0D5
:104BD000D5FD4FF4FA7112480068483000F0CEFD60
:104BE0004FF4FA710E4800686C3000F0C7FD0C48B5
:104BF0000068D830FCF79AF90A4880ED000A0848A6
:104C0000006800F58470FCF791F9074880ED000A10
:104C1000022005F0ABF9C2E7CC010020C80100205A
:104C200098010020C0010020C4010020014A107337
:104C3000517370472C7200200149C87370470000FF
:104C40002C72002001498873704700002C720020EC
:104C5000044880ED000AC0ED010A012001490872F4
:104C6000704700002C72002010B51448006800B98D
:104C700010BDFCF7EBFD044611480068201AB0F5A2
:104C8000FA7F19D30E48007908B9012000E000200E
:104C90000B4908710846007930B10848006800F5F2
:104CA0004770FFF733FB05E00448006800F54770E4
:104CB000FFF71DFB0248046000BFD9E79801002000
:104CC000A801002010B52DED088B7248006810B9BE
:104CD000BDEC088B10BD7048007A48B96D4800687B
:104CE00000F05BFD6B480068243000F056FDEFE7F4
:104CF00068480068D830FCF723F9B0EE40BA654840
:104D0000006800F58470FCF71BF9F0EE40BA6348C8
:104D100080ED00BA604890ED000ADFED610A20EEF8
:104D2000200ADFED600A80EE208A90ED010ADFEDB7
:104D30005C0A20EE200ADFED5B0A80EE209A5A48DA
:104D400080ED008AB0EE480A5248006800F5B47061
:104D500000F06AFFB0EE490A4E48006800F5D470D2
:104D600000F062FF4B480068D830FCF7DFF8B0EE87
:104D700040AA4848006800F58470FCF7D7F8F0EEC8
:104D800040AAB0EE4A0A4348006800F5B47000F04B
:104D900059FEF0EE409AB0EE6A0A3E48006800F50F
:104DA000D47000F04FFEF0EE408AB5EEC08AF1EE0E
:104DB00010FA17DB01213748006800F0D0FCBDEE87
:104DC000E90A10EE100A04B2002C00DA0024B4F54F
:104DD0007A7F01DD4FF47A7421462E48006800F096
:104DE000CDFC19E002212B48006800F0B8FCB1EEC0
:104DF000690ABDEEC00A10EE100A04B2002C00DAF7
:104E00000024B4F57A7F01DD4FF47A7421462148FD
:104E1000006800F0B3FC00BFB5EEC09AF1EE10FAE6
:104E200019DB01211B480068243000F098FCBDEE1E
:104E3000E80A10EE100A04B2002C00DA0024B4F5DF
:104E40007A7F01DD4FF47A742146124800682430DD
:104E500000F094FC1BE002210E480068243000F0B2
:104E60007EFCB1EE680ABDEEC00A10EE100A04B274
:104E7000002C00DA0024B4F57A7F01DD4FF47A7457
:104E8000214604480068243000F078FC00BF00BFD1
:104E90001EE70000980100202C720020B0010020C5
:104EA0000000704273D9A03EB801002000B97047DD
:104EB000012180F8201000BFF9E700002DE9F0473C
:104EC0000446894615461E46DDE908780CB9BDE85A
:104ED000F0870F48206084F8049000206071E08023
:104EE0002081E66020616761A4F81880E56184F89C
:104EF000200084F821001DB131462846FEF7CAFD86
:104F000027B1002241463846FCF79AFC00BFDEE795
:104F10008CC300082DE9F0410446884615461E461C
:104F2000069F0CB9BDE8F0812448206084F8048015
:104F300000206071E0802081E6602761606120834D
:104F4000E56184F82000012084F821003DB131465C
:104F50002846FEF79FFD39462846FEF79BFD55B3D0
:104F60002968C86A1EB900212A6851630EE0042E20
:104F700003D100212A68916308E0082E03D10021A3
:104F80002A68D16302E000212A6811641FB9002158
:104F90002A6851630EE0042F03D100212A6891632F
:104FA00008E0082F03D100212A68D16302E0002124
:104FB0002A68116400BF00BFB4E700008CC300087A
:104FC00010B5044604B910BD032060710020208193
:104FD000E080E069002857D094F8210088B3E169A7
:104FE0000968C86AE16819B9E1690968486310E0AD
:104FF000E168042903D1E1690968886309E0E1688F
:10500000082903D1E1690968C86302E0E169096818
:105010000864216919B9E1690968486310E02169E8
:10502000042903D1E1690968886309E02169082935
:1050300003D1E1690968C86302E0E16909680864AD
:1050400022E0FFE7606920B1218B00226069FCF754
:10505000F7FBE06820B90020E1690968486313E0C4
:10506000E068042804D10020E169096888630BE046
:10507000E068082804D10020E1690968C86303E0FA
:105080000020E1690968086400BF9CE7014609B98E
:1050900000207047B1F90600FBE7014609B900207E
:1050A00070474879FCE770B504460D4604B970BDF9
:1050B000657194F82100002874D0E1690968CA6A12
:1050C0001046002D6FD0012D04D0022D7BD0032D72
:1050D0006BD1EDE0B4F90610002939DDB4F90630E2
:1050E00053434FF47A76B3FBF6F1E3681BB9E369F7
:1050F0001B68596310E0E368042B03D1E3691B6864
:10510000996309E0E368082B03D1E3691B68D9635D
:1051100002E0E3691B681964236923B90023E66987
:105120003668736313E02369042B04D10023E66916
:105130003668B3630BE02369082B04D10023E669CA
:105140003668F36303E00023E6693668336439E0C8
:10515000E16821B90021E3691B68596313E0E16844
:10516000042904D10021E3691B6899630BE0E1681D
:10517000082904D10021E3691B68D96303E00021F9
:10518000E3691B681964216921B90021E3691B687F
:10519000596317E02169042908D10021E3691B68DC
:1051A00099630FE0EDE0B3E00DE0B0E0216908297C
:1051B00004D10021E3691B68D96303E00021E3699E
:1051C0001B681964DBE0B4F90610002939DDB4F975
:1051D000063053434FF47A76B3FBF6F1E36823B914
:1051E0000023E6693668736313E0E368042B04D197
:1051F0000023E6693668B3630BE0E368082B04D14B
:105200000023E6693668F36303E00023E669366845
:10521000336423691BB9E3691B68596310E0236990
:10522000042B03D1E3691B68996309E02369082B08
:1052300003D1E3691B68D96302E0E3691B68196461
:1052400035E0E16821B90021E3691B68596313E087
:10525000E168042904D10021E3691B6899630BE02C
:10526000E168082904D10021E3691B68D96303E0E0
:105270000021E3691B681964216921B90021E369F0
:105280001B68596313E02169042904D10021E369F3
:105290001B6899630BE02169082904D10021E369A7
:1052A0001B68D96303E00021E3691B68196466E0A9
:1052B000E16819B9E1690968486310E0E168042907
:1052C00003D1E1690968886309E0E168082903D12D
:1052D000E1690968C86302E0E16909680864216955
:1052E00019B9E1690968486310E02169042903D10B
:1052F000E1690968886309E02169082903D1E16946
:105300000968C86302E0E1690968086437E000BF22
:10531000E16821B90021E3691B68596313E0E16882
:10532000042904D10021E3691B6899630BE0E1685B
:10533000082904D10021E3691B68D96303E0002137
:10534000E3691B681964216921B90021E3691B68BD
:10535000596313E02169042904D10021E3691B6822
:1053600099630BE02169082904D10021E3691B68D6
:10537000D96303E00021E3691B68196400BF00BF23
:105380001FE0606900B992E695B1012D04D0022DAD
:1053900008D0032D13D10CE0218B01226069FCF7AA
:1053A0004FFA0DE0218B00226069FCF749FA07E013
:1053B00000BF218B00226069FCF742FA00E000BFC9
:1053C00000BF00BF73E630B50B4608B1C26902B931
:1053D00030BDB3F57A7F01DD4FF47A73002B00DA2C
:1053E0000023038190F82020002A57D1C28090F832
:1053F00021208AB3C26822B90022C5692D686A6378
:1054000013E0C268042A04D10022C5692D68AA638A
:105410000BE0C268082A04D10022C5692D68EA633E
:1054200003E00022C5692D682A64026922B90022BE
:10543000C5692D686A6330E00269042A04D100223C
:10544000C5692D68AA6328E00269082A05D10022EF
:10545000C5692D68EA6320E004E00022C5692D6873
:105460002A641AE0C26822B90022C5692D686A63FD
:1054700013E0C268042A04D10022C5692D68AA631A
:105480000BE0C268082A04D10022C5692D68EA63CE
:1054900003E00022C5692D682A6499E7C269126891
:1054A000D46A03FB04F24FF47A75B2FBF5F1C380C2
:1054B00090F82120002A77D04279012A32D1C2689F
:1054C0001AB9C2691268516310E0C268042A03D194
:1054D000C2691268916309E0C268082A03D1C269EF
:1054E0001268D16302E0C26912681164026922B9CC
:1054F0000022C5692D686A63CEE00269042A04D1DE
:105500000022C5692D68AA63C6E00269082A04D191
:105510000022C5692D68EA63BEE00022C5692D68D6
:105520002A64B9E04279022A32D1C26822B9002243
:10553000C5692D686A6313E0C268042A04D1002299
:10554000C5692D68AA630BE0C268082A04D100224D
:10555000C5692D68EA6303E00022C5692D682A64E5
:1055600002691AB9C2691268516395E00269042A96
:1055700003D1C269126891638EE00269082A03D1DF
:10558000C2691268D16387E0C2691268116483E05E
:105590004279032A32D1C5692D68EA6AC56825B9FE
:1055A000C5692D686A6311E05FE0C568042D03D109
:1055B000C5692D68AA6309E0C568082D03D1C569CE
:1055C0002D68EA6302E0C5692D682A6405691DB982
:1055D000C5692D686A6310E00569042D03D1C569AA
:1055E0002D68AA6309E00569082D03D1C5692D68F6
:1055F000EA6302E0C5692D682A644DE0C26822B9F9
:105600000022C5692D686A6313E0C268042A04D1C8
:105610000022C5692D68AA630BE0C268082A04D17C
:105620000022C5692D68EA6303E00022C5692D6880
:105630002A64026922B90022C5692D686A632BE0D9
:105640000269042A04D10022C5692D68AA6323E0F7
:105650000269082A04D10022C5692D68EA631BE0AB
:105660000022C5692D682A6416E0C2681AB9C269A9
:105670001268516310E0C268042A03D1C26912683B
:10568000916309E0C268082A03D1C2691268D16334
:1056900002E0C2691268116400BF99E600B9704760
:1056A000002141710181C180C169002955D090F864
:1056B000211089B3C16821B90021C2691268516300
:1056C00013E0C168042904D10021C2691268916302
:1056D0000BE0C168082904D10021C2691268D163B6
:1056E00003E00021C26912681164016921B9002137
:1056F000C2691268516330E00169042904D10021B4
:10570000C2691268916328E00169082905D1002166
:10571000C2691268D16320E004E00021C269126806
:1057200011641AE0C16821B90021C269126851638D
:1057300013E0C168042904D10021C2691268916391
:105740000BE0C168082904D10021C2691268D16345
:1057500003E00021C2691268116400BF9FE770B5C1
:1057600004460D464CB1206838B12068406820B12D
:105770002068294642682046904770BD70B50446AF
:105780000D464CB1206838B12068006820B120680F
:10579000294602682046904770BD10B5044644B1C2
:1057A000206830B12068806818B120688168204680
:1057B000884710BD00B97047002101704160017237
:1057C000C1600161002202760121417600BFF2E74B
:1057D00000BFFEE710B50248FCF71FFB10BD00003C
:1057E0005C1A00202DE9F04704460D46266837462E
:1057F000D6F8408007F5306000EB4510D0F80890EF
:10580000104880450BD909F40040B0F5004F06D18F
:105810004FF4004107F5306000EB451081602046F1
:10582000FCF7C4FF0748804508D9A079012805D1B5
:1058300004F29C420121206803F056FE0020BDE8DE
:10584000F08700000A30544F2DE9F04705460C461A
:10585000D5F800904E46D9F840A006F5306000EB30
:105860004410D0F80880A879012855D108F0080024
:1058700008280FD1434882450BD908F40040B0F501
:10588000004F7BD14FF4004106F5306000EB44102F
:10589000816073E008F02000202806D1202106F561
:1058A000306000EB4410816068E008F028000028B8
:1058B00064D1344882450CD908F40040B0F5004F5B
:1058C00007D14FF4004106F5306000EB44108160D1
:1058D00054E004EBC40105F5157000EB810706F5F3
:1058E000306000EB4410396A0069C0F31200081AF6
:1058F000786164B9386930B905F29C4201212868A1
:1059000003F0F2FD03E07969F8680844F860E1B259
:105910002846FCF7F9F831E01B4882451BD108F412
:105920000040B0F5004F07D14FF4004106F530605C
:1059300000EB4410816021E008F02000202805D110
:10594000202106F5306000EB44108160E1B228466A
:10595000FCF7DAF812E06CB904EBC40105F5157038
:1059600000EB8100006928B905F29C4200212868FB
:1059700003F0BAFDE1B22846FCF7C6F80020BDE806
:10598000F08700000A30544F0A31544F2DE9F84F88
:1059900007460E46D7F80090C84606EBC60107F149
:1059A000140000EB8104D4E90410884202D90120DC
:1059B000BDE8F88FD4E90401451AA068A84200D2D6
:1059C000A568E81C4FEA900A17E0D4E90401451ADB
:1059D000A068A84200D2A568E81C4FEA900AB879EE
:1059E000ABB2F2B200904846E16804F045FAE068D4
:1059F0002844E06060692844606108F5106000EBAD
:105A00004610806980B2504506D3D4E9041088421C
:105A100002D220690028D8D1D4E9040188420ED8E6
:105A200006F00F01012000FA01FB40F6340050F8A7
:105A3000080020EA0B0040F6340141F8080000207D
:105A4000B6E7000010B52DED068B0446F0EE408A57
:105A500014B194F83C1021B99FED450ABDEC068BBA
:105A600010BD04F092FAA16B411A00EE101AB8EEC4
:105A7000400ADFED400A80EE208AB5EEC08AF1EEE2
:105A800010FA03D89FED3C0AB0EE408AC4ED048AB8
:105A900094ED030AD4ED040A30EE600A84ED050AA1
:105AA00094ED000AD4ED050A20EE209A94ED070A41
:105AB000D4ED050A00EE880A84ED070A94ED070A82
:105AC000D4ED0C0AB4EEE00AF1EE10FA04DD94ED28
:105AD0000C0A84ED070A0CE094ED070AD4ED0D0AD8
