:020000040800F2
:100000003081002055020008BD820008C95900084F
:10001000D56E00089105000899F70008000000005F
:10002000000000000000000000000000818D0008BA
:10003000E50F000800000000A1890008E99D000804
:100040006F0200086F0200086F0200086F020008CC
:100050006F0200086F0200086F0200086F020008BC
:100060000D10000819100008251000086F02000884
:100070003D0E00086F0200086F0200086F020008C2
:100080006F0200086F0200086F0200086F0200088C
:100090006F0200086F0200086F02000831100008AC
:1000A0006F0200086F0200086F0200086F0200086C
:1000B0006F0200086F0200086F0200086F0200085C
:1000C0006F0200086F0200086F0200086F0200084C
:1000D0006F0200086F0200086F02000869AC000898
:1000E000E90F00086F0200086F0200086F020008A5
:1000F0006F0200086F0200086F0200086F0200081C
:100100006F0200086F0200086F0200086F0200080B
:100110006F0200086F020008D59E0008E59E0008E7
:100120006F0200086F0200086F0200086F020008EB
:100130006F0200086F0200086F0200086F020008DB
:100140006F0200086F0200086F0200082D8300088C
:100150006F0200086F0200086F0200086F020008BB
:100160006F0200086F0200086F0200086F020008AB
:100170006F0200086F0200086F0200080000000014
:100180006F0200086F02000800F002F800F052F859
:1001900014A696E8000CB244B344DA4501D100F04D
:1001A00049F8BAE80F000FA696E83000A5EB040561
:1001B00004EB0607AAEB0704A7F101074FEA1515A0
:1001C0004FEA3414A4F10104AC4201D300F032F838
:1001D00013F0010F18BFFB1A43F0010300F001F800
:1001E000DBE71847F028010010290100103A24BF6E
:1001F00078C878C1FAD8520724BF30C830C144BF8C
:1002000004680C6070470000704700000023002461
:1002100000250026103A28BF78C1FBD8520728BF16
:1002200030C148BF0B6070471FB512F087FB1FBD80
:1002300010B510BD00F071F91146FFF7F5FF0FF092
:100240008BFB00F08FF903B4FFF7F2FF03BC00F063
:1002500097F900000948804709480047FEE7FEE794
:10026000FEE7FEE7FEE7FEE7FEE7FEE7FEE7FEE766
:1002700004480549054A064B70470000C19E000826
:10028000890100083079002030810020307D002075
:10029000307D002053EA020C00F069802DE9F04B1C
:1002A0004FF00006002B1FBFB3FA83F503FA05F4E5
:1002B00024FA05F65E4012BF1643B2FA82F502FA3E
:1002C00005F4C5F120051EBF22FA05FC44EA0C0422
:1002D000203556EA044C4FEA144418BF641C4FF012
:1002E00000084FF00009904271EB030C39D300294C
:1002F00019BFB1FA81F701FA07F6B0FA80F700FAF0
:1003000007F6C7F120071EBF20FA07FC46EA0C06D5
:100310002037B6FBF4FCA7EB0507103F07F01F0BD7
:10032000CBF120062CFA06F60CFA0BFB44BFB346C1
:100330000026202FA4BF5E464FF0000B5BEA060CA0
:1003400008BF4FF0010B19EB0B0948EB0608ABFB9C
:10035000027C06FB02CC0BFB03CCC01B71EB0C0137
:10036000C1E70B46024641464846BDE8F08B13B54F
:10037000084318BF4FF0FF300146AFF30080BDE8DF
:100380001C407047032A40F2308010F0030C00F04C
:10039000158011F8013BBCF1020F624498BF11F8BF
:1003A00001CB00F8013B38BF11F8013BA2F1040278
:1003B00098BF00F801CB38BF00F8013B11F00303F0
:1003C00000F07980083AC0F0088051F8043B083A00
:1003D00051F804CBA0E80810F5E7121D5CBF51F8F6
:1003E000043B40F8043BAFF30080D20724BF11F870
:1003F000013B11F801CB48BF11F8012B24BF00F8D5
:10040000013B00F801CB48BF00F8012B704702F018
:10041000FF0343EA032242EA024200F024B84FF00D
:1004200000020429C0F0128010F0030C00F01B80C1
:10043000CCF1040CBCF1020F18BF00F8012BA8BFCF
:1004400020F8022BA1EB0C0100F00DB85FEAC17C93
:1004500024BF00F8012B00F8012B48BF00F8012B46
:1004600070474FF0000200B5134694469646203977
:1004700022BFA0E80C50A0E80C50B1F12001BFF45D
:10048000F7AF090728BFA0E80C5048BF0CC05DF8C3
:1004900004EB890028BF40F8042B08BF704748BF11
:1004A00020F8022B11F0804F18BF00F8012B704785
:1004B00070477047704710B5203AC0F00B80B1E824
:1004C0001850A0E81850B1E81850A0E81850203A89
:1004D000BFF4F5AF5FEA027C24BFB1E81850A0E892
:1004E000185044BF18C918C0BDE810405FEA827CAC
:1004F00024BF51F8043B40F8043B08BF7047D207C3
:1005000028BF31F8023B48BF11F8012B28BF20F863
:10051000023B48BF00F8012B7047754600F02CF8ED
:10052000AE4605006946534620F00700854618B0E0
:1005300020B5FFF79DFEBDE820404FF000064FF0CC
:1005400000074FF000084FF0000BAC46ACE8C009C4
:10055000ACE8C009ACE8C009ACE8C00921F007016B
:100560008D46704710B50446AFF300802046BDE8C5
:100570001040FFF768BE00000048704708010020E7
:1005800001491820ABBEFEE72600020070470000BC
:10059000FFE7FEE780B588B00790ADF81A10ADF818
:1005A0001820079828B1FFE70798007CC00708B912
:1005B000FFE7A8E007988068002800F09980FFE72F
:1005C000BDF81A000128C0F29380FFE74BF60050F7
:1005D000C0F2015005900598BDF81A10B0FBF1F17A
:1005E0004FF0FF3000EB51000490049800287ED0BB
:1005F000FFE7BDF81200002879D1FFE7FFE7049874
:10060000079989680968C862049807998968C86069
:10061000FFE70798C06838B9FFE7049840080799D2
:1006200089680968486329E00798C068042809D1E7
:10063000FFE7049841080846079A92681268916398
:10064000039019E00798C068082809D1FFE70498CB
:1006500041080846079A92681268D163029008E040
:10066000049841080846079A92681268116402903B
:10067000FFE702980390FFE70398FFE7079901203F
:100680004874BDF818000FF097F90798C06830B9A2
:10069000FFE70798806801680020486323E0079817
:1006A000C068042807D1FFE7079880680168002028
:1006B0008863019015E00798C068082807D1FFE714
:1006C0000798806801680020C863009006E00798DA
:1006D00080680168002008640090FFE7009801909E
:1006E000FFE70198FFE7079900204874FFE70AE059
:1006F000079800F0BDF8BDF818000FF05DF90798F5
:1007000000F06AF8FFE708B080BD000080B586B051
:10071000DDF820C005900491ADF80E2002930598F5
:1007200008B9FFE755E0049805990860BDF80E0088
:100730000599888002980599886008980599C8608D
:1007400005990120087405990020487405980068EF
:1007500038B1FFE7059908688988002201F07CFC20
:10076000FFE705988068A0B3FFE705998868C96826
:1007700004F0F8FB0598C06830B9FFE70598806879
:1007800001680020486323E00598C068042807D169
:10079000FFE705988068016800208863019015E0F4
:1007A0000598C068082807D1FFE7059880680168A8
:1007B0000020C863009006E005988068016800206A
:1007C00008640090FFE700980190FFE70198FFE7B9
:1007D000FFE706B080BD000080B584B003900398A9
:1007E00008B9FFE741E00398006838B1FFE70399D3
:1007F00008688988002201F02FFCFFE703988068D1
:1008000078B3FFE70398C06830B9FFE703988068C2
:1008100001680020486323E00398C068042807D1DA
:10082000FFE703988068016800208863029015E064
:100830000398C068082807D1FFE70398806801681B
:100840000020C863019006E00398806801680020DA
:1008500008640190FFE701980290FFE70298FFE724
:10086000FFE7039900204874FFE704B080BD000053
:1008700080B582B00190019828B1FFE70198007C13
:10088000C00708B9FFE70EE00198006838B1FFE73C
:10089000019908688988012201F0DEFBFFE70199D0
:1008A00001204874FFE702B080BD000084B08DF8DD
:1008B0000F000291ADF806209DF80F00014600914F
:1008C00023281DD80099DFE801F012131415161B18
:1008D0001B1B1B1B1B1B1B1B1B1B1B1B1B1B1B1B68
:1008E0001B1B1B1B1B1B1B1B1B1B1718191A08E0B0
:1008F00007E006E005E004E003E002E001E000E0DC
:10090000FFE7002004B0704780B540F2F400C2F267
:100910000000006858B1FFE740F2F400C2F20000A6
:10092000006800F5597000210DF0B4FCFFE70020CD
:1009300080BD000080B582B041F66860C2F2000060
:10094000019040F69C51C2F2000100220BF03CFCE9
:10095000019840F29C51C2F200010BF017FC40F2EA
:10096000F400C2F20000006858B1FFE740F2F40062
:10097000C2F20000006800F5597001210DF08AFCF8
:10098000FFE7002002B080BD80B584B003900291E3
:1009900040F2F400C2F200000068B8B1FFE703982B
:1009A000A0B1FFE7029888B1FFE70298006868B13C
:1009B000FFE740F2F400C2F20000006800F5597051
:1009C0000399029A12680DF00DFCFFE7039941F6B6
:1009D0006860C2F2000001900BF0D8FB01980BF0A8
:1009E0007BFB002004B080BD80B584B003900291F1
:1009F0008DF8072000208DF8060040F2F400C2F2C6
:100A00000000006850B1FFE740F2F400C2F20000BD
:100A1000006800F559700DF0D7FCFFE79DF906005E
:100A200004B080BD80B586B00490ADF80E100020F3
:100A30008DF80D0041F66860C2F20000D0F8BC02EB
:100A400002900298D0F8140220B1FFE701208DF83F
:100A5000170013E00499BDF80E2041F66860C2F259
:100A6000000001900BF0B0FB01980BF0B7FC8DF883
:100A70000D009DF80D008DF81700FFE79DF8170099
:100A800006B080BD41F2C850C2F2000070470000BD
:100A900080B598B01790179808B9FFE792E11798BA
:100AA0006A460C210491116042F2B072C2F2000257
:100AB00003920021169108230D9306F0A7FD039AD7
:100AC000169B17982430EC4604211391CCF80010A3
:100AD000194606F09BFD0D9B1699179848306A46FB
:100AE0005160116042F26872C2F200020592012167
:100AF000109106F03FFD049B059A1099DDF858C04F
:100B000017986C30EE46CEF804C0CEF800C006F060
:100B100031FD059A139B169917989030EC46CCF846
:100B20000410CCF800100221119106F023FD059A63
:100B3000169B1798B43069464B600B6003211491E3
:100B400006F018FD109A16991798D8306B461A605F
:100B500042F22072C2F2000240F6D403069300F083
:100B60001BFB1798D83042F62A31079100F014FC8D
:100B7000069B1099179800F586706A46116042F23C
:100B80009062C2F2000200F007FB0799179800F587
:100B9000867000F001FC109A1199179800F5A0706A
:100BA0006B461A6042F2F872C2F20002072300F0AC
:100BB000F3FA1798D83000F0FDFB179800F586700F
:100BC00000F0F8FB179800F5A07000F0F3FB179801
:100BD00000F5BA70B2EE000A8DED080ADFED7A0A70
:100BE000CDED0A0A9FED791A8DED0B1A07F06CFE18
:100BF000179800F5BA709FED760A8DED090ADFEDC2
:100C0000750ACDED0C0A07F0A3FE9DED080ADDED97
:100C10000A0A9DED0B1A179800F5DA7007F054FEDA
:100C20009DED090ADDED0C0A179800F5DA7007F062
:100C30008FFEDDED0A0A9DED0B1A179800F5FA708C
:100C4000B7EE000A07F040FEDDED0C0A179800F53C
:100C5000FA709FED610A07F07BFE1699179800F570
:100C60000D7041F20042C4F2020215924FF480531B
:100C70000F9305F08DFB0D9B1099179800F51970D7
:100C800041F20002C4F20202129205F081FB1199B6
:100C9000179800F5257040F60042C4F202024FF4A6
:100CA000007305F075FB139B1499179800F53170CC
:100CB0000022C4F202020E9205F06AFB179800F5BA
:100CC0000D7005F053FB179800F5197005F04EFBF9
:100CD000179800F5257005F049FB179800F531705D
:100CE00005F044FB0E9A1699179800F53D704FF4E5
:100CF000004307F093FE1099129A179800F542707E
:100D0000102307F08BFE179800F53D7007F07AFE70
:100D1000179800F5427007F075FE0F9B169917980B
:100D200000F5487040F60002C4F2020205F096FB9E
:100D30001099119B179800F54B7041F60002C4F210
:100D4000020205F08BFB1199129A139B179800F57C
:100D50004E7005F083FB1499159A179800F55170A1
:100D60004FF4804305F07AFB1599169A179800F511
:100D700054706B461A6042F2D863C2F200034022FC
:100D8000FFF7C4FC179800F559700DF0CDF91798CE
:100D900000F559700DF0A6F9179800F5FA6005F006
:100DA000CFF81698179981F81C03179981F81D033D
:100DB000179981F81E03179981F82808179981F867
:100DC0002908FFE718B080BDCDCCCC3DCDCC4C3D43
:100DD00000007AC400007A440000000080B582B0B0
:100DE0000190019808B9FFE726E00199012081F8F8
:100DF0002908019981F82808019806F0ADFB0198AF
:100E0000243006F0A9FB0198483006F0A5FB0198B4
:100E10006C3006F0A1FB0198903006F09DFB019824
:100E2000B43006F099FB019800F554704FF4FA6164
:100E30006422FFF7AFFBFFE702B080BD80B542F24E
:100E40004C10C2F2000000F0DBFB80BD82B00190CC
:100E50000198007810384AF6AB21CAF6AA21A0FB07
:100E6000011000090090009942F66E10C0F60100D2
:100E7000405C0199C8650098042807D3FFE70199F1
:100E80000868042262F30900886506E00199086891
:100E900040F2FF3290438865FFE70198806D02B011
:100EA0007047000086B0059000208DF8130005986B
:100EB000806A03900598806910BBFFE70398029051
:100EC00003281BD80299DFE801F0020D02180598EB
:100ED00090F82F00C00720B1FFE701208DF8130024
:100EE000FFE70CE00598C06AB0F1C07F04D1FFE7CE
:100EF00001208DF81300FFE701E000E0FFE745E087
:100F000005988069B0F5005F25D1FFE7039801904F
:100F100003281ED80199DFE801F002060211012022
:100F20008DF8130016E0059890F82F00C00720B147
:100F3000FFE701208DF81300FFE70BE00598C06A7A
:100F4000B0F1C07F04D1FFE701208DF81300FFE767
:100F500000E0FFE719E003980090032804D3FFE7BF
:100F60000098032804D00EE001208DF813000BE058
:100F7000059890F82F00C00720B1FFE701208DF8F9
:100F80001300FFE700E0FFE7FFE7FFE79DF813002E
:100F900006B0704784B003900291019200930398C9
:100FA0000168086820F480200860009803990968A7
:100FB000486003988068402809D1FFE701980399A9
:100FC00009688860029803990968C86008E0029877
:100FD000039909688860019803990968C860FFE768
:100FE00004B070477047000080B54FF4806000F097
:100FF00023FE4FF4006000F01FFE4FF4805000F01D
:101000001BFE4FF4004000F017FE80BD80B50420A9
:1010100000F012FE80BD000080B5082000F00CFE3C
:1010200080BD000080B5102000F006FE80BD0000ED
:1010300080B5202000F000FE402000F0FDFD802063
:1010400000F0FAFD4FF4007000F0F6FD80BD0000E6
:1010500080B584B00290029818B9FFE70020039091
:101060001FE00298008D012817DBFFE7029800F0CF
:101070001FF801909DED010AB8EEC00A0298018D9B
:1010800001EE101AB8EE411A80EE010A9FED071A20
:1010900020EE010A80ED080AFFE70298006A03903B
:1010A000FFE79DED030A04B080BD00BFDB0FC94020
:1010B00084B00290029820B1FFE70298406818B906
:1010C000FFE70020039043E0029840680068406A10
:1010D000ADF80600029800780090BDF90600009A6D
:1010E00040F26811C2F2000131F91210401AB0F555
:1010F000004F05DDFFE7029948690138486113E0B8
:10110000BDF90600009A40F26811C2F2000131F9FF
:101110001210401A10F5004F05DAFFE702994869EE
:1011200001304861FFE7FFE7BDF80600009A40F292
:101130006811C2F2000121F81200BDF906000299FF
:101140004A6900EB02408860029880680390FFE7DC
:10115000039804B07047000082B00090009818B95E
:10116000FFE70020019003E0009880690190FFE70D
:101170009DED010A02B0704782B00090009818B946
:10118000FFE70020019003E00098C0690190FFE7AD
:101190009DED010A02B0704780B585B0844607987E
:1011A000CDF810C08DF80F100292ADF80630ADF8F2
:1011B0000400049808B9FFE726E09DF80F000499A1
:1011C0000870029804994860049900200090886093
:1011D0000499C86004990861049948610499886178
:1011E0000499C8610499086204994862BDF8061020
:1011F000049A1185BDF80410049A51850499C862B7
:10120000049981F83000FFE705B080BD80B588B053
:101210000790079850B1FFE7079890F83000C00793
:1012200020B1FFE70798406808B9FFE7A6E00798F4
:10123000FFF73EFF0690069847F61801C2F200013C
:101240000860069807990969401A05900698079959
:1012500008610798008D012834DBFFE70798408D6F
:1012600001282FDBFFE70799088D498D484300EEE1
:10127000100AB8EEC00A8DED040A9DED050AB8EE1D
:10128000C00A9FED3F1A20EE010A9DED041A80EE80
:10129000010A8DED030A4CF6CD40C3F64C70029066
:1012A0009DED030A079890ED061A9FED362A21EE70
:1012B000021A9FED352A20EE020A30EE010A80ED77
:1012C000060A03E0079900208861FFE70798007885
:1012D00028B1FFE70798007801282CD1FFE707988D
:1012E000C06A40B3FFE79DED050AB8EEC00A9FED66
:1012F000271A20EE010A079890ED0B1AB8EE411A52
:1013000080EE010A8DED010A4CF6CD40C3F64C602B
:1013100000909DED010A079890ED071A9FED1A2A9B
:1013200021EE021A9FED1A2A20EE020A30EE010A7F
:1013300080ED070A0AE007980078022801D1FFE74C
:1013400003E007990020C861FFE7FFE70798008DD9
:10135000012813DBFFE79DED060AB8EEC00A0798E7
:10136000018D01EE101AB8EE411A80EE010A9FEDD0
:10137000091A20EE010A80ED080AFFE708B080BDD7
:1013800000606A47CCCC4C3ECDCC4C3F00007A4448
:10139000CDCC4C3EDB0FC94082B00190009101984A
:1013A00008B9FFE703E000980199C862FFE702B0BF
:1013B0007047000080B582B00190019820B1FFE72E
:1013C0000198406808B9FFE70DE00199012081F814
:1013D00030000EF00BFB01994862019840683C21F7
:1013E00003F058FAFFE702B080BD000072B6FFE7D5
:1013F000FEE7000080B584B047F61020C1F6FF700C
:101400000068039047F61420C1F6FF700068029050
:1014100047F61820C1F6FF70006801900199039803
:1014200008440390039888B1FFE7039840F2D8017D
:10143000C2F2000100910231082204F0D1FF0099AC
:1014400002981231042204F0CBFFFFE704B080BD04
:1014500080B582B00090009820B9FFE701208DF898
:10146000070011E00098407938B9FFE700990020A3
:101470000871009800F00CF8FFE70099012048710E
:1014800000208DF80700FFE79DF8070002B080BD3F
:1014900082B001900198006843F20001C4F2020199
:1014A000884212D1FFE7FFE70020009043F63000AA
:1014B000C4F20200016841F480510160006800F448
:1014C000805000900098FFE7FFE702B070470000EF
:1014D00080B584B002900298806D019000F0D4FD38
:1014E0000090029890F8350002280DD0FFE702998D
:1014F00080204865FFE70299002081F83400FFE76B
:1015000001208DF80F0055E002980168086820F06E
:101510001600086002980168486920F08000486160
:101520000298006C20B9FFE70298806C38B1FFE7A1
:1015300002980168086820F008000860FFE7029838
:101540000168086820F001000860FFE70298006861
:101550000068C007C8B1FFE700F096FD0099401A87
:10156000062811D3FFE7029920204865029903203D
:1015700081F83500FFE70299002081F83400FFE789
:1015800003208DF80F0015E0E0E70298C16D3F20C1
:101590008840019988600299012081F83500FFE7B1
:1015A0000299002081F83400FFE7FFE700208DF862
:1015B0000F00FFE79DF80F0004B080BD82B00090DF
:1015C000009890F83500022807D0FFE700998020A6
:1015D000486501208DF807000EE00099052081F88C
:1015E000350000980168086820F001000860FFE7F6
:1015F00000208DF80700FFE79DF8070002B0704754
:1016000080B586B005900020039040F22000C2F221
:101610000000006848F2B511C1F64E31A0FB011080
:10162000800A02900598806D0190019800680490EE
:1016300004980599C96DC840000700281AD5FFE72E
:101640000598006800684007002812D5FFE7059854
:101650000168086820F0040008600598C16D082042
:101660008840019988600599486D40F001004865FF
:10167000FFE7FFE704980599C96DC840C007A0B10E
:10168000FFE7059800684069000600280CD5FFE7D1
:101690000598C16D01208840019988600599486DC1
:1016A00040F002004865FFE7FFE704980599C96D1F
:1016B000C8404007002814D5FFE705980068006877
:1016C000800700280CD5FFE70598C16D04208840ED
:1016D000019988600599486D40F004004865FFE76E
:1016E000FFE704980599C96DC840C006002847D592
:1016F000FFE7059800680068000700283FD5FFE76E
:101700000598C16D1020884001998860059800688F
:101710000068400300281AD5FFE7059800680068B4
:101720000003002809D4FFE70598006C20B1FFE70B
:101730000598016C8847FFE708E00598806C20B1A8
:10174000FFE70598816C8847FFE7FFE716E00598FB
:1017500000680068C005002807D4FFE70598016805
:10176000086820F008000860FFE70598006C20B1C9
:10177000FFE70598016C8847FFE7FFE7FFE7FFE712
:1017800004980599C96DC8408006002840F18D80F5
:10179000FFE7059800680068C006002840F18480D3
:1017A000FFE70598C16D2020884001998860059861
:1017B00090F83500052834D1FFE7059801680868DE
:1017C00020F01600086005980168486920F0800044
:1017D00048610598006C20B9FFE70598806C38B126
:1017E000FFE705980168086820F008000860FFE737
:1017F0000598C16D3F2088400199886005990120B6
:1018000081F83500FFE70599002081F83400FFE7F3
:101810000598006D20B1FFE70598016D8847FFE747
:101820007BE0059800680068400300281AD5FFE7B0
:101830000598006800680003002809D4FFE70598B0
:10184000406C20B1FFE70598416C8847FFE708E04E
:101850000598C06B20B1FFE70598C16B8847FFE78B
:10186000FFE720E0059800680068C005002811D453
:10187000FFE705980168086820F0100008600599E6
:10188000012081F83500FFE70599002081F8340038
:10189000FFE7FFE70598C06B20B1FFE70598C16B34
:1018A0008847FFE7FFE7FFE7FFE70598406DA0B334
:1018B000FFE70598406DC00730B3FFE705990520A5
:1018C00081F8350005980168086820F0010008607B
:1018D000FFE70398013003900299884201D9FFE79E
:1018E00007E0FFE7059800680068C0070028F0D10E
:1018F000FFE70599012081F83500FFE705990020F1
:1019000081F83400FFE7FFE70598C06C20B1FFE7DE
:101910000598C16C8847FFE7FFE706B080BD00006F
:1019200080B586B004900020039000F0ADFB0290DB
:10193000049820B9FFE701208DF81700A3E0049870
:10194000406A08B1FFE7FFE70499022081F83500FB
:10195000FFE70499002081F83400FFE7049801684C
:10196000086820F001000860FFE70498006800683C
:10197000C00790B1FFE700F087FB0299401A0628E4
:101980000AD3FFE70499202048650499032081F8D1
:1019900035008DF8170076E0E7E7049800680068E6
:1019A0000390039848F23F01CFF2100108400390E2
:1019B000049900914868D1F808C0CB680A6940EAE8
:1019C0000C00184310434A6910438A691043CA69DE
:1019D0001043096A01430398084303900498406A3E
:1019E000042808D1FFE70499C86A096B01430398EA
:1019F00008430390FFE70398049909680860049876
:101A0000006840690390039820F007000390049851
:101A1000416A0398084303900498406A04281AD145
:101A2000FFE70498816A0398084303900498C06A0A
:101A300080B1FFE70498FFF735FA50B1FFE704994A
:101A4000402048650499012081F835008DF8170081
:101A500019E0FFE7FFE703980499096848610498D3
:101A6000FFF7F4F901900498C16D3F208840019977
:101A70008860049900204865049A012182F8351095
:101A80008DF81700FFE79DF8170006B080BD000035
:101A900080B588B0069005910492039300208DF8DC
:101AA0000B000698806D0190FFE7069890F83400CF
:101AB000012804D1FFE702208DF81F0045E00699B8
:101AC000012081F83400FFE7FFE7069890F8350021
:101AD00001282BD1FFE70699022081F835000699ED
:101AE0000020486506980599049A039BFFF752FA6F
:101AF0000698C16D3F20884001998860069801686A
:101B0000086840F0160008600698006C38B1FFE7DE
:101B100006980168086840F008000860FFE706982A
:101B20000168086840F00100086009E0FFE70699D5
:101B3000002081F83400FFE702208DF80B00FFE75A
:101B40009DF80B008DF81F00FFE79DF81F0008B0FF
:101B500080BD000080B584B0039000F095FA02903B
:101B6000039801900198013048B1FFE740F2F80076
:101B7000C2F200000178019808440190FFE7FFE7F6
:101B800000F082FA0299401A0199884201D2FFE7D7
:101B9000F6E704B080BD000080B582B0ADF8060065
:101BA000BDF806000146009104282ED0FFE70098FA
:101BB000082822D0FFE7009810282ED0FFE70098D1
:101BC000202833D0FFE70098402829D0FFE700986D
:101BD000802828D0FFE70098B0F5007F10D0FFE7FD
:101BE0000098B0F5805F05D0FFE70098B0F5004F92
:101BF00010D01EE007F006FB1CE007F061FB19E0C7
:101C000007F042FA07F068FC14E007F09DFA07F0CD
:101C1000A3FC0FE007F0B2FB0CE007F0E7FB09E0E4
:101C200007F0EEF906E007F00DFA03E007F016FC06
:101C300000E0FFE702B080BD80B582B0ADF80600DD
:101C400043F61440C4F201000068BDF806100842D3
:101C50000CD0FFE7BDF8060043F61441C4F20101C1
:101C60000860BDF80600FFF797FFFFE702B080BDF0
:101C70008EB00D900C9100200A90099008900B9066
:101C8000FFE70B980F2800F2CC81FFE70B990120AA
:101C900088400A900C9800680A99084009900998B1
:101CA0000A99884240F0B881FFE70C98406800F03C
:101CB0000300012807D0FFE70C98406800F00300FC
:101CC00002282FD1FFE70D98806808900B984100FB
:101CD000032000FA01F10898884308900C98C06826
:101CE0000B99490000FA01F10898084308900898F8
:101CF0000D9988600D98406808900B99012000FAB2
:101D000001F10898884308900C984068C0F30010CF
:101D10000B9900FA01F108980843089008980D996A
:101D20004860FFE70C98406800F00300032818D0D3
:101D3000FFE70D98C06808900B984100032000FA57
:101D400001F10898884308900C9880680B99490025
:101D500000FA01F108980843089008980D99C860A6
:101D6000FFE70C98406800F00300022826D1FFE747
:101D70000D980B996FF0030202EA51010844006AC2
:101D800008900B9800F0070081000F2000FA01F185
:101D90000898884308900C9800690B9901F0070196
:101DA000890000FA01F108980843089008980D99F5
:101DB0000B9B02EA530211440862FFE70D9800688A
:101DC00008900B984100032000FA01F1089888431D
:101DD00008900C98406800F003000B99490000FA45
:101DE00001F108980843089008980D9908600C982C
:101DF00080798007002800F00E81FFE7FFE70020D0
:101E0000079043F64400C4F20200016841F48041A7
:101E10000160006800F4804007900798FFE70B9886
:101E200020F0030043F60801C4F201014058089075
:101E30000B9800F0030081000F2000FA01F10898D0
:101E4000884308900D980021C4F20201884203D112
:101E5000FFE7002006905EE00D9840F20041C4F2DA
:101E60000201884203D1FFE70120059050E00D9860
:101E700040F60001C4F20201884203D1FFE70220CC
:101E8000049042E00D9840F60041C4F202018842FD
:101E900003D1FFE70320039034E00D9841F20001E5
:101EA000C4F20201884203D1FFE70420029026E039
:101EB0000D9841F20041C4F20201884203D1FFE7CC
:101EC0000520019018E00D9841F60001C4F20201CE
:101ED000884203D1FFE7062000900AE00D9941F601
:101EE0000042C4F202020820914208BF072000907D
:101EF000FFE700980190FFE701980290FFE7029842
:101F00000390FFE703980490FFE704980590FFE72C
:101F100005980690FFE70698C0B20B9901F00301FF
:101F2000890000FA01F108980843089008980B9975
:101F300021F0030143F60802C4F20102885043F67F
:101F40000840C4F201000068089009990898884385
:101F500008900C988079C006002805D5FFE70999FC
:101F6000089808430890FFE7089843F60841C4F230
:101F70000101086043F60C40C4F2010000680890BB
:101F800009990898884308900C9880798006002861
:101F900005D5FFE70999089808430890FFE70898D6
:101FA00043F60C41C4F20101086043F60440C4F258
:101FB00001000068089009990898884308900C98D7
:101FC00080798007002805D5FFE70999089808431C
:101FD0000890FFE7089843F60441C4F20101086045
:101FE00043F60040C4F2010000680890099908987F
:101FF000884308900C988079C00728B1FFE70999B9
:10200000089808430890FFE7089843F60041C4F297
:1020100001010860FFE7FFE7FFE70B9801300B9035
:102020002FE60EB07047000082B00190ADF80210AC
:1020300001980069BDF80210084204D0FFE70120B2
:102040008DF8010003E000208DF80100FFE79DF806
:10205000010002B07047000082B00190ADF802109C
:102060008DF801209DF8010028B1FFE7BDF80200BE
:102070000199886105E0BDF80200000401998861BA
:10208000FFE702B07047000047F24810C2F20000BC
:102090000068704740F2F800C2F20000027847F290
:1020A0004811C2F20001086810440860704700003F
:1020B00080B543F60041C4F20201086840F40070A4
:1020C0000860086840F480600860086840F4807028
:1020D0000860032000F0D0F80F2000F005F800F0B1
:1020E0007BF8002080BD000080B58CB00B900020F4
:1020F00004900390FFE70020009043F64000C4F2F4
:102100000200016841F010010160006800F0100059
:1021100000900098FFE706A802A901F075FB099856
:102120000490049820B9FFE701F09EFB059004E0BD
:1021300001F09AFB40000590FFE705984DF683619A
:10214000C4F21B31A0FB01014FF0FF3000EB9140C6
:10215000039042F64000C2F2000041F20001C4F2D6
:102160000001016040F2E731C16003994160002144
:1021700001618160816102F009F88DF807009DF826
:10218000070028BBFFE742F64000C2F2000002F061
:10219000C9F88DF807009DF80700C0B9FFE73620A1
:1021A00000F046F80B980F280CD8FFE70B99362063
:1021B000002200F047F80B9840F2FC01C2F2000147
:1021C000086003E001208DF80700FFE7FFE7FFE765
:1021D0009DF807000CB080BD80B582B0FFE70020FD
:1021E000019043F64400C4F20200016841F48041CA
:1021F0000160006800F4804001900198FFE7FFE76C
:102200000020009043F64000C4F20200016841F053
:1022100080510160006800F0805000900098FFE756
:102220006FF001000F21002200F00CF802B080BD19
:1022300080B582B08DF807009DF907000DF0AEFA69
:1022400002B080BD80B586B08DF81700049103926E
:10225000002002900DF0BAFA02909DF9170001904B
:1022600002980499039A06F02BF8014601980DF0A4
:10227000B5FA06B080BD000080B582B0019001982B
:102280000DF0F0FA02B080BD82B001908DF803101D
:1022900002B0704782B00190ADF80210BDF80200A4
:1022A000019909684862002002B0704784B0039029
:1022B0008DF80B10ADF8082003980068406A009074
:1022C0009DF80B0048B9FFE7BDF80810009840EAF8
:1022D000014003990968886233E003980068816AC5
:1022E000009800EB1140009000208DF80700FFE7F8
:1022F0009DF807009DF80B100139884213D2FFE7C3
:10230000039800689DF8071000EB8100D0F80411D5
:10231000009800EB11400090FFE79DF807000130A6
:102320008DF80700E4E7BDF80810009840EA014086
:10233000039909689DF80B2001EB8201C1F80001A7
:10234000FFE7002004B0704780B582B0019001988B
:10235000D0F8E0040AF0F6FE02B080BD80B582B08D
:1023600001908DF80310019AD2F8E0049DF8031053
:1023700001EBC10302EB8302126A0AF037FD02B0DF
:1023800080BD000080B582B001908DF80310019AE5
:10239000D2F8E0049DF8031001EBC10302EB8302C5
:1023A000D2F860220AF0F0FD02B080BD80B582B0A4
:1023B00001900198D0F8E0040AF0CAFE02B080BD96
:1023C00080B584B003908DF80B109DF80B000006CB
:1023D00000280CD5FFE703989DF80B1001F00F01C2
:1023E00001EBC10100EB8100143001900CE0039877
:1023F0009DF80B1001F00F0101EBC10100EB810012
:1024000000F515700190FFE70398006801990CF042
:10241000FBFD8DF80A009DF80A0004B080BD0000A5
:1024200080B584B002908DF807109DF80700000673
:1024300000280FD5FFE702989DF8071001F00F0163
:1024400001EBC10100EB81001430009000990120E4
:1024500048700FE002989DF8071001F00F0101EBA2
:10246000C10100EB810000F515700090009900207B
:102470004870FFE79DF8070000F00F000099087012
:10248000FFE7029890F89404012804D1FFE70220A6
:102490008DF80F0014E00299012081F89404FFE701
:1024A000FFE70298006800990CF09EF8FFE7029998
:1024B000002081F89404FFE700208DF80F00FFE76B
:1024C0009DF80F0004B080BD80B584B002908DF8F7
:1024D00007109DF8070000F00F0002990979884263
:1024E00004D9FFE701208DF80F004DE09DF80700AB
:1024F000000600280FD5FFE702989DF8071001F0AD
:102500000F0101EBC10100EB810014300090009934
:10251000012048700FE002989DF8071001F00F01AC
:1025200001EBC10100EB810000F5157000900099EE
:1025300000204870FFE70099002088709DF8070090
:1025400000F00F0000990870FFE7029890F89404DB
:10255000012804D1FFE702208DF80F0014E0029952
:10256000012081F89404FFE7FFE7029800680099D2
:102570000CF0AAFAFFE70299002081F89404FFE723
:1025800000208DF80F00FFE79DF80F0004B080BD1C
:1025900082B001908DF8031001989DF8031001F0AE
:1025A0000F0101EBC10100EB8100D0F8680202B01D
:1025B0007047000080B586B004908DF80F10ADF81C
:1025C0000C208DF80B3000208DF80A009DF80F00CC
:1025D000000600280FD5FFE704989DF80F1001F0C2
:1025E0000F0101EBC10100EB810014300190019952
:1025F000012048700FE004989DF80F1001F00F01C2
:1026000001EBC10100EB810000F51570019001990B
:1026100000204870FFE79DF80F0000F00F000199BF
:102620000870BDF80C006FF3DF20019988609DF8F9
:102630000B00019908710198407820B1FFE70199DA
:1026400008784883FFE79DF80B00022804D1FFE7D4
:10265000019900204871FFE7FFE7049890F894047F
:10266000012804D1FFE702208DF8170015E0049936
:10267000012081F89404FFE7FFE7049800680199BE
:102680000BF0AAFCFFE70499002081F89404FFE70F
:102690009DF80A008DF81700FFE79DF8170006B0B7
:1026A00080BD000080B586B005908DF813100392B0
:1026B000029305989DF8131001F00F0101EBC10181
:1026C00000EB810000F51570019003980199C86036
:1026D00002980199086101990020486101994870A8
:1026E0009DF8130000F00F0001990870059880799B
:1026F000012804D1FFE703980199C861FFE7059A13
:102700001068019992790CF083FA002006B080BD20
:1027100080B584B002908DF807109DF8070000F096
:102720000F0002990979884204D9FFE701208DF84A
:102730000F0058E09DF80700000600280FD5FFE7BE
:1027400002989DF8071001F00F0101EBC10100EBA9
:102750008100143000900099012048700DE002982B
:102760009DF8071001EBC10100EB810000F5157029
:102770000090009900204870FFE7009901208870C0
:102780009DF8070000F00F0000990870FFE702981D
:1027900090F89404012804D1FFE702208DF80F007F
:1027A00021E00299012081F89404FFE7FFE70298F5
:1027B000006800990CF0D8F99DF80700000740B9AF
:1027C000FFE7029A1068917902F29C420CF02CF912
:1027D000FFE7FFE70299002081F89404FFE700205B
:1027E0008DF80F00FFE79DF80F0004B080BD0000DA
:1027F00080B586B005908DF813100392029305986A
:102800009DF8131001F00F0101EBC10100EB8100F5
:102810001430019003980199C860029801990861E9
:102820000199002048610199012048709DF813002A
:1028300000F00F000199087005988079012804D1F3
:10284000FFE703980199C861FFE7059A10680199AD
:1028500092790CF0DDF9002006B080BD80B58CB017
:102860000B900B9800680A900A9809900B980068E2
:102870000CF000FD002840F00C84FFE70B98006886
:102880000CF064FD10B9FFE700F003BC0998D0F824
:102890000808C0F30D200B99C1F8D4040B98006808
:1028A0000CF054FD8007002807D5FFE70B9801685E
:1028B000486900F002004861FFE70B9800680CF0DF
:1028C00045FDC006002862D5FFE70B9801688869BE
:1028D00020F0100088610A98006A02900B98029913
:1028E00001F00F0101EBC10100EB810000F5157053
:1028F0000890029800F4F0110220B0EB514F23D160
:10290000FFE7BDF8080047F6F07108421BD0FFE76B
:102910000A980899C968029AC2F30A120CF024FDB9
:10292000029847F6F07100EA0103089AD06800EBBC
:102930001310D060029800EA01020899486900EB80
:1029400012104861FFE71BE0029800F4F011062026
:10295000B0EB514F12D1FFE70A980B9901F29C415D
:1029600008220CF001FD029847F6F07100EA01021E
:102970000899486900EB1210486100E0FFE7FFE7A3
:102980000B980168886940F010008861FFE70B9898
:1029900000680CF0DBFC0003002840F1A680FFE794
:1029A000002004900B9800680CF07EFC0690FFE776
:1029B0000698002800F09880FFE79DF81800C007EF
:1029C000002800F08A80FFE70B9800689DF810103F
:1029D0000CF0A4FC05909DF81400C00760B1FFE75F
:1029E0000998049900EB41110120C1F8080B0B98DC
:1029F000049905F0E9FCFFE79DF8140000070028A2
:102A00000CD5FFE70998049900EB41110820C1F8A3
:102A1000080B0B98049905F091FCFFE79DF8140052
:102A2000C006002808D5FFE70998049900EB41117A
:102A30001020C1F8080BFFE79DF81400800700285C
:102A40002DD5FFE70A9840690006002808D5FFE762
:102A50000999D1F8040840F48060C1F80408FFE740
:102A60000B98049901EBC10100EB810000F5157092
:102A700008900898C078012809D1FFE7089900203C
:102A8000C8700B989DF8101000F014FBFFE7099830
:102A9000049900EB41110220C1F8080BFFE79DF8F3
:102AA00014008006002808D5FFE70998049900EB78
:102AB00041112020C1F8080BFFE79DF815008006A2
:102AC000002809D5FFE70998049900EB41114FF45C
:102AD0000050C1F8080BFFE7FFE7049801300490AD
:102AE00006984008069063E7FFE70B9800680CF033
:102AF0002DFC4003002840F1C680FFE70B980068DA
:102B00000CF0C0FB069000200490FFE70698002818
:102B100000F0B880FFE79DF81800C007002800F01B
:102B2000AA80FFE70B9800689DF810100CF0CEFB10
:102B300005909DF81400C00700283ED0FFE70498D8
:102B400000F00F01012000FA01F10391039B099AA3
:102B5000D2F834189943C2F834180999049A01EB51
:102B60004211C1F808090B98807901281FD1FFE7AD
:102B70000B98049901EBC10100EB8101CA69086A55
:102B800010440862049888B9FFE70B98049901EB98
:102B9000C10100EB8100406A40B9FFE70B9908686A
:102BA00001F29C4201210BF03FFFFFE7FFE70B988A
:102BB0009DF81010FFF7D2FBFFE79DF81400000707
:102BC000002808D5FFE70998049900EB4111082077
:102BD000C1F80809FFE79DF81400C006002808D5D1
:102BE000FFE70998049900EB41111020C1F808098A
:102BF000FFE79DF814004006002808D5FFE7099874
:102C0000049900EB41114020C1F80809FFE79DF845
:102C100014008007002822D5FFE70A9804990CF0D9
:102C2000C5FA0B98049901EBC10100EB8100143047
:102C300008900898C078012809D1FFE7089900207A
:102C4000C8700B989DF8101000F026FAFFE709985D
:102C5000049900EB41110220C1F80809FFE79DF833
:102C600014000006002805D5FFE70B98049905F02D
:102C70008FFCFFE7FFE704980130049006984008B6
:102C8000069043E7FFE70B9800680CF05FFBC00F6E
:102C900000B3FFE70999D1F8040820F00100C1F85A
:102CA00004080B9890F8CC04012808D1FFE70B9892
:102CB000002180F8CC140B98FFF7E6FA03E00B989C
:102CC00000F0C4FBFFE70B980168486900F0004082
:102CD0004861FFE70B9800680CF038FB00050028FE
:102CE00011D5FFE70998D0F80808C00720B1FFE721
:102CF0000B9800F037FCFFE70B980168486900F477
:102D000000604861FFE70B9800680CF01FFBC004EF
:102D1000002840F18680FFE70999D1F8040820F0E7
:102D20000100C1F804080B98006810210CF03EFA6D
:102D300000200790FFE707980B990979884231D264
:102D4000FFE70998079900EB41114FF67F30C1F872
:102D500008090999079A01EB4212D2F8001921F4E7
:102D60000011C2F800190999079A01EB4211C1F844
:102D7000080B0998079900EB4111D1F8000B20F4DA
:102D80000010C1F8000B0998079900EB4111D1F828
:102D9000000B40F00060C1F8000BFFE7079801301E
:102DA0000790C8E70999D1F81C0840F00110C1F854
:102DB0001C080B98C07B78B1FFE70999D1F884080B
:102DC00040F00B00C1F884080999D1F8440840F09C
:102DD0000B00C1F844080FE00999D1F8140842F239
:102DE0002B021043C1F814080999D1F8100840F0DB
:102DF0000B00C1F81008FFE70999D1F8000820F48A
:102E0000FE60C1F800080B9A1068917902F29C42AA
:102E10000BF00AFE0B980168486900F48050486185
:102E2000FFE70B9800680CF091FA800400281FD58A
:102E3000FFE70B9800680BF03FF90B9800680CF067
:102E4000F3F90B99C8710B980068019000F006FD2A
:102E5000014601980B9AD2790CF07EFB0B9800F09A
:102E6000CBFA0B980168486900F400504861FFE70D
:102E70000B9800680CF06AFA000700280AD5FFE7F3
:102E80000B9800F0EDFA0B980168486900F0080013
:102E90004861FFE70B9800680CF058FA000600281C
:102EA00025D5FFE70A99886920F080008861012014
:102EB0000490FFE704980B990979884216D2FFE73E
:102EC0000B98049901EBC10100EB810090F85702C7
:102ED000012806D1FFE70B989DF81010FFF770FA54
:102EE000FFE7FFE7049801300490E3E7FFE70B9862
:102EF00000680CF02BFAC00200283CD5FFE7012047
:102F00000490FFE704980B99097988422CD2FFE7D7
:102F10000998049900EB4110D0F8000902900B9831
:102F2000049901EBC10100EB8100007E012816D15C
:102F3000FFE79DF80B000006002810D5FFE70B986F
:102F4000049901EBC10100EB81010120C8750B98C8
:102F50009DF8101041F08001FFF732FAFFE7FFE71C
:102F6000049801300490CDE70B980168486900F49B
:102F700080104861FFE70B9800680CF0E7F98002C9
:102F8000002856D5FFE701200490FFE704980B992D
:102F90000979884246D2FFE70998049900EB41106D
:102FA000D0F8000B02900B98049901EBC10100EBE3
:102FB000810090F8580201282FD1FFE79DF80B00FF
:102FC0000006002829D5FFE7029800F480310B980D
:102FD000D0F8D40400F00100B0EB114F1DD1FFE791
:102FE0000B98049901EBC10100EB8101012081F8EC
:102FF00057020A99886940F0800088610A98406900
:103000000006002808D4FFE70999D1F8040840F425
:103010000070C1F8040805E0FFE7FFE704980130FD
:103020000490B3E70B980168486900F40010486108
:10303000FFE70B9800680CF089F9400000280AD5DA
:10304000FFE70B98FFF780F90B980168486900F0DB
:1030500080404861FFE70B9800680CF077F9400763
:10306000002815D5FFE70B980068406802909DF88E
:1030700008004007002804D5FFE70B98FFF796F9F2
:10308000FFE7029A0B980168486810434860FFE721
:10309000FFE70CB080BD000080B582B001908DF8D4
:1030A00003100198D0F8E0049DF803100AF0ECF842
:1030B00002B080BD80B582B001908DF803100198F8
:1030C000D0F8E0049DF803100AF016F902B080BDB4
:1030D00080B58EB00C900C9820B9FFE701208DF8D8
:1030E000370012E10C9800680B900C9890F895044A
:1030F00040B9FFE70C99002081F894040C9800F087
:1031000009F9FFE70C99032081F895040B98B0F1B9
:10311000A04F04D1FFE70C9900208871FFE70C98BD
:1031200000680BF077FC0C9B1868197C8DF8241054
:1031300059689A68DB680893079206910699079A7E
:10314000089BDDF824C0EE46CEF800C00BF09CF9D9
:1031500040B1FFE70C99022081F8950401208DF819
:103160003700D2E00C98006800210CF057F940B10C
:10317000FFE70C99022081F8950401208DF83700B3
:10318000C3E000208DF82B00FFE79DF82B000C9981
:103190000979884241DAFFE70C989DF82B1001EB82
:1031A000C10100EB8101012048759DF82B000C99AD
:1031B00000EBC00201EB820108759DF82B000C9911
:1031C00000EBC00201EB8201C8850C989DF82B1022
:1031D00001EBC10100EB8101002008760C999DF8FC
:1031E0002B2002EBC20201EB8201C8610C999DF811
:1031F0002B2002EBC20201EB820108620C999DF8C0
:103200002B2002EBC20201EB82014862FFE79DF82E
:103210002B0001308DF82B00B7E700208DF82B0034
:10322000FFE79DF82B000C99097988423EDAFFE709
:103230000C989DF82B1001EBC10100EB81010020DF
:1032400081F855029DF82B100C9A01EBC10302EB9B
:10325000830282F854120C999DF82B2002EBC202D3
:1032600001EB820181F858020C999DF82B2002EBAA
:10327000C20201EB8201C1F85C020C999DF82B207F
:1032800002EBC20201EB8201C1F860020C999DF8C9
:103290002B2002EBC20201EB8201C1F86402FFE7BE
:1032A0009DF82B0001308DF82B00BAE70C9B1868B5
:1032B000197C8DF8141059689A68DB68049303929E
:1032C00002910299039A049BDDF814C0EE46CEF8F1
:1032D00000C00BF051FA40B1FFE70C99022081F8D1
:1032E000950401208DF837000FE00C990020019023
:1032F00048740C99012081F895040C9800680BF033
:1033000025FA01988DF83700FFE79DF837000EB0D9
:1033100080BD000080B58EB00D9000200C900B9009
:103320000A90099008900D980068B0F1A04F60D104
:10333000FFE7FFE70020079043F63000C4F20200E9
:10334000016841F001010160006800F00100079090
:103350000798FFE74FF40060089002200190099061
:1033600000200A90032002900B900A2003900C90FA
:103370000020C4F20200049008A90591FEF778FC31
:10338000DDF804C0029B039A049805994FF4805E0F
:10339000CDF820E0CDF824C04FF0010CCDF828C0C6
:1033A0000B930C92FEF764FCFFE743F63401C4F282
:1033B0000201086840F080000860FFE700200690E6
:1033C00043F64400C4F20200016841F48041016008
:1033D000006800F4804006900698FFE7FFE743206E
:1033E000009005210022FEF72DFF0098FEF720FF38
:1033F000FFE70EB080BD000080B582B001900120D3
:103400008DF803000198C07920B9FFE700208DF8FE
:1034100003000CE00198C079022804D1FFE70120E5
:103420008DF8030002E0FDF7E1FFFFE7FFE70198F9
:10343000D0F8E0049DF803100AF060F80198D0F885
:10344000E00409F0D9FF02B080BD000080B582B071
:1034500001900198D0F8E0040AF01EF802B080BD97
:1034600080B582B001900198D0F8E0040AF026F807
:1034700002B080BD80B584B002908DF80710FFE7E0
:10348000029890F89404012804D1FFE702208DF8F7
:103490000F0019E00299012081F89404FFE7FFE78B
:1034A0009DF8070002994874029800689DF807107B
:1034B0000CF024F8FFE70299002081F89404FFE75C
:1034C00000208DF80F00FFE79DF80F0004B080BDCD
:1034D00080B582B001900199D1F8E00401F29C41DD
:1034E0000AF036F802B080BD80B584B00290029830
:1034F00000680190FFE7029890F89404012804D135
:10350000FFE702208DF80F0028E00299012081F8E2
:103510009404FFE7FFE70198C068400600280BD538
:10352000FFE70298407B012806D1FFE70199886BED
:1035300040F480308863FFE7029800680BF0F2FDEA
:10354000029800680BF0ECF8FFE70299002081F880
:103550009404FFE700208DF80F00FFE79DF80F00AF
:1035600004B080BD80B582B001900198D0F8E0042D
:103570000AF070F801980168D1F8000E40F00100DF
:10358000C1F8000E0198C07A48B1FFE74EF610511D
:10359000CEF20001086840F006000860FFE702B0C4
:1035A00080BD000080B584B002900191029820B9DE
:1035B000FFE701208DF80F0021E1019843F600415B
:1035C000C4F20201096801F00701884212D9FFE73D
:1035D000019943F60040C4F202000170006800F057
:1035E00007000199884204D0FFE701208DF80F0001
:1035F00005E1FFE702980078800700282AD5FFE759
:10360000029800784007002809D5FFE743F6080133
:10361000C4F20201086840F4E0500860FFE7029835
:1036200000780007002809D5FFE743F60801C4F237
:103630000201086840F460400860FFE743F60801B3
:10364000C4F20201086820F0F000029A9268104368
:103650000860FFE702980078C00700286ED0FFE7F7
:1036600002984068012811D1FFE743F60000C4F238
:103670000200006800F400310020B0EB514F04D18B
:10368000FFE701208DF80F00B9E02CE002984068B8
:10369000022805D0FFE702984068032811D1FFE710
:1036A00043F60000C4F20200006800F00071002040
:1036B000B0EB516F04D1FFE701208DF80F009EE0C1
:1036C00010E043F60000C4F20200006800F00201BE
:1036D0000020B0EB510F04D1FFE701208DF80F005F
:1036E0008DE0FFE7FFE743F60801C4F20201086836
:1036F00020F00300029A526810430860FEF7C4FCF1
:103700000090FFE743F60800C4F20200006800F0F2
:103710000C0002994968B0EB810F0ED0FFE7FEF76D
:10372000B3FC0099401A41F28931884204D3FFE783
:1037300003208DF80F0062E0E4E7FFE7019843F60D
:103740000041C4F20201096801F00701884212D267
:10375000FFE7019943F60040C4F2020001700068DF
:1037600000F007000199884204D0FFE701208DF89E
:103770000F0044E0FFE702980078400700280CD5CE
:10378000FFE743F60801C4F20201086820F4E050A4
:10379000029AD26810430860FFE702980078000799
:1037A00000280DD5FFE743F60801C4F202010868BE
:1037B00020F46040029A126940EAC2000860FFE704
:1037C00000F076F843F60801C4F202010968C9B2B4
:1037D0000A0942F65611C0F60101895CC84040F260
:1037E0002001C2F20001086040F2FC00C2F20000B9
:1037F0000068FEF779FC00208DF80F00FFE79DF8C8
:103800000F0004B080BD000082B0019000910199CA
:103810000F20086043F60800C4F20200016801F0BE
:103820000301019A5160016801F0F001019A916071
:10383000016801F4E051019AD160006800F4604031
:10384000C0080199086143F60040C4F20200006814
:1038500000F007000099086002B0704740F22000B5
:10386000C2F200000068704780B5FFF7F7FF43F62B
:103870000801C4F202010968C1F3822242F666110E
:10388000C0F60101895CC84080BD000080B5FFF72B
:10389000E5FF43F60801C4F20201096889B24A0B48
:1038A00042F66611C0F60101895CC84080BD000087
:1038B00080B586B00020059004900390029043F6F6
:1038C0000800C4F20200006800F00C0001460191FB
:1038D00040B1FFE7019804280AD0FFE701980828C3
:1038E0000CD04FE042F20040C0F2F40002904FE0F2
:1038F0004BF68020C0F28C10029049E043F60400A1
:10390000C4F20200016801F03F0105910068400225
:10391000002813D5FFE743F60400C4F20200006854
:10392000C0F388104BF68021C0F28C11A0FB01017E
:10393000059A0023FCF7AEFC049012E043F6040065
:10394000C4F202000068C0F3881042F20041C0F2E5
:10395000F401A0FB0101059A0023FCF79BFC0490F5
:10396000FFE743F60400C4F20200006800F44031AF
:10397000022000EBD130039004980399B0FBF1F0E2
:10398000029005E042F20040C0F2F4000290FFE72E
:10399000029806B080BD000080B586B004900498FF
:1039A00020B9FFE701208DF8170050E30498007854
:1039B000C007002800F0A580FFE743F60800C4F226
:1039C0000200006800F00C00042813D0FFE743F663
:1039D0000800C4F20200006800F00C0008281ED1A4
:1039E000FFE743F60400C4F202000068400200282A
:1039F00015D5FFE743F60000C4F20200006800F4AA
:103A000000310020B0EB514F08D0FFE70498406828
:103A100020B9FFE701208DF8170018E370E0FFE7F9
:103A200004984068B0F5803F09D1FFE743F60001F4
:103A3000C4F20201086840F48030086020E0049875
:103A40004068B0F5A02F0DD1FFE743F60001C4F2A6
:103A50000201086840F480200860086840F4803063
:103A600008600CE043F60001C4F20201086820F48B
:103A700080300860086820F480200860FFE7FFE7D6
:103A8000FFE704984068E8B1FFE7FEF7FDFA03900E
:103A9000FFE743F60000C4F20200006800F40031C2
:103AA0000020B0EB514F0CD1FFE7FEF7EDFA039980
:103AB000401A652804D3FFE703208DF81700C6E2FB
:103AC000E7E71CE0FEF7E0FA0390FFE743F60000AB
:103AD000C4F20200006800F400310020B0EB514F46
:103AE0000CD0FFE7FEF7D0FA0399401A652804D3FB
:103AF000FFE703208DF81700A9E2E7E7FFE7FFE7FC
:103B0000FFE7049800788007002840F19680FFE7DF
:103B100043F60800C4F20200006810F00C0F13D046
:103B2000FFE743F60800C4F20200006800F00C0052
:103B300008282CD1FFE743F60400C4F20200006815
:103B40004002002823D4FFE743F60000C4F202003D
:103B5000006800F002010020B0EB510F09D0FFE730
:103B60000498C068012804D0FFE701208DF81700F1
:103B70006DE243F60001C4F20201086820F0F8008B
:103B8000049A126940EAC2000860FFE754E0049812
:103B9000C06870B3FFE70021C4F24721012008602C
:103BA000FEF772FA0390FFE743F60000C4F202004A
:103BB000006800F002010020B0EB510F0CD1FFE7CC
:103BC000FEF762FA0399401A032804D3FFE70320A3
:103BD0008DF817003BE2E7E743F60001C4F202016B
:103BE000086820F0F800049A126940EAC2000860F0
:103BF00021E00021C4F2472100200860FEF744FACA
:103C00000390FFE743F60000C4F20200006800F0F2
:103C100002010020B0EB510F0CD0FFE7FEF734FAA1
:103C20000399401A032804D3FFE703208DF81700F7
:103C30000DE2E7E7FFE7FFE7FFE7049800780007FA
:103C400000284BD5FFE70498406918B3FFE740F61A
:103C50008061C4F2472101200860FEF715FA039045
:103C6000FFE743F67400C4F20200006800F00201AE
:103C70000020B0EB510F0CD1FFE7FEF705FA0399D6
:103C8000401A032804D3FFE703208DF81700DEE174
:103C9000E7E722E040F68061C4F247210020086097
:103CA000FEF7F2F90390FFE743F67400C4F2020056
:103CB000006800F002010020B0EB510F0CD0FFE7CC
:103CC000FEF7E2F90399401A032804D3FFE7032023
:103CD0008DF81700BBE1E7E7FFE7FFE704980078FE
:103CE0004007002840F1CE80FFE700208DF8070054
:103CF00043F64000C4F202000068C000002815D45A
:103D0000FFE7FFE70020009043F64000C4F2020006
:103D1000016841F080510160006800F0805000901F
:103D20000098FFE701208DF80700FFE747F2000049
:103D3000C4F200000068C005002822D4FFE747F263
:103D40000001C4F20001086840F480700860FEF7CA
:103D50009BF90390FFE747F20000C4F200000068FF
:103D6000C00500280CD4FFE7FEF78EF90399401A2E
:103D7000032804D3FFE703208DF8170067E1EAE783
:103D8000FFE7FFE704988068012809D1FFE743F6C1
:103D90007001C4F20201086840F0010008601FE0F1
:103DA0000498806805280DD1FFE743F67001C4F23E
:103DB0000201086840F004000860086840F0010053
:103DC00008600CE043F67001C4F20201086820F0BC
:103DD00001000860086820F004000860FFE7FFE7C2
:103DE000FFE704988068F8B1FFE7FEF74DF903900C
:103DF000FFE743F67000C4F20200006800F0020121
:103E00000020B0EB510F0ED1FFE7FEF73DF903990B
:103E1000401A41F28931884204D3FFE703208DF82C
:103E2000170014E1E5E71EE0FEF72EF90390FFE727
:103E300043F67000C4F20200006800F002010020A6
:103E4000B0EB510F0ED0FFE7FEF71EF90399401AB1
:103E500041F28931884204D3FFE703208DF817002F
:103E6000F5E0E5E7FFE79DF80700012809D1FFE746
:103E700043F64001C4F20201086820F08050086057
:103E8000FFE7FFE704988069002800F0DC80FFE787
:103E900043F60800C4F20200006800F00C00082895
:103EA00000F08580FFE70498806902285CD1FFE775
:103EB0006021C4F2472100200860FEF7E5F8039076
:103EC000FFE743F60000C4F20200006800F0007152
:103ED0000020B0EB516F0CD0FFE7FEF7D5F8039947
:103EE000401A032804D3FFE703208DF81700AEE043
:103EF000E7E70499C869D1F820C04B6A8A6A40EAAA
:103F00000C0040EA8310D2034FF6FF739A43A2F5E8
:103F100080321043C96A40EA016043F60401C4F2EA
:103F2000020108606021C4F2472101200860FEF709
:103F3000ABF80390FFE743F60000C4F2020000680C
:103F400000F000710020B0EB516F0CD1FFE7FEF7DD
:103F50009BF80399401A032804D3FFE703208DF848
:103F6000170074E0E7E721E06021C4F24721002058
:103F70000860FEF789F80390FFE743F60000C4F2FB
:103F80000200006800F000710020B0EB516F0CD00F
:103F9000FFE7FEF779F80399401A032804D3FFE7F7
:103FA00003208DF8170052E0E7E7FFE74AE00498A6
:103FB0008069012804D1FFE701208DF8170046E051
:103FC00043F60400C4F2020000680290049880697D
:103FD000012831D0FFE7029800F480000499C969F4
:103FE000884229D1FFE7029800F03F000499096A4E
:103FF000884221D1FFE7029847F6C0710840049932
:10400000496AB0EB811F17D1FFE7029800F44030F6
:104010000499896AC9034FF6FF729143A1F5803173
:10402000884209D1FFE7029800F070600499C96ADC
:10403000B0EB016F04D0FFE701208DF8170006E018
:10404000FFE7FFE7FFE700208DF81700FFE79DF887
:10405000170006B080BD000081B0009001B070472D
:1040600081B0009001B0704785B003900291FFE7E6
:10407000039890F83C00012804D1FFE702208DF856
:1040800013007EE00399012081F83C00FFE7FFE781
:104090000399022081F83D00039800684068019070
:1040A0000398006880680090019820F070000190EB
:1040B00002980168019808430190019803990968E2
:1040C0004860039800680021C4F2010188423CD096
:1040D000FFE703980068B0F1804F36D0FFE7039800
:1040E000006840F20041C4F2000188422DD0FFE791
:1040F0000398006840F60001C4F20001884224D011
:10410000FFE70398006840F60041C4F200018842CE
:104110001BD0FFE70398006840F20041C4F20101A0
:10412000884212D0FFE70398006844F20001C4F20D
:104130000101884209D0FFE70398006841F60001B9
:10414000C4F2000188420ED1FFE7009820F0800001
:1041500000900298416800980843009000980399E5
:1041600009688860FFE70399012081F83D00FFE7B7
:104170000399002081F83C00FFE700208DF8130030
:10418000FFE79DF8130005B07047000080B582B0CE
:104190000090009820B9FFE701208DF807003FE06C
:1041A000009890F83D0040B9FFE70099002081F8A1
:1041B0003C00009800F038F8FFE70099022081F8F1
:1041C0003D00009951F8040B05F094FE0099012080
:1041D00081F84600FFE70099012081F83E00009930
:1041E00081F83F00009981F84000009981F8410072
:1041F000FFE7FFE70099012081F84200009981F86C
:104200004300009981F84400009981F84500FFE7D8
:104210000099012081F83D0000208DF80700FFE79C
:104220009DF8070002B080BD80B586B00590059866
:10423000006840F20041C4F20001884212D1FFE759
:10424000FFE70020049043F64000C4F2020001683A
:1042500041F002010160006800F00200049004983F
:10426000FFE75CE00598006840F60001C4F2000139
:10427000884212D1FFE7FFE70020039043F6400099
:10428000C4F20200016841F004010160006800F01E
:10429000040003900398FFE740E00598006841F2AE
:1042A0000041C4F2000188421BD1FFE7FFE7002074
:1042B000029043F64000C4F20200016841F0200180
:1042C0000160006800F0200002900298FFE73720AC
:1042D000009005210022FDF7B5FF0098FDF7A8FF2B
:1042E0001BE00598006844F20041C4F201018842D5
:1042F00012D1FFE7FFE70020019043F64400C4F22B
:104300000200016841F400310160006800F40030EF
:1043100001900198FFE7FFE7FFE7FFE7FFE706B03F
:1043200080BD000083B00190019890F83D00012805
:1043300004D0FFE701208DF80B006AE0019902200C
:1043400081F83D0001980168C86840F00100C8602C
:10435000019800680021C4F2010188423CD0FFE7C7
:1043600001980068B0F1804F36D0FFE701980068EF
:1043700040F20041C4F2000188422DD0FFE70198CD
:10438000006840F60001C4F20001884224D0FFE733
:104390000198006840F60041C4F2000188421BD039
:1043A000FFE70198006840F20041C4F20101884231
:1043B00012D0FFE70198006844F20001C4F2010145
:1043C000884209D0FFE70198006841F60001C4F275
:1043D0000001884212D1FFE701980068806800F070
:1043E000070000900098062807D0FFE701980168B1
:1043F000086840F001000860FFE706E001980168E6
:10440000086840F001000860FFE700208DF80B000D
:10441000FFE79DF80B0003B07047000080B586B041
:104420000490039100208DF80B00FFE7049890F8AA
:104430003C00012804D1FFE702208DF81700ABE013
:104440000499012081F83C00FFE7FFE7049902206E
:1044500081F83D000498006880680190019820F080
:1044600077000190019820F47F4001900198049911
:1044700009688860039800680090002872D0FFE700
:10448000009810286ED0FFE7009820286AD0FFE738
:104490000098302866D0FFE70098402855D0FFE705
:1044A0000098502837D0FFE70098602840D0FFE7F9
:1044B000009870280BD0FFE70098B0F5805F05D01A
:1044C000FFE70098B0F5005F16D052E055E0049881
:1044D0000068039B5A689968DB6805F0F9FD049849
:1044E000006880680190019840F077000190019881
:1044F00004990968886040E004980068039B5A6842
:104500009968DB6805F0E4FD04980168886840F468
:104510008040886031E004980068039A5168D2684E
:1045200005F0C2FF04980068502105F0EBFD24E07F
:1045300004980068039A5168D26805F0DDFF04987A
:104540000068602105F0DEFD17E004980068039A1A
:104550005168D26805F0A8FF04980068402105F072
:10456000D1FD0AE0049800680399096805F0CAFDC6
:1045700003E001208DF80B00FFE70499012081F88A
:104580003D00FFE70499002081F83C00FFE79DF81B
:104590000B008DF81700FFE79DF8170006B080BDEF
:1045A00080B586B004900391049820B9FFE70120FC
:1045B0008DF8170088E0049890F83D0040B9FFE7B7
:1045C0000499002081F83C00049800F081F8FFE78E
:1045D0000499022081F83D0004980168886844F23B
:1045E000070290438860049951F8040B05F082FC9F
:1045F00004980068806802900498006880690190BF
:1046000004980068006A00900398016802980843C3
:104610000290019840F20331884301900399886821
:10462000896940EA0121019808430190019840F608
:104630000C418843019001984FF2F00188430190AA
:104640000399C868C96940EA0121019808430190AB
:1046500003990869096A000140EA01310198084399
:104660000190009820F022000090009820F088002F
:10467000009003994868496940EA0111009808438D
:104680000090029804990968886001980499096863
:10469000886100980499096808620499012081F8EA
:1046A0004600049981F83E00049981F83F0004997E
:1046B00081F84200049981F84300049981F83D0093
:1046C00000208DF81700FFE79DF8170006B080BDA9
:1046D00080B592B01190002010900F900E900D9028
:1046E0000C90119800680021C4F20101884234D175
:1046F000FFE7FFE700200B9043F64400C4F20200FE
:10470000016841F001010160006800F001000B90B8
:104710000B98FFE7FFE700200A9043F63000C4F251
:104720000200016841F010010160006800F0100013
:104730000A900A98FFE74FF420600C9002200D9039
:1047400000200E900F900120109041F20000C4F262
:1047500002000CA9FDF78CFA9AE011980068B0F1FC
:10476000804F59D1FFE7FFE70020099043F6400052
:10477000C4F20200016841F001010160006800F02C
:10478000010009900998FFE7FFE70020089043F631
:104790003000C4F20200016841F0010101600068CC
:1047A00000F0010008900898FFE7FFE7002007905D
:1047B00043F63000C4F20200016841F002010160DA
:1047C000006800F0020007900798FFE720200C9097
:1047D000022001900D90002002900E900F90012079
:1047E000039010900020C4F202000CA90491FDF780
:1047F0003FFA019B029A039804994FF0080CCDF8F8
:1048000030C00D930E920F92109040F20040C4F20F
:104810000200FDF72DFA3AE01198006840F60041D9
:10482000C4F20001884231D1FFE7FFE70020069083
:1048300043F64000C4F20200016841F00801016043
:10484000006800F0080006900698FFE7FFE70020E8
:10485000059043F63000C4F20200016841F0010106
:104860000160006800F0010005900598FFE7032053
:104870000C9002200D9000210E910F9110900020BD
:10488000C4F202000CA9FDF7F3F9FFE7FFE7FFE729
:1048900012B080BD80B586B004900391049890F862
:1048A0003E008DF80B00049890F83F008DF80A0048
:1048B000049890F842008DF80900049890F843009D
:1048C0008DF808000398B8B9FFE79DF80B000128A0
:1048D00005D1FFE79DF80900012804D0FFE701207A
:1048E0008DF8170079E00499022081F83E000499C0
:1048F00081F84200FFE742E00398042817D1FFE760
:104900009DF80A00012805D1FFE79DF8080001285D
:1049100004D0FFE701208DF817005EE00499022023
:1049200081F83F00049981F84300FFE726E09DF8F5
:104930000B0001280FD1FFE79DF80A0001280AD1DA
:10494000FFE79DF80900012805D1FFE79DF8080061
:10495000012804D0FFE701208DF817003DE00499FD
:10496000022081F83E00049981F83F00049981F803
:104970004200049981F84300FFE7FFE7FFE703984F
:10498000019020B1FFE70198042807D00DE00498BA
:1049900000680021012205F07FFB14E00498006804
:1049A0000421012205F078FB0DE004980068002145
:1049B0000122009205F070FB009A0498006804211F
:1049C00005F06AFBFFE704980168086840F0010001
:1049D000086000208DF81700FFE79DF8170006B06B
:1049E00080BD000081B0009001B0704780B584B0F8
:1049F000039003980068C0680290039800680069FB
:104A000001909DF804008007002824D5FFE79DF859
:104A10000800800700281DD5FFE7039801686FF0A4
:104A200002000861039901200877039800688069F3
:104A3000800720B1FFE70398FFF7D4FF06E0039853
:104A400000F094F9039800F089FAFFE70399002039
:104A50000877FFE7FFE79DF804004007002825D509
:104A6000FFE79DF80800400700281ED5FFE70398E0
:104A700001686FF004000861039902200877039829
:104A80000068806910F4407F04D0FFE70398FFF7C7
:104A9000A9FF06E0039800F069F9039800F05EFAB8
:104AA000FFE7039900200877FFE7FFE79DF8040080
:104AB0000007002824D5FFE79DF80800000700281C
:104AC0001DD5FFE7039801686FF00800086103999E
:104AD0000420087703980068C069800720B1FFE7C9
:104AE0000398FFF77FFF06E0039800F03FF9039873
:104AF00000F034FAFFE7039900200877FFE7FFE7AB
:104B00009DF80400C006002825D5FFE79DF80800A1
:104B1000C00600281ED5FFE7039801686FF010005B
:104B2000086103990820087703980068C06910F4A9
:104B3000407F04D0FFE70398FFF754FF06E0039897
:104B400000F014F9039800F009FAFFE70399002038
:104B50000877FFE7FFE79DF80400C00778B1FFE79B
:104B60009DF80800C00748B1FFE7039801686FF09F
:104B700001000861039800F0DBFAFFE7FFE79DF80A
:104B800004000006002810D5FFE79DF80800000685
:104B9000002809D5FFE7039801686FF080000861DD
:104BA0000398FFF759FAFFE7FFE79DF80400400676
:104BB000002810D5FFE79DF808004006002809D519
:104BC000FFE7039801686FF040000861039800F068
:104BD000E9FAFFE7FFE79DF804008006002810D5FA
:104BE000FFE79DF808008006002809D5FFE7039835
:104BF00001686FF0200008610398FFF731FAFFE7C2
:104C0000FFE704B080BD000080B58EB00D9000209D
:104C10000C900B900A90099008900D98006840F253
:104C20000041C4F20001884222D1FFE7FFE70020E3
:104C3000079043F63000C4F20200016841F004011D
:104C40000160006800F0040007900798FFE74FF448
:104C5000707008900220099000210A910B910C902D
:104C600040F60000C4F2020008A9FDF701F87AE05E
:104C70000D98006840F60001C4F20001884245D159
:104C8000FFE7FFE70020069043F63000C4F2020081
:104C9000016841F008010160006800F0080006901A
:104CA0000698FFE7FFE70020059043F63000C4F2C6
:104CB0000200016841F002010160006800F002009A
:104CC00005900598FFE74FF44040089002200290BD
:104CD0000990002101910A910B910C9040F600403F
:104CE000C4F2020008A90391FCF7C2FF019A0298DE
:104CF0000399C023089309900A920B920C9040F2FA
:104D00000040C4F20200FCF7B3FF2BE00D980068EE
:104D100044F20041C4F20101884222D1FFE7FFE7DB
:104D20000020049043F63000C4F20200016841F014
:104D300020010160006800F0200004900498FFE763
:104D4000402008900220099000200A900B90032038
:104D50000C9041F20040C4F2020008A9FCF788FF61
:104D6000FFE7FFE7FFE70EB080BD000081B00090D5
:104D700001B0704780B586B0049003910292002084
:104D80008DF80700FFE7049890F83C00012804D153
:104D9000FFE702208DF8170089E00499012081F8CF
:104DA0003C00FFE7FFE7029800900C2800F27080BB
:104DB0000099DFE801F0076D6D6D206D6D6D3A6D46
:104DC0006D6D530004980068039905F0B1F90498DB
:104DD0000168886940F00800886104980168886962
:104DE00020F00400886103980269049801688869CA
:104DF0001043886150E004980068039905F00EFAAA
:104E000004980168886940F400608861049801682A
:104E1000886920F4806088610398026904980168B9
:104E2000886940EA0220886136E0049800680399A6
:104E300005F06EFA04980168C86940F00800C8617E
:104E400004980168C86920F00400C86103980269E9
:104E500004980168C8691043C8611DE0049800689F
:104E6000039905F0CFFA04980168C86940F400601E
:104E7000C86104980168C86920F48060C86103981B
:104E8000026904980168C86940EA0220C86103E029
:104E900001208DF80700FFE7FFE70499002081F863
:104EA0003C00FFE79DF807008DF81700FFE79DF82D
:104EB000170006B080BD000080B582B00090009859
:104EC00020B9FFE701208DF807003FE0009890F837
:104ED0003D0040B9FFE70099002081F83C000098B0
:104EE00000F038F8FFE70099022081F83D000099B2
:104EF00051F8040B04F0FEFF0099012081F84600F0
:104F0000FFE70099012081F83E00009981F83F00F9
:104F1000009981F84000009981F84100FFE7FFE720
:104F20000099012081F84200009981F8430000991E
:104F300081F84400009981F84500FFE700990120BD
:104F400081F83D0000208DF80700FFE79DF807007D
:104F500002B080BD81B0009001B0704781B0009078
:104F600001B0704780B58CB00A900991099828B9B2
:104F7000FFE70A9890F83E0007901CE00998042883
:104F800005D1FFE70A9890F83F00069010E00998D5
:104F9000082805D1FFE70A9890F84000059004E042
:104FA0000A9890F841000590FFE705980690FFE702
:104FB00006980790FFE70798012804D0FFE7012033
:104FC0008DF82F00AFE0099828B9FFE70A99022071
:104FD00081F83E001EE00998042806D1FFE70A99EF
:104FE000022081F83F00049012E00998082806D1B9
:104FF000FFE70A99022081F84000039005E00A9932
:10500000022081F841000390FFE703980490FFE736
:105010000498FFE70A98006809990122019205F0B7
:105020003BF801980A9909680022C4F201029142F2
:1050300002900CD0FFE70A9800684FF60041CBF6CB
:10504000FE710844B0FA80F040090290FFE7029830
:10505000C00738B1FFE70A980168486C40F4004087
:105060004864FFE70A9800680021C4F20101884201
:105070003CD0FFE70A980068B0F1804F36D0FFE7D8
:105080000A98006840F20041C4F2000188422DD025
:10509000FFE70A98006840F60001C4F20001884268
:1050A00024D0FFE70A98006840F60041C4F20001EE
:1050B00088421BD0FFE70A98006840F20041C4F222
:1050C0000101884212D0FFE70A98006844F200010B
:1050D000C4F20101884209D0FFE70A98006841F64E
:1050E0000001C4F20001884212D1FFE70A9800686B
:1050F000806800F0070008900898062807D0FFE7AE
:105100000A980168086840F001000860FFE706E0BF
:105110000A980168086840F001000860FFE7002075
:105120008DF82F00FFE79DF82F000CB080BD000028
:1051300080B582B001900198006841F20001C4F28C
:105140000001884203D1FFE7FCF7A4FF27E00198A4
:10515000006841F20041C4F2000188421ED1FFE71D
:1051600040F2F400C2F200000068B0B1FFE740F284
:10517000F400C2F2000000900068D830FCF746F856
:105180000098006800F58670FCF740F80098006809
:1051900000F5A070FCF73AF8FFE7FFE7FFE702B081
:1051A00080BD000081B0009001B0704780B586B02E
:1051B00004900391ADF80A20049890F8420020284A
:1051C00048D1FFE7039820B1FFE7BDF80A0020B9F6
:1051D000FFE701208DF8170040E0049901200863E3
:1051E00004990020486304980399BDF80A2005F04B
:1051F00059FC8DF809000498006B012821D1FFE7C4
:10520000FFE700200190049800680068019004986E
:105210000068406801900198FFE7FFE7FFE7049806
:10522000006850E8030F40F010000090FFE700997D
:105230000498026842E803100028F0D1FFE7FFE776
:1052400003E001208DF80900FFE79DF809008DF8C3
:10525000170003E002208DF81700FFE79DF8170004
:1052600006B080BD80B584B00390ADF80A100398F5
:1052700042F61811C2F20001884201D0FFE717E0A0
:10528000BDF80A2043F21810C2F2000042F68D71F8
:10529000C2F20001009103F0F3FC0099019042F684
:1052A0001810C2F200004FF48072FFF77FFFFFE793
:1052B00004B080BD81B0009001B0704780B592B05D
:1052C0001190119800680068109011980068C068EB
:1052D0000F901198006840690E9000200D900C907E
:1052E000109800F00F000D900D9888B9FFE79DF819
:1052F0004000800600280AD5FFE79DF83C008006A4
:10530000002804D5FFE7119805F07AFA02E2FFE7DA
:105310000D98002800F0C280FFE79DF83800C00714
:1053200038B9FFE7BDF83C0010F4907F00F0B6807C
:10533000FFE79DF84000C00758B1FFE79DF83D002A
:10534000C00730B1FFE71199486C40F00100486494
:10535000FFE79DF84000400700280BD5FFE79DF8C8
:105360003800C00730B1FFE71199486C40F00200E7
:105370004864FFE79DF84000800700280BD5FFE751
:105380009DF83800C00730B1FFE71199486C40F034
:1053900004004864FFE79DF840000007002811D58D
:1053A000FFE79DF83C008006002805D4FFE79DF844
:1053B0003800C00730B1FFE71199486C40F0080091
:1053C0004864FFE71198406C002866D0FFE79DF81D
:1053D0004000800600280AD5FFE79DF83C008006C3
:1053E000002804D5FFE7119805F00AFAFFE71198A5
:1053F00000684069C0F380100C901198406C000761
:10540000002804D4FFE70C9800283ED0FFE711984D
:1054100005F07CF9119800684069400600282FD5F6
:10542000FFE7FFE7FFE71198006850E8050F20F05D
:1054300040000B90FFE70B991198026842E80510B5
:105440000028F0D1FFE7FFE71198C06B98B1FFE7A4
:105450001198C16B4AF24D50C0F6000008651198D2
:10546000C06BFCF7ABF828B1FFE71198C06B016D7A
:105470008847FFE703E01198FFF71CFFFFE703E011
:105480001198FFF717FFFFE706E01198FFF712FFEB
:10549000119900204864FFE7FFE73BE11198006B9A
:1054A000012840F01781FFE79DF84000C006002862
:1054B00040F11081FFE79DF83C00C006002840F154
:1054C0000981FFE7FFE700200A9011980068006853
:1054D0000A901198006840680A900A98FFE71198AE
:1054E000006840694006002840F19A80FFE7119863
:1054F000C06B00684068ADF82600BDF826000028A3
:1055000075D0FFE7BDF826001199898D88426EDAC3
:10551000FFE7BDF826001199C8851198C06BC069D6
:10552000B0F5807F58D0FFE7FFE7FFE711980068EC
:1055300050E8030F20F480700890FFE70899119855
:10554000026842E803100028F0D1FFE7FFE7FFE719
:10555000FFE71198006850E8050F20F00100079060
:10556000FFE707991198026842E805100028F0D17A
:10557000FFE7FFE7FFE7FFE71198006850E8050F36
:1055800020F040000690FFE706991198026842E873
:1055900005100028F0D1FFE7FFE71199202081F8DE
:1055A0004200119900200863FFE7FFE711980068A7
:1055B00050E8030F20F010000590FFE705991198BF
:1055C000026842E803100028F0D1FFE7FFE71198D6
:1055D000C06BFBF77DFFFFE711990220486311982C
:1055E000818DC28D891A89B2FFF73CFE17E0BDF8A4
:1055F00026001199898D884210D1FFE71198C06B60
:10560000C069B0F5807F08D1FFE711990220486397
:105610001198818DFFF726FEFFE7FFE7FFE779E0AE
:105620001199888DC98D401AADF812001198C08D5E
:1056300000284ED0FFE7BDF81200002849D0FFE750
:10564000FFE7FFE71198006850E8030F20F490701F
:105650000390FFE703991198026842E803100028BD
:10566000F0D1FFE7FFE7FFE7FFE71198006850E898
:10567000050F20F001000290FFE7029911980268DF
:1056800042E805100028F0D1FFE7FFE7119920203C
:1056900081F84200119900200863FFE7FFE71198A5
:1056A000006850E8030F20F010000190FFE7019917
:1056B0001198026842E803100028F0D1FFE7FFE7E5
:1056C0001199022048631198BDF81210FFF7CAFD26
:1056D000FFE71FE09DF84000000600280AD5FFE71D
:1056E0009DF83C000006002804D5FFE7119805F05E
:1056F00071FA0FE09DF84000400600280AD5FFE748
:105700009DF83C004006002804D5FFE7119805F0FD
:1057100047F8FFE712B080BD80B582B000900098D6
:1057200020B9FFE701208DF8070040E0009880696C
:1057300008B1FFE700E0FFE7009890F8410040B9AA
:10574000FFE70099002081F84000009800F034F84D
:10575000FFE70099242081F8410000980168C8689B
:1057600020F40050C860009805F0FEF80098016829
:10577000086920F49040086100980168486920F0A9
:105780002A00486100980168C86840F40050C86069
:10579000009900204864009A202182F84110009A64
:1057A00082F84210009948638DF80700FFE79DF8E2
:1057B000070002B080BD000080B590B00F900020BF
:1057C0000E900D900C900B900A900F98006844F684
:1057D0000041C4F20001884235D1FFE7FFE7002015
:1057E000099043F64000C4F20200016841F4002130
:1057F0000160006800F4002009900998FFE7FFE7C6
:105800000020089043F63000C4F20200016841F025
:1058100004010160006800F0040008900898FFE7A8
:105820004FF440600A9002200B9000200C9003205F
:105830000D9008200E9040F60000C4F202000AA964
:10584000FCF716FAB1E00F98006841F20001C4F2CB
:105850000101884234D1FFE7FFE70020079043F6BB
:105860004400C4F20200016841F0100101600068C8
:1058700000F0100007900798FFE7FFE70020069070
:1058800043F63000C4F20200016841F001010160FA
:10589000006800F0010006900698FFE74FF4C06032
:1058A0000A9002200B9000200C9003200D900720FE
:1058B0000E900020C4F202000AA9FCF7D9F973E0A7
:1058C0000F98006844F60001C4F2000188426AD1D2
:1058D000FFE7FFE70020059043F64000C4F2020016
:1058E000016841F480210160006800F48020059087
:1058F0000598FFE7FFE70020049043F63000C4F26C
:105900000200016841F002010160006800F002003D
:1059100004900498FFE74FF440600A9002200B9037
:10592000002002900C9003200D9007200E9040F272
:105930000040C4F202000AA9FCF79AF9029942F267
:105940004C10C2F20000039046F22802C4F2020298
:1059500002604FF0006242608160C1604FF480627B
:10596000026141618161C1614FF4003202624162B2
:10597000FBF7D6FF18B1FFE7FBF738FDFFE7FFE7BE
:105980000F9842F24C11C2F20001C1630F98886374
:10599000FFE72720019005210022FCF753FC019826
:1059A000FCF746FCFFE7FFE7FFE710B080BD000013
:1059B00081B0009001B0704781B0009001B0704795
:1059C00081B0009001B07047FFE7FEE783B002901E
:1059D00001910092029840B1FFE742F66470C2F272
:1059E0000000006802990860FFE7019840B1FFE7F6
:1059F00042F66870C2F20000006801990860FFE793
:105A0000009840B1FFE742F66C70C2F200000068F7
:105A100000990860FFE703B07047000083B0029070
:105A200001910092029840B1FFE743F2A800C2F250
:105A30000000006802990860FFE7019840B1FFE7A5
:105A400043F2A400C2F20000006801990860FFE779
:105A5000009840B1FFE743F23450C2F20000006802
:105A600000990860FFE703B07047000083B0029020
:105A700001910092029840B1FFE742F68070C2F2B5
:105A80000000006802990860FFE7019840B1FFE755
:105A900042F68470C2F20000006801990860FFE7D6
:105AA000009840B1FFE742F68870C2F2000000683B
:105AB00000990860FFE703B07047000080B582B02E
:105AC000019043F21810C2F2000043F22C11C2F20E
:105AD00000014FF4806203F053F809F02FFFFFE755
